:020000040800F2
:1000000000500020554B0008352500083725000812
:10001000392500083B2500083D25000800000000A8
:100020000000000000000000000000004142000845
:100030003F25000800000000E142000825430008B9
:100040009D4B00089D4B00089D4B00089D4B0008F0
:100050009D4B00089D4B00089D4B00089D4B0008E0
:100060009D4B00089D4B00089D4B00089D4B0008D0
:100070009D4B00089D4B00089D4B00089D4B0008C0
:100080009D4B00089D4B00089D4B00089D4B0008B0
:100090009D4B00089D4B00089D4B00089D4B0008A0
:1000A0009D4B00089D4B00089D4B00089D4B000890
:1000B0009D4B00089D4B0008294900089D4B0008F6
:1000C0009D4B00089D4B00089D4B00089D4B000870
:1000D0009D4B00089D4B00089D4B00089D4B000860
:1000E0009D4B00089D4B00089D4B00080000000040
:1000F0000000000000000000000000000000000000
:0C01000000000000000000005FF808F1A3
:10011000034613F8012B002AFBD1181A0138704747
:1001200081F0004102E000BF83F0004330B54FEAA8
:1001300041044FEA430594EA050F08BF90EA020F15
:100140001FBF54EA000C55EA020C7FEA645C7FEAA8
:10015000655C00F0E2804FEA5454D4EB5555B8BFCB
:100160006D420CDD2C4480EA020281EA030382EA3C
:10017000000083EA010180EA020281EA0303362DCE
:1001800088BF30BD11F0004F4FEA01314FF4801CA1
:100190004CEA113102D0404261EB410113F0004FB3
:1001A0004FEA03334CEA133302D0524263EB43036A
:1001B00094EA050F00F0A780A4F10104D5F1200E08
:1001C0000DDB02FA0EFC22FA05F2801841F1000163
:1001D00003FA0EF2801843FA05F359410EE0A5F137
:1001E00020050EF1200E012A03FA0EFC28BF4CF068
:1001F000020C43FA05F3C01851EBE37101F000451E
:1002000007D54FF0000EDCF1000C7EEB00006EEB2A
:100210000101B1F5801F1BD3B1F5001F0CD34908B4
:100220005FEA30004FEA3C0C04F101044FEA44520B
:1002300012F5800F80F09A80BCF1004F08BF5FEA92
:10024000500C50F1000041EB045141EA050130BD72
:100250005FEA4C0C404141EB0101013C28BFB1F584
:10026000801FE9D291F0000F04BF01460020B1FACF
:1002700081F308BF2033A3F10B03B3F120020CDAA2
:100280000C3208DD02F1140CC2F10C0201FA0CF080
:1002900021FA02F10CE002F11402D8BFC2F1200CE5
:1002A00001FA02F120FA0CFCDCBF41EA0C0190409B
:1002B000E41AA2BF01EB0451294330BD6FEA0404E4
:1002C0001F3C1CDA0C340EDC04F11404C4F12002CF
:1002D00020FA04F001FA02F340EA030021FA04F3E1
:1002E00045EA030130BDC4F10C04C4F1200220FA38
:1002F00002F001FA04F340EA0300294630BD21FA76
:1003000004F0294630BD94F0000F83F4801306BF3B
:1003100081F480110134013D4EE77FEA645C18BF2F
:100320007FEA655C29D094EA050F08BF90EA020FC6
:1003300005D054EA000C04BF1946104630BD91EABE
:10034000030F1EBF0021002030BD5FEA545C05D1C1
:100350004000494128BF41F0004130BD14F5800400
:100360003CBF01F5801130BD01F0004545F0FE4174
:1003700041F470014FF0000030BD7FEA645C1ABFA9
:10038000194610467FEA655C1CBF0B46024650EAE0
:10039000013406BF52EA033591EA030F41F400210C
:1003A00030BD00BF90F0000F04BF0021704730B592
:1003B0004FF4806404F132044FF000054FF0000167
:1003C00050E700BF90F0000F04BF0021704730B528
:1003D0004FF4806404F1320410F0004548BF4042FD
:1003E0004FF000013EE700BF42004FEAE2014FEA52
:1003F00031014FEA02701FBF12F07F4393F07F4F2D
:1004000081F06051704732F07F4208BF704793F02F
:100410007F4F04BF41F40021704730B54FF4607442
:1004200001F0004521F000411CE700BF50EA010245
:1004300008BF704730B54FF000050AE050EA0102EE
:1004400008BF704730B511F0004502D5404261EB5E
:1004500041014FF4806404F132045FEA915C3FF49F
:10046000D8AE4FF003025FEADC0C18BF03325FEA3C
:10047000DC0C18BF033202EBDC02C2F1200300FAED
:1004800003FC20FA02F001FA03FE40EA0E0021FA12
:1004900002F11444BDE600BF70B54FF0FF0C4CF400
:1004A000E06C1CEA11541DBF1CEA135594EA0C0FB2
:1004B00095EA0C0F00F0DEF82C4481EA030621EAED
:1004C0004C5123EA4C5350EA013518BF52EA033528
:1004D00041F4801143F4801338D0A0FB02CE4FF0DA
:1004E0000005E1FB02E506F00042E0FB03E54FF00A
:1004F0000006E1FB03569CF0000F18BF4EF0010E02
:10050000A4F1FF04B6F5007F64F5407404D25FEAFD
:100510004E0E6D4146EB060642EAC62141EA5551B0
:100520004FEAC52040EA5E504FEACE2EB4F1FD0CF2
:1005300088BFBCF5E06F1ED8BEF1004F08BF5FEA70
:10054000500E50F1000041EB045170BD06F0004622
:1005500046EA010140EA020081EA0301B4EB5C04CF
:10056000C2BFD4EB0C0541EA045170BD41F48011C7
:100570004FF0000E013C00F3AB8014F1360FDEBFEC
:10058000002001F0004170BDC4F10004203C35DAC8
:100590000C341BDC04F11404C4F1200500FA05F34B
:1005A00020FA04F001FA05F240EA020001F00042EC
:1005B00021F0004110EBD37021FA04F642EB060162
:1005C0005EEA430E08BF20EAD37070BDC4F10C048C
:1005D000C4F1200500FA04F320FA05F001FA04F250
:1005E00040EA020001F0004110EBD37041F100013C
:1005F0005EEA430E08BF20EAD37070BDC4F1200547
:1006000000FA05F24EEA020E20FA04F301FA05F2AE
:1006100043EA020321FA04F001F0004121FA04F256
:1006200020EA020000EBD3705EEA430E08BF20EA26
:10063000D37070BD94F0000F0FD101F00046400060
:1006400041EB010111F4801F08BF013CF7D041EAE2
:10065000060195F0000F18BF704703F000465200E6
:1006600043EB030313F4801F08BF013DF7D043EAB7
:100670000603704794EA0C0F0CEA135518BF95EA6D
:100680000C0F0CD050EA410618BF52EA4306D1D1F4
:1006900081EA030101F000414FF0000070BD50EA13
:1006A000410606BF1046194652EA430619D094EA9D
:1006B0000C0F02D150EA013613D195EA0C0F05D187
:1006C00052EA03361CBF104619460AD181EA0301DB
:1006D00001F0004141F0FE4141F470014FF0000093
:1006E00070BD41F0FE4141F4780170BD70B54FF02E
:1006F000FF0C4CF4E06C1CEA11541DBF1CEA1355AE
:1007000094EA0C0F95EA0C0F00F0A7F8A4EB05048F
:1007100081EA030E52EA03354FEA013100F0888086
:100720004FEA03334FF0805545EA131343EA12634F
:100730004FEA022245EA111545EA10654FEA002604
:100740000EF000419D4208BF964244F1FD0404F5BD
:10075000407402D25B084FEA3202B61A65EB030519
:100760005B084FEA32024FF480104FF4002CB6EBD6
:10077000020E75EB030E22BFB61A754640EA0C0056
:100780005B084FEA3202B6EB020E75EB030E22BF96
:10079000B61A754640EA5C005B084FEA3202B6EBD7
:1007A000020E75EB030E22BFB61A754640EA9C0096
:1007B0005B084FEA3202B6EB020E75EB030E22BF66
:1007C000B61A754640EADC0055EA060E18D04FEA24
:1007D000051545EA16754FEA06164FEAC30343EAC4
:1007E00052734FEAC2025FEA1C1CC0D111F4801F91
:1007F0000BD141EA00014FF000004FF0004CB6E78A
:1008000011F4801F04BF01430020B4F1FD0C88BF28
:10081000BCF5E06F3FF6AFAEB5EB030C04BFB6EB33
:10082000020C5FEA500C50F1000041EB045170BD26
:100830000EF0004E4EEA113114EB5C04C2BFD4EB53
:100840000C0541EA045170BD41F480114FF0000ED7
:10085000013C90E645EA060E8DE60CEA135594EA53
:100860000C0F08BF95EA0C0F3FF43BAF94EA0C0F56
:100870000AD150EA01347FF434AF95EA0C0F7FF4CB
:1008800025AF104619462CE795EA0C0F06D152EA1F
:1008900003353FF4FDAE1046194622E750EA410603
:1008A00018BF52EA43067FF4C5AE50EA41047FF414
:1008B0000DAF52EA43057FF4EBAE12E74FF0FF3C79
:1008C00006E000BF4FF0010C02E000BF4FF0010C4A
:1008D0004DF804CD4FEA410C7FEA6C5C4FEA430CC3
:1008E00018BF7FEA6C5C1BD001B050EA410C0CBF12
:1008F00052EA430C91EA030F02BF90EA020F002074
:10090000704710F1000F91EA030F58BF994208BFDA
:1009100090422CBFD8176FEAE37040F00100704797
:100920004FEA410C7FEA6C5C02D150EA013C07D1EE
:100930004FEA430C7FEA6C5CD6D152EA033CD3D039
:100940005DF8040B704700BF8446104662468C4633
:100950001946634600E000BF01B5FFF7B7FF002866
:1009600048BF10F1000F01BD4DF808EDFFF7F4FF8F
:100970000CBF012000205DF808FB00BF4DF808ED1A
:10098000FFF7EAFF34BF012000205DF808FB00BF3D
:100990004DF808EDFFF7E0FF94BF012000205DF85F
:1009A00008FB00BF4DF808EDFFF7CEFF94BF012014
:1009B00000205DF808FB00BF4DF808EDFFF7C4FF0D
:1009C00034BF012000205DF808FB00BF4FEA410260
:1009D00012F5001215D211D56FF47873B3EB625291
:1009E00012D94FEAC12343F0004343EA505311F0B8
:1009F000004F23FA02F018BF404270474FF000004A
:100A0000704750EA013005D111F0004008BF6FF087
:100A1000004070474FF00000704700BF4A0011D2FD
:100A200012F5001211D20DD56FF47873B3EB625248
:100A30000ED44FEAC12343F0004343EA505323FA54
:100A400002F070474FF00000704750EA013002D1C9
:100A50004FF0FF3070474FF0000070474FEA4102FF
:100A6000B2F1E04324BFB3F5001CDCF1FE5C0DD90C
:100A700001F0004C4FEAC0024CEA5070B2F1004F56
:100A800040EB830008BF20F00100704711F0804F59
:100A900021D113F13872BCBF01F00040704741F41E
:100AA00080114FEA5252C2F11802C2F1200C10FA22
:100AB0000CF320FA02F018BF40F001004FEAC12306
:100AC0004FEAD32303FA0CFC40EA0C0023FA02F3AA
:100AD0004FEA4303CCE77FEA625307D150EA013380
:100AE0001EBF4FF0FE4040F44000704701F0004050
:100AF00040F0FE4040F40000704700BF80F000402E
:100B000002E000BF81F0004142001FBF5FEA4103E5
:100B100092EA030F7FEA226C7FEA236C6AD04FEAE5
:100B20001262D2EB1363C1BFD2184140484041402A
:100B3000B8BF5B42192B88BF704710F0004F40F4DC
:100B4000000020F07F4018BF404211F0004F41F4F8
:100B5000000121F07F4118BF494292EA030F3FD0C4
:100B6000A2F1010241FA03FC10EB0C00C3F12003D7
:100B700001FA03F100F0004302D5494260EB400066
:100B8000B0F5000F13D3B0F1807F06D340084FEAD1
:100B9000310102F10102FE2A51D2B1F1004F40EBC6
:100BA000C25008BF20F0010040EA0300704749002E
:100BB00040EB0000013A28BFB0F5000FEDD2B0FACB
:100BC00080FCACF1080CB2EB0C0200FA0CF0AABFEE
:100BD00000EBC25052421843BCBFD040184370478C
:100BE00092F0000F81F4000106BF80F40000013292
:100BF000013BB5E74FEA41037FEA226C18BF7FEA69
:100C0000236C21D092EA030F04D092F0000F08BFAA
:100C10000846704790EA010F1CBF0020704712F091
:100C20007F4F04D1400028BF40F00040704712F1D0
:100C300000723CBF00F50000704700F0004343F035
:100C4000FE4040F4000070477FEA226216BF08466B
:100C50007FEA23630146420206BF5FEA412390EA2E
:100C6000010F40F4800070474FF0000304E000BF24
:100C700010F0004348BF40425FEA000C08BF7047D5
:100C800043F0964301464FF000001CE050EA010299
:100C900008BF70474FF000030AE000BF50EA0102AE
:100CA00008BF704711F0004302D5404261EB41019B
:100CB0005FEA010C02BF84460146002043F0B643C0
:100CC00008BFA3F18053A3F50003BCFA8CF2083AE5
:100CD000A3EBC25310DB01FA02FC634400FA02FCEE
:100CE000C2F12002BCF1004F20FA02F243EB0200F5
:100CF00008BF20F00100704702F1200201FA02FC57
:100D0000C2F1200250EA4C0021FA02F243EB020049
:100D100008BF20EADC7070474FF0FF0C1CEAD0528D
:100D20001EBF1CEAD15392EA0C0F93EA0C0F6FD04E
:100D30001A4480EA010C400218BF5FEA41211ED02C
:100D40004FF0006343EA501043EA5111A0FB013118
:100D50000CF00040B1F5000F3EBF490041EAD371ED
:100D60005B0040EA010062F17F02FD2A1DD8B3F169
:100D7000004F40EBC25008BF20F00100704790F0D8
:100D8000000F0CF0004C08BF49024CEA502040EA2A
:100D900051207F3AC2BFD2F1FF0340EAC2507047F0
:100DA00040F400004FF00003013A5DDC12F1190F2E
:100DB000DCBF00F000407047C2F10002410021FAA0
:100DC00002F1C2F1200200FA02FC5FEA310040F1B8
:100DD000000053EA4C0308BF20EADC70704792F031
:100DE000000F00F0004C02BF400010F4000F013A69
:100DF000F9D040EA0C0093F0000F01F0004C02BF64
:100E0000490011F4000F013BF9D041EA0C018FE7D2
:100E10000CEAD15392EA0C0F18BF93EA0C0F0AD0D8
:100E200030F0004C18BF31F0004CD8D180EA0100FE
:100E300000F00040704790F0000F17BF90F0004F97
:100E4000084691F0000F91F0004F14D092EA0C0F79
:100E500001D142020FD193EA0C0F03D14B0218BF0C
:100E6000084608D180EA010000F0004040F0FE4052
:100E700040F40000704740F0FE4040F440007047EE
:100E80004FF0FF0C1CEAD0521EBF1CEAD15392EA6D
:100E90000C0F93EA0C0F69D0A2EB030280EA010C5D
:100EA00049024FEA402037D04FF0805343EA1111F6
:100EB00043EA10130CF000408B4238BF5B0042F154
:100EC0007D024FF4000C8B4224BF5B1A40EA0C00F9
:100ED000B3EB510F24BFA3EB510340EA5C00B3EB2B
:100EE000910F24BFA3EB910340EA9C00B3EBD10F19
:100EF00024BFA3EBD10340EADC001B0118BF5FEA6B
:100F00001C1CE0D1FD2A3FF650AF8B4240EBC25093
:100F100008BF20F0010070470CF0004C4CEA502054
:100F20007F32C2BFD2F1FF0340EAC250704740F4A3
:100F300000004FF00003013A37E792F0000F00F095
:100F4000004C02BF400010F4000F013AF9D040EA13
:100F50000C0093F0000F01F0004C02BF490011F4A7
:100F6000000F013BF9D041EA0C0195E70CEAD1539F
:100F700092EA0C0F08D142027FF47DAF93EA0C0F86
:100F80007FF470AF084676E793EA0C0F04D14B026A
:100F90003FF44CAF08466EE730F0004C18BF31F01C
:100FA000004CCAD130F000427FF45CAF31F0004316
:100FB0007FF43CAF5FE700BF53B94AB9002908BFCF
:100FC00000281CBF4FF0FF314FF0FF3000F00CB88D
:100FD000ADF1080C6DE904CE03F050FEDDF804E03D
:100FE000DDE9022304B07047704700BF4FF0FF3CBB
:100FF00006E000BF4FF0010C02E000BF4FF0010C13
:101000004DF804CD4FEA40024FEA41037FEA226CDB
:1010100018BF7FEA236C11D001B052EA530C18BFFD
:1010200090EA010F58BFB2EB030088BFC81738BF62
:101030006FEAE17018BF40F0010070477FEA226C50
:1010400002D15FEA402C05D17FEA236CE4D15FEA4C
:10105000412CE1D05DF8040B704700BF8446084680
:101060006146FFE70FB5FFF7C9FF002848BF10F141
:10107000000F0FBD4DF808EDFFF7F4FF0CBF012086
:1010800000205DF808FB00BF4DF808EDFFF7EAFF10
:1010900034BF012000205DF808FB00BF4DF808EDCB
:1010A000FFF7E0FF94BF012000205DF808FB00BFC0
:1010B0004DF808EDFFF7D2FF94BF012000205DF846
:1010C00008FB00BF4DF808EDFFF7C8FF34BF012053
:1010D00000205DF808FB00BF0348044B834202D0A8
:1010E000034B03B118477047140000201400002080
:1010F000000000000548064B1B1AD90F01EBA301A5
:10110000491002D0034B03B1184770471400002068
:10111000140000200000000010B5064C237843B9ED
:10112000FFF7DAFF044B13B10448AFF3008001234B
:10113000237010BD1400002000000000304F000894
:1011400008B5054B1BB105490548AFF30080BDE864
:101150000840FFF7CFBF00BF0000000018000020CC
:10116000304F00080000000080B584B0384B1B6889
:101170000193384BB3F900004000FFF723F92EA389
:10118000D3E90023FFF788F904460D46324E37783D
:101190003846FFF717F92AA3D3E90023FFF77CF9B4
:1011A00000222E4BFFF778F900222D4BFFF774F940
:1011B00000222C4BFFF770F902460B4620462946C9
:1011C000FFF794FAFFF74AFC0290274BB3F90000AF
:1011D000264B18804000FFF7F5F817A3D3E900234A
:1011E000FFF75AF918A3D3E90023FFF77FFAFFF7B7
:1011F00035FC03903946684603F02EFA00234FF081
:10120000FF3269461A48006802F027F900231A469F
:1012100019461848006802F020F930784FF47A73C4
:1012200003FB00F0144BA3FB0030800902F06AFEC0
:101230009CE700BFAFF30080B4D54E54FB210940BA
:10124000FCA9F1D24D62503F0000000000F09E402A
:1012500094000020D845002000000020000010402D
:101260000000264000804640DC450020DA45002092
:101270009C00002098000020D34D621000B587B07C
:101280004FF0FF31114B186802F03DFA0028F7D0FB
:101290004FF0FF3202A90E4B186802F094F90128B2
:1012A000EED10398FFF7A0F804460D46094E0598C5
:1012B000FFF79AF8CDE9000122462B460649304651
:1012C00001F000F9304603F0EFFBD9E79800002069
:1012D0009C00002030000020484F000800B583B07B
:1012E00001F056F903F0EEFA03F088FA03F03CFB44
:1012F00003F090FB03F0E6FB00221021052002F032
:1013000081F8124B186003220021012002F07AF8C4
:101310000F4B186020B100231A46194602F09DF8C1
:101320000024019403230093234680222146094888
:1013300002F008FC019402230093234680222146F8
:10134000054802F0FFFB02F031FCFEE79C000020A4
:1013500098000020691100087D1200089A4200D20E
:101360008854704770470146002008E000EB800079
:10137000531C0B60137803EB4003A3F130000A68A1
:101380001378303BDBB2092BF0D970472DE9F04FD1
:1013900083B005460E4693461F46DDF830A00D9CEF
:1013A000DDF838900F9B13F0030F19D1A04601927E
:1013B000C84509D202F1010B3B4631462020A8471F
:1013C00008F101085A46F3E7DDF804B008E0013CF3
:1013D00002F101083B4631461AF80400A84742468C
:1013E000002CF4D10F9B13F0020F03D1104603B071
:1013F000BDE8F08FA2EB0B034B45F7D2541C3B46E4
:1014000031462020A8472246F4E72DE9F04385B075
:1014100099460C9D0D9C9DF83880DDF840E0119FA9
:10142000129E16F0020F21D17FB116F0010F0CD0E1
:10143000B8F1000F02D116F00C0F06D0013F04E006
:101440004FF0300C05F804C00134744501D21F2C54
:10145000F6D916F0010F09D0BC4207D21F2C05D8CF
:101460004FF0300C05F804C00134F2E716F0100F0D
:1014700014D016F4806F04D11CB1744522D0BC4244
:1014800020D00F9B102B36D00F9B022B3ED01F2C51
:101490000ED84FF0300C05F804C001341F2C07D8CB
:1014A000B8F1000F3AD04FF02D0C05F804C001340C
:1014B00003960297019400954B46FFF767FF05B02E
:1014C000BDE8F083B4F1010C13D00F9B102B0ED0AC
:1014D00064460F9B102BD7D116F0200FD4D01F2CB1
:1014E000D2D84FF0580C05F804C00134CFE7023CC5
:1014F000C7E76446C5E716F0200FEAD11F2CE8D8ED
:101500004FF0780C05F804C00134C0E71F2CCFD889
:101510004FF0620C05F804C00134B8E716F0040F70
:1015200005D04FF02B0C05F804C00134C0E716F0CD
:10153000080FBDD04FF0200C05F804C00134B7E708
:10154000F0B591B0169C189D1B9E0CB926F01006A4
:1015500016F4806E16D064B34FF0000E12E00CF15A
:10156000300C5FFA8CFC0EF101070EF1400EEE44D8
:101570000EF820CCB4FBF5FCAC421BD31F2F19D8BE
:10158000BE466446B4FBF5FC05FB1C4C5FFA8CFCC4
:10159000BCF1090FE3D916F0200F08D04127BC4455
:1015A0005FFA8CFCACF10A0C5FFA8CFCDBE761277C
:1015B000F5E7274606961A9C0594199C0494039512
:1015C0009DF85C400294019708AC0094FFF71DFF62
:1015D00011B0F0BD2DE9F04F95B009900A910B9232
:1015E0009846DDF878B0DDF87C90229D239F269EFA
:1015F0005BEA090201D126F0100616F480641ED0C1
:101600005BEA09022FD0002419E03032D3B204F192
:10161000010A04F150020DEB020404F8203C2A46B2
:101620003B4658464946FFF7C7FCAB4579EB0709EF
:101630001BD3BAF11F0F18D85446834689462A4651
:101640003B4658464946FFF7B7FCD2B2092ADCD9D7
:1016500016F0200F05D041231344DBB20A3BDBB266
:10166000D5E76123F8E74FF0000A0696259B05931E
:10167000249B049303959DF880300293CDF804A039
:101680000CAB009343460B9A0A990998FFF7BDFEED
:1016900015B0BDE8F08F00002DE9F04F91B0824603
:1016A0000C4693461D46DDE91A2310461946FFF7FE
:1016B0005BF9002800F007814FF0FF32AE4BDDE907
:1016C0001A01FFF779F9002840F0FD804FF0FF3252
:1016D0006FF48013DDE91A01FFF750F9002840F09C
:1016E000F28000220023DDE91A01FFF747F9002804
:1016F00040F0FC80DDE91A23CDE906231E9B13F49C
:1017000080630F9301D106231C93DDE90601024695
:10171000C1F30A50C1F31303904643F07F5949F4D3
:101720004019A0F2FF30FEF74DFE83A3D3E900235A
:10173000FEF7B2FE82A3D3E90023FEF7F7FC0646CC
:101740000F4600228D4B40464946FEF7EDFC7EA336
:10175000D3E90023FEF7A0FE02460B463046394689
:10176000FEF7E4FCFFF732F90646FEF72BFE804653
:10177000894677A3D3E90023FEF78EFE0022804B33
:10178000FEF7D4FCFFF722F9074673A3D3E9002341
:1017900040464946FEF780FE804689463846FEF7B9
:1017A00011FE6FA3D3E90023FEF776FE02460B4637
:1017B00040464946FEF7B8FC8046894602460B463D
:1017C000FEF76AFECDE90A0107F2FF370021002289
:1017D000CDE908123B0509930023089342464B4686
:1017E00040464946FEF7A2FCCDE90C0142464B4675
:1017F00000204FF08041FEF797FC8046894600228A
:10180000604BDDE90A01FEF771FF00225E4BFEF737
:101810008DFC02460B46DDE90A01FEF767FF002258
:101820005A4BFEF783FC02460B46DDE90A01FEF740
:101830005DFF02460B4640464946FEF777FC0246EE
:101840000B46DDE90C01FEF751FF0022504BFEF77D
:101850006DFCDDE90823FEF71FFE80468946CDE9D1
:101860000889DDE90623FFF7A7F840B1013E002211
:10187000454B40464946FEF739FFCDE9080106F1E0
:101880006303C62B3DD804271E9B13F4006F42D080
:1018900035A3D3E90023DDE9068940464946FFF731
:1018A00081F800283DD032A3D3E9002340464946C1
:1018B000FFF764F8002834D01C9BB34223DD9E1B45
:1018C000731E1C9321E01E9B04931D9B03931C9B82
:1018D0000293DDE91A23CDE900232B465A4621461F
:1018E000504600F0C9F811B0BDE8F08F0022002387
:1018F000CDE906231A9B06931B9B03F10043079334
:10190000FCE60527C0E700231C931E9B43F480637D
:101910001E9300273E461D9B9F423BD2A3EB070828
:101920003AE01C9B002BF6D00F9B002BF3D01C9BA6
:10193000013B1C93EFE700BFFB799F501344D33F5B
:10194000B3C8608B288AC63F61436F63A787D23FC5
:1019500071A379094F930A401655B5BBB16B02408C
:10196000EF39FAFE422EE63F2D431CEBE2361A3FDA
:101970000000000080842E41FFFFEF7F0000F83F51
:101980000000E03F00002C40000024400000184010
:101990000000F03F4FF000081E9B13F0020902D038
:1019A0000FB14FF000083EB1DDE90823DDE9060183
:1019B000FEF79CFECDE9060100220023DDE91A01B5
:1019C000FEF7DCFF00283DD11E9B23F40063049347
:1019D000CDF80C801C9B0293DDE90623CDE90023A2
:1019E0002B465A462146504600F046F8002F3FF459
:1019F0007AAF1E9B13F0200F2CD04FF0450C00F156
:101A000001082B46024621466046D04786EAE67228
:101A1000A2EBE67205230593013F0497002303938D
:101A20000A230293F30F019300922B46424621466C
:101A30005046FFF785FDB9F1000F3FF454AF024661
:101A40001D9F10E0DDE90601024601F10043CDE9EA
:101A50000623B9E74FF0650CD1E7561C2B4621460B
:101A60002020D0473246A2EB0B03BB42F5D31046F1
:101A700039E700BF000000002DE9F04F97B0079054
:101A80000A9192469B46DDE92089229D42464B46BB
:101A900040464946FEF768FF002840D04FF0FF322D
:101AA0006FF4801340464946FEF768FF002845D191
:101AB0004FF0FF32AC4B40464946FEF77DFF002811
:101AC0004BD1A5A3D3E9002340464946FEF774FF56
:101AD00000285AD1A2A3D3E9002340464946FEF785
:101AE0004DFF002851D10022002340464946FEF711
:101AF00045FF002857D100230B93249B13F4806FDC
:101B00005CD000241F2C5BD8092D59D904F158034F
:101B10006B44302203F8202C013D0134F2E7249B72
:101B20000393239B029303230193904B00935B4603
:101B300052460A990798FFF729FC07E1249B039373
:101B4000239B029304230193894B00935B465246E7
:101B50000A990798FFF71AFCF8E0249B13F0040396
:101B60000FD0844A7BB104232499039123990291D5
:101B7000019300925B4652460A990798FFF706FCCC
:101B8000E4E07D4AEEE70323EEE7249B0493239BE6
:101B900003930295CDE900895B4652460A9907985E
:101BA000FFF77AFDD2E042464B4600200021FEF7C7
:101BB000BBFA8046894601230B939EE70625A0E7E2
:101BC00040464946FEF702FF0646FEF7FBFB02468B
:101BD0000B4640464946FEF7A7FA684B03EBC503A0
:101BE000D3E90023CDE90C23FEF756FC02460B4651
:101BF000CDE90823FEF712FF0746FEF7D3FB0246A6
:101C00000B46DDE90801FEF78FFA02460B46CDE9E7
:101C1000082300225A4BFEF7CFFE08B3013738469F
:101C2000FEF7C0FB02460B46DDE90C01FEF7B0FEF5
:101C300008B1013600270DBB3046FEF7C3FB024654
:101C40000B4640464946FEF76FFA00224C4BFEF722
:101C500095FE002842D116F0010F3FD001363DE03D
:101C60000022474BDDE90801FEF788FE0028E2D19B
:101C700017B117F0010FDED00137DCE71F2C17D8A2
:101C8000013D404BA3FB0723DB08194603EB83030D
:101C9000A7EB4303621C303304F158000DEB000442
:101CA00004F8203C092F02D90F461446E6E71446F3
:101CB0001F2C0AD86B1E45B104F158026A4430212A
:101CC00002F8201C1D460134F2E71F2C06D804F14F
:101CD00058036B442E2203F8202C01341F2C17D8F4
:101CE000294A82FB0632F317C3EBA2031A4603EB21
:101CF0008303A6EB4303611C303304F158000DEB62
:101D0000000404F8203C16460AB10C46E6E70C46EF
:101D1000249B03F00303012B38D01F2C09D80B9B05
:101D2000002B50D004F158036B442D2203F8202CD3
:101D30000134249B0393239B029301940EAB0093E5
:101D40005B4652460A990798FFF720FB17B0BDE89B
:101D5000F08F00BFAFF300800000000065CDCD41E3
:101D60000000000065CDCDC1FFFFEF7F644F00088C
:101D7000684F0008584F0008604F0008784F00086F
:101D80000000E03FCDCCCCCC67666666239BB3B148
:101D90000B9B1BB9249B13F00C0F12D0239B013B10
:101DA0002393194606E004F158036B44302203F8EC
:101DB000202C01348C42B0D21F2CF4D9ADE72399EA
:101DC000F8E72399F6E7249B13F0040F07D004F1FA
:101DD00058036B442B2203F8202C0134A9E7249BE1
:101DE00013F0080FA5D004F158036B44202203F828
:101DF000202C01349DE700BF2DE9F04F91B08046C3
:101E000017460F938946002900F04A8300260F9B4E
:101E10001878002800F04783252809D0741C3B4619
:101E200032464946C0470F9B01330F932646EEE7E3
:101E300001330F9300251FE045F0010501320F9299
:101E4000012318E045F0020501320F92012312E050
:101E500045F0040501320F9201230CE045F008051E
:101E600001320F92012306E045F0100501320F9276
:101E7000012300E000234BB30F9A1378203B102B73
:101E8000F8D801A151F823F05D1E0008751E000866
:101E9000751E0008691E0008751E0008751E0008E2
:101EA000751E0008751E0008751E0008751E0008C6
:101EB000751E0008511E0008751E0008451E00080A
:101EC000751E0008751E0008391E00080B930F9B35
:101ED0001A78A2F13003DBB2092B18D92A2A1BD0B9
:101EE000DDF82CB00F9B1A782E2A25D00F9A137884
:101EF000683B122B5CD8DFE803F0495BAC5B3B5BD3
:101F00005B5B5B5B5B5B575B5B5B5B5BB1000FA829
:101F1000FFF729FA8346E5E71A9B1A1D1A921B68F8
:101F2000002B04DB9B460F9B01330F93DAE745F050
:101F30000205C3F1000BF6E745F480655A1C0F92C9
:101F40005A78A2F13003DBB2092B0CD92A2ACDD161
:101F50001A9B1A1D1A921C6824EAE4730B930F9BB8
:101F600001330F93C2E70FA8FFF7FDF90B90BDE710
:101F700045F48071531C0F9353786C2B01D00D46A0
:101F800016E045F4407502320F9211E045F08001F1
:101F9000531C0F935378682B01D00D4608E045F091
:101FA000C00502320F9203E045F4807501320F92B2
:101FB0000F9B1878672856D82528C0F06782A0F1B3
:101FC0002503422B00F26282DFE813F05502600223
:101FD00060026002600260026002600260026002F1
:101FE00060026002600260026002600260026002E1
:101FF00060026002600260026002600260026002D1
:102000006002600260026002600260028701670194
:10201000870160026002600260026002600260028A
:1020200060026002600260026002600260026002A0
:102030006002710060026002600260026002600281
:102040006002600260027100AE01710087016701E9
:10205000870145F4007501320F92A9E745F48075B8
:1020600001320F92A4E7782800F210826928C0F0AC
:102070000D82A0F16902D2B20123934049F24102DC
:10208000134214D113F0800F40F0DA8113F4806F03
:1020900000F0FC811A9B1A1D1A92D3F800A00B9B2A
:1020A000002B40F08F814FF0FF32534670E16F28D4
:1020B0000CD005D858283CD0622803D1022306E072
:1020C000782838D025F010050A2300E00823582886
:1020D00033D0692803D0642801D025F00C0515F40D
:1020E000806F01D025F00105692829D0642827D008
:1020F00015F4007F40F0948015F4807F40F0AB80B1
:1021000015F0400F00F0BC801A9A111D1A91127838
:102110000595CDF810B00B9903910293002301931C
:1021200000923B46324649464046FFF709FA0646CA
:1021300027E01023CBE71023C9E745F02005C8E7C7
:1021400015F4007F21D115F4807F42D115F0400FA6
:1021500058D01A9A111D1A91127882EAE271A1EBF5
:10216000E2710595CDF810B00B9803900293D20F51
:10217000019200913B46324649464046FFF7E0F95E
:1021800006460F9B01330F9341E61A9A073222F05D
:10219000070202F108011A915168126808460029E5
:1021A00013DB0895CDF81CB00B9C06940493002318
:1021B0000593C90F0291009201903B463246494671
:1021C0004046FFF707FA0646DBE7524261EB410063
:1021D000E7E71A9A111D1A91126882EAE271A1EBDF
:1021E000E2710595CDF810B00B9803900293D20FD1
:1021F000019200913B46324649464046FFF7A0F91E
:102200000646BEE715F0800F05D01A9A111D1A91E7
:10221000B2F90020A1E71A9A111D1A9112689CE7E1
:102220001A9A073222F0070202F108011A91089562
:10223000CDF81CB00B9906910021049305910291F1
:102240000CCACDE900233B46324649464046FFF7DB
:10225000C1F9064695E71A9A111D1A910595CDF810
:1022600010B00B990391029300230193136800931C
:102270003B46324649464046FFF762F9064680E74C
:1022800015F0800F04D01A9A111D1A9112883FE799
:102290001A9A111D1A9112683AE746281AD01A9B09
:1022A000073323F0070303F108021A920495CDF8CF
:1022B0000CB00B9A0292D3E90023CDE900233B46F0
:1022C000324649464046FFF7D7FB06460F9B01338F
:1022D0000F939CE545F02005E1E7672801D04728EA
:1022E00001D145F40065452801D0472801D145F0CA
:1022F00020051A9B073323F0070303F108021A9203
:102300000495CDF80CB00B9A0292D3E90023CDE9E5
:1023100000233B46324649464046FFF7BDF9064694
:102320000F9B01330F9372E515F002051DD00124B8
:102330001A98031D1A9306F1010A3B463246494694
:102340000078C047A5B90F9B01330F9356465EE551
:1023500002F1010A3B4649462020C0472346524627
:102360005C1C9B45F4D81646E2E701233246F7E7AA
:10237000524606E0561C3B4649462020C0472C46A4
:102380003246651CA345F5D89246DCE701330A4680
:10239000197811B1511E002AF8D1A3EB0A0315F4E4
:1023A00080620C9203D00B9A934228BF134615F01B
:1023B000020409D00D94CDF838B00B9D32460C9E26
:1023C0009B461FE00B9A70E63246264606E0541CF8
:1023D0003B4649462020C0472B4622465D1C9B4574
:1023E000F5D834462B460D94CDF838B00B9D0C9E95
:1023F0009B4607E01D460AF1010A541C3B4649462C
:10240000C04722469AF8000020B1002EF3D06B1E80
:10241000002DEFD10D9C16465B46DDF838B054B95F
:102420000F9B01330F93F2E4551C3B464946202095
:10243000C04723462A465C1C9B45F5D81646EFE765
:1024400045F021051A9B1A1D1A921B680595082252
:1024500004920B9A0392102202920022019200939E
:102460003B46324649464046FFF76AF806460F9B10
:1024700001330F93CBE4741C3B463246494625207A
:10248000C0470F9B01330F932646C0E4741C3B46A4
:1024900032464946C0470F9B01330F932646B6E4A8
:1024A000DFF81C80B2E4BE4208D37A1E3B464946A0
:1024B0000020C047304611B0BDE8F08F3246F5E746
:1024C000651300080EB400B584B0014605AA52F8A1
:1024D000043B039200924FF0FF320448FFF78CFC5C
:1024E00004B05DF804EB03B0704700BF5D13000853
:1024F00082B00E4B9A6942F001029A619A6902F029
:1025000001020092009ADA6942F08052DA61DB69D6
:1025100003F080530193019B054A536823F0E06365
:1025200043F00073536002B0704700BF00100240D8
:1025300000000140FEE7FEE7FEE7FEE7FEE770472A
:102540007047000010B504460E4B1A784FF47A73AA
:10255000B3FBF2F30C4A1068B0FBF3F000F086F81E
:1025600068B90F2C01D901200AE0002221464FF062
:10257000FF3000F06BF8054B1C60002000E00120EC
:1025800010BD00BF08000020040000200C00002047
:1025900008B5074A136843F010031360032000F0E6
:1025A00043F80F20FFF7CEFFFFF7A2FF002008BD82
:1025B00000200240014B1868704700BFA0000020B7
:1025C000002808DB0901C9B200F1604000F5614054
:1025D00080F80013704700F00F000901C9B2014BE9
:1025E0001954704714ED00E000B500F00700C0F189
:1025F000070CBCF1040F28BF4FF0040C031D062B81
:102600000FD9C31E4FF0FF3E0EFA0CF021EA000175
:1026100099400EFA03FE22EA0E0241EA02005DF83A
:1026200004FB0023EEE70000074AD36823F4E063CD
:102630001B041B0C000200F4E060034343F0BF6383
:1026400043F40033D360704700ED00E010B504465A
:10265000054BD868C0F30220FFF7C6FF01462046AD
:10266000FFF7AEFF10BD00BF00ED00E00138B0F194
:10267000807F0BD24FF0E0235861054AF02182F8A9
:1026800023100020986107221A61704701207047CB
:1026900000ED00E070B582B00024A446A1E07E4DBC
:1026A000AB4214D00CD8A5F58015AB420FD005F580
:1026B0007025AB420BD0A5F58015AB4210D106E0DA
:1026C000764DAB4203D005F58035AB4208D18B681F
:1026D000002B50D0012B49D04261082400E0CC6887
:1026E000BEF1FF0F49D806464FEA8C0233680F252A
:1026F000954023EA050304FA02F2134333604B6862
:1027000013F0805F6BD0664B9A6942F001029A61C8
:102710009B6903F001030193019B4FEA9C02951C06
:10272000604B53F825600CF00305AD000F23AB4060
:1027300026EA03065C4B984226D003F58063984254
:1027400000F08C8003F58063984200F0898003F5E7
:102750008063984216D0042317E0CC680434BFE7A6
:10276000CC680834BCE7CC680C34B9E702610824B3
:10277000B6E70024B4E70424B2E7061DACF1080272
:102780009200B3E7032300E00023AB40334302325F
:10279000444D45F822304B6813F4801F62D0434A01
:1027A000936843EA0E0393604B6813F4001F5FD0F5
:1027B0003E4AD36843EA0E03D3604B6813F4003FEC
:1027C0005CD03A4A536843EA0E0353604B6813F4F3
:1027D000803F59D0354A136843EA0E0313600CF169
:1027E000010C0B6833FA0CF254D0012202FA0CF2FD
:1027F00003EA020E32EA0303F1D14B68122B3FF6D3
:102800004EAF122B3FF66CAF01A555F823F000BF79
:10281000CF260008DF26000861270008732700087C
:10282000E1260008E1260008E1260008E12600086C
:10283000E1260008E1260008E1260008E12600085C
:10284000E1260008E1260008E1260008E12600084C
:10285000E12600085B27000867270008012394E7AA
:10286000022392E7114A936823EA0E0393609BE7E1
:102870000E4AD36823EA0E03D3609EE70B4A5368DF
:1028800023EA0E035360A1E7084A136823EA0E0304
:102890001360A4E702B070BD0000221000003110E8
:1028A0000010024000000140000801400004014007
:1028B0000AB10161704709040161704782B0084B99
:1028C0001B68084AA2FB03235B0A00FB03F3019386
:1028D00000BF019B5A1E0192002BF9D102B0704734
:1028E00004000020D34D6210002800F0F18170B583
:1028F00082B00446036813F0010F2CD0994B5B683B
:1029000003F00C03042B1DD0964B5B6803F00C0303
:10291000082B12D06368B3F5803F41D0002B55D10E
:1029200003F1804303F504331A6822F480321A60FD
:102930001A6822F480221A6037E08A4B5B6813F42D
:10294000803FE7D0874B1B6813F4003F03D06368D8
:10295000002B00F0BF81236813F0020F75D0814B6C
:102960005B6813F00C0F5FD07E4B5B6803F00C03C9
:10297000082B54D02369002B00F08A807A4B012267
:102980001A60FFF717FE0546764B1B6813F0020F1F
:1029900075D1FFF70FFE401B0228F5D903209EE1F9
:1029A000704A136843F480331360636843B3FFF7DE
:1029B00001FE05466B4B1B6813F4003FCBD1FFF7BC
:1029C000F9FD401B6428F5D9032088E1B3F5A02F59
:1029D00009D0644B1A6822F480321A601A6822F413
:1029E00080221A60E1E703F18043A3F53C331A68C3
:1029F00042F480221A601A6842F480321A60D4E7E6
:102A0000FFF7D8FD0546574B1B6813F4003FA2D0D3
:102A1000FFF7D0FD401B6428F5D903205FE1514B3F
:102A20005B6813F4803FA5D14E4B1B6813F0020F77
:102A300003D02369012B40F04F814A4A136823F0E9
:102A4000F803616943EAC1031360236813F0080FB8
:102A500033D0A369002B5CD0434B0122C3F8802400
:102A6000FFF7A8FD05463F4B5B6A13F0020F21D12B
:102A7000FFF7A0FD401B0228F5D903202FE1394ABA
:102A8000136823F0F803616943EAC1031360DCE7CC
:102A9000354B00221A60FFF78DFD0546314B1B6850
:102AA00013F0020FD1D0FFF785FD401B0228F5D9A6
:102AB000032014E10120FFF701FF236813F0040F46
:102AC00000F09680274BDB6913F0805F34D1254BF3
:102AD000DA6942F08052DA61DB6903F080530193D6
:102AE000019B0125214B1B6813F4807F26D0E368EE
:102AF000012B3DD0002B53D103F1804303F5043368
:102B00001A6A22F001021A621A6A22F004021A6298
:102B100033E0154B0022C3F88024FFF74BFD054638
:102B2000104B5B6A13F0020FC7D0FFF743FD401B49
:102B30000228F5D90320D2E00025D3E70B4A136819
:102B400043F480731360FFF735FD0646074B1B689F
:102B500013F4807FCBD1FFF72DFD801B6428F5D9BE
:102B60000320BCE000100240000042420070004020
:102B70005F4A136A43F001031362E36833B3FFF75C
:102B800019FD06465A4B1B6A13F0020F2FD1FFF7AF
:102B900011FD801B41F288339842F3D903209EE057
:102BA000052B09D0524B1A6A22F001021A621A6AE6
:102BB00022F004021A62E0E74D4B1A6A42F0040266
:102BC0001A621A6A42F001021A62D6E7FFF7F2FCB3
:102BD0000646474B1B6A13F0020F08D0FFF7EAFCCA
:102BE000801B41F288339842F3D9032077E0E5B99E
:102BF000E369002B72D03E4A526802F00C02082AA8
:102C000056D0022B17D03B4B00221A66FFF7D2FC9E
:102C10000446374B1B6813F0007F47D0FFF7CAFC10
:102C2000001B0228F5D9032059E0314AD36923F06B
:102C30008053D361DCE72F4B00221A66FFF7BAFC02
:102C400005462B4B1B6813F0007F06D0FFF7B2FC44
:102C5000401B0228F5D9032041E0236AB3F5803FE9
:102C60001AD023494B6823F47413226A606A024322
:102C700013434B601F4B01221A66FFF79BFC04466F
:102C80001B4B1B6813F0007F0ED1FFF793FC001B5A
:102C90000228F5D9032022E0154A536823F40033B3
:102CA000A1680B435360DCE7002018E0002016E029
:102CB000012B16D00E4B5B6803F48031226A9142DF
:102CC00011D103F47013626A93420ED1002006E022
:102CD00001207047012002E0012000E0002002B046
:102CE00070BD0120FBE70120F9E70120F7E700BFF5
:102CF00000100240000042420F4B5B6803F00C02E0
:102D0000082A01D00D487047C3F383420C49885C00
:102D100013F4803F0BD0084B5B68C3F34043094A70
:102D2000D35C064A02FB00F0B0FBF3F07047064BA1
:102D300003FB00F0704700BF0010024000127A0051
:102D4000E44F0008E04F000800093D00002800F0B3
:102D5000A08070B50D460446524B1B6803F0070374
:102D60008B420BD24F4A136823F007030B431360C7
:102D7000136803F007038B4240F08D80236813F043
:102D8000020F17D013F0040F04D0474A536843F4DE
:102D9000E0635360236813F0080F04D0424A53687D
:102DA00043F460535360404A536823F0F003A16832
:102DB0000B435360236813F0010F31D06368012B7C
:102DC00020D0022B25D0384A126812F0020F64D0AE
:102DD00035494A6822F0030213434B60FFF7EAFBD0
:102DE0000646314B5B6803F00C036268B3EB820F5D
:102DF00016D0FFF7DFFB801B41F288339842F0D9F1
:102E0000032045E0284A126812F4003FE0D1012077
:102E10003EE0254A126812F0007FD9D1012037E048
:102E2000204B1B6803F00703AB420AD91D4A136805
:102E300023F007032B431360136803F00703AB422F
:102E40002DD1236813F0040F06D0174A536823F4DA
:102E5000E063E1680B435360236813F0080F07D069
:102E6000114A536823F46053216943EAC103536054
:102E7000FFF742FF0C4B5B68C3F303130B4AD35CB1
:102E8000D8400B4B18600B4B1868FFF75BFB00201A
:102E900070BD012070470120FAE70120F8E701200A
:102EA000F6E700BF0020024000100240D04F0008AB
:102EB000040000200C000020014B1868704700BF80
:102EC0000400002008B5FFF7F7FF044B5B68C3F36D
:102ED0000223034AD35CD84008BD00BF0010024063
:102EE000C84F000808B5FFF7E7FF044B5B68C3F362
:102EF000C223034AD35CD84008BD00BF0010024083
:102F0000C84F0008026802F10C0353E8003F23F4A5
:102F100090730C3242E800310029F3D1026802F1CB
:102F2000140353E8003F23F00103143242E8003158
:102F30000029F3D1036B012B05D0202380F8423008
:102F4000002303637047026802F10C0353E8003F5B
:102F500023F010030C3242E800310029F3D1ECE7F2
:102F600010B504460268136923F44053C1680B434B
:102F7000136183680269134342691A430168CB688D
:102F800023F4B05323F00C031343CB60026853695E
:102F900023F4407381690B4353610268134B9A42D7
:102FA00020D0FFF78FFF024602EB820202EB820283
:102FB00063689B00B2FBF3F20D48A0FB02314909A4
:102FC000642303FB11231B013233A0FB03035B09C2
:102FD00003F0F00202EB011203F00F032168134427
:102FE0008B6010BDFFF77EFF0246DDE70038014031
:102FF0001F85EB512DE9F04383B005460E46174679
:103000009946DDF828802B681C6836EA04040CBF5A
:1030100001240024BC4228D1B8F1FF3FF3D0FFF7D0
:10302000C9FAA0EB0900404523D8B8F1000F22D01F
:103030002B68DA6812F0040FE5D0802EE3D0402E22
:10304000E1D01A6812F0080FDDD0002401941A684C
:1030500001925B680193019B2846FFF753FF082309
:103060006B6485F84040012000E0002003B0BDE81B
:10307000F0830320FAE70320F8E7704760B310B548
:10308000044690F8413013B3242384F84130226879
:10309000D36823F40053D3602046FFF761FF226812
:1030A000136923F4904313612268536923F02A03C0
:1030B00053612268D36843F40053D36000206064F6
:1030C000202384F8413084F84230606310BD80F8DA
:1030D0004030FFF7D2FFD7E7012070472DE9F041DC
:1030E00082B01E4690F84130DBB2202B56D1044608
:1030F0000D469046002955D00AB901204FE0002323
:103100004364212380F84130FFF754FA0746A4F8BE
:103110002480A4F82680A368B3F5805F02D04FF026
:10312000000814E023692BB34FF000080FE02023C0
:1031300084F84130032032E038F8023B2268C3F3C0
:1031400008035360E28C92B2013A92B2E284E38CBB
:103150009BB293B100963B46002280212046FFF7A8
:1031600049FF0028E3D1002DE6D015F8012B236894
:103170005A60E7E7A8460025E9E700963B460022AB
:1031800040212046FFF736FF18B9202384F841304C
:1031900005E0202384F84130032000E0022002B043
:1031A000BDE8F0810120FAE700F1080343604FF029
:1031B000FF328260C3600361002303607047002315
:1031C0000361704730B40D68B5F1FF3F11D000F1D5
:1031D00008031C465B681A68AA42FAD963684B6008
:1031E00099608C606160086103680133036030BCE2
:1031F00070470469F2E70369416882688A60416840
:1032000051605A68824206D0002202611A68013A6F
:103210001A601868704782685A60F5E710B504466E
:1032200001F020F8A26BE36B9A4204D0002401F075
:103230003BF8204610BD0124F9E710B5044601F023
:1032400011F8A36B23B9012401F02EF8204610BD1C
:103250000024F9E770B504461646856B026CEAB1A6
:1032600066B9406801F0C8FC6368226C134463606F
:10327000A268934212D3236863600FE0C06801F034
:10328000BBFCE368226C51429B1AE36022689342C4
:1032900002D2A3680B44E360022E03D00135A5637C
:1032A000002070BD002DF9D0013DF7E708B50346B9
:1032B000026C62B10846D9681144D960D3F808C0DD
:1032C000614501D31968D960D96801F095FC08BD42
:1032D00038B5054600F0C6FF95F8454064B201E0F8
:1032E000013C64B2002C0ADD6B6A43B105F1240095
:1032F00000F092FE0028F3D000F056FFF0E7FF2325
:1033000085F8453000F0D0FF00F0ACFF95F8444060
:1033100064B201E0013C64B2002C0ADD2B6943B1C8
:1033200005F1100000F078FE0028F3D000F03CFF1B
:10333000F0E7FF2385F8443000F0B6FF38BD38B51C
:1033400090B10D460446C36B2BB1026C0021A2FB69
:10335000032393B999B14FF0500383F31188BFF35E
:103360006F8FBFF34F8FFEE74FF0500383F3118849
:10337000BFF36F8FBFF34F8FFEE70121EAE700F045
:1033800071FF2368E26B216C01FB0230A06000201A
:10339000A0636360013A02FB0133E360FF2384F81A
:1033A000443084F84530B5B923691BB900F07CFF7F
:1033B000012038BD04F1100000F02EFE0028F5D0E9
:1033C0004FF0E0234FF08052C3F8042DBFF34F8F2E
:1033D000BFF36F8FEAE704F11000FFF7E5FE04F199
:1033E0002400FFF7E1FEE1E710B5034602980C4622
:1033F00031B90060C36304640121FFF7A0FF10BD71
:103400000260F7E7F0B583B060B10C461746054699
:103410000023A4FB001272B923B904FB05F010F1DC
:10342000490F0AD94FF0500383F31188BFF36F8F10
:10343000BFF34F8FFEE70123EEE7483001F058F865
:10344000064638B100903B4600F148022146284626
:10345000FFF7CAFF304603B0F0BDF0B585B001926A
:1034600038B10F461D46044661B1022D16D0002624
:1034700060E04FF0500383F31188BFF36F8FBFF309
:103480004F8FFEE7036C002BEFD04FF0500383F318
:103490001188BFF36F8FBFF34F8FFEE7E36B012BF4
:1034A00008D04FF0500383F31188BFF36F8FBFF341
:1034B0004F8FFEE700263DE02A4639462046FFF7BB
:1034C000C9FE636A7BB948B14FF0E0234FF08052E8
:1034D000C3F8042DBFF34F8FBFF36F8F00F0E4FEEE
:1034E000012005B0F0BD04F1240000F095FD002896
:1034F000F4D04FF0E0234FF08052C3F8042DBFF317
:103500004F8FBFF36F8FE9E700F0CEFE0020E8E7B2
:1035100002A800F0F9FD012619E0002384F84430E8
:1035200021E0002384F8453023E02046FFF7D0FE59
:1035300000F042FC00F096FEA26BE36B9A42BBD314
:10354000022DB9D0019B002BDED0002EE0D000F080
:10355000ABFE00F06DFB00F085FE94F8442052B203
:10356000B2F1FF3FD9D094F8452052B2B2F1FF3FFB
:10357000D7D000F099FE01A902A800F0D1FDD8B97A
:103580002046FFF74BFE0028CFD0019904F1100030
:1035900000F02AFD2046FFF79BFE00F00DFC0028FE
:1035A000C8D14FF0E0234FF08052C3F8042DBFF391
:1035B0004F8FBFF36F8FBDE72046FFF789FE00F006
:1035C000FBFB00208DE7F0B585B0019220B10F46DE
:1035D000044651B1002654E04FF0500383F31188A4
:1035E000BFF36F8FBFF34F8FFEE7036C43B14FF014
:1035F000500383F31188BFF36F8FBFF34F8FFEE744
:1036000000263EE039462046FFF750FE013DA56307
:10361000236923B900F048FE012005B0F0BD04F194
:10362000100000F0F9FC0028F4D04FF0E0234FF038
:103630008052C3F8042DBFF34F8FBFF36F8FE9E7BC
:1036400000F032FE0020E8E702A800F05DFD012650
:1036500021E0002384F8443029E0002384F8453039
:103660002BE02046FFF734FE00F0A6FB09E02046E1
:10367000FFF72EFE00F0A0FB2046FFF7DEFD00283E
:103680003FD100F0EFFDA56B002DBBD1019B002BBE
:10369000D6D0002ED8D000F007FE00F0C9FA00F016
:1036A000E1FD94F844305BB2B3F1FF3FD1D094F820
:1036B00045305BB2B3F1FF3FCFD000F0F5FD01A97B
:1036C00002A800F02DFD0028D1D12046FFF7B5FD5E
:1036D0000028C6D0019904F1240000F085FC2046A2
:1036E000FFF7F6FD00F068FB0028CAD14FF0E02399
:1036F0004FF08052C3F8042DBFF34F8FBFF36F8F8D
:10370000BFE7002089E730B585B0019158B1044684
:10371000036C8BB14FF0500383F31188BFF36F8FAD
:10372000BFF34F8FFEE74FF0500383F31188BFF3D1
:103730006F8FBFF34F8FFEE700253AE0013BA36395
:10374000236923B900F0B0FD012005B030BD04F1BC
:10375000100000F061FC0028F4D04FF0E0234FF09F
:103760008052C3F8042DBFF34F8FBFF36F8FE9E78B
:1037700000F09AFD0020E8E702A800F0C5FC012552
:1037800021E0002384F8443029E0002384F8453008
:103790002BE02046FFF79CFD00F00EFB09E02046E1
:1037A000FFF796FD00F008FB2046FFF746FD0028D6
:1037B0003FD100F057FDA36B002BBFD1019B002B25
:1037C000D6D0002DD8D000F06FFD00F031FA00F017
:1037D00049FD94F844305BB2B3F1FF3FD1D094F887
:1037E00045305BB2B3F1FF3FCFD000F05DFD01A9E2
:1037F00002A800F095FC0028D1D12046FFF71DFD5E
:103800000028C6D0019904F1240000F0EDFB204609
:10381000FFF75EFD00F0D0FA0028CAD14FF0E02398
:103820004FF08052C3F8042DBFF34F8FBFF36F8F5B
:10383000BFE7002089E70000074B1B681B6823B91E
:10384000064B4FF0FF321A607047034B1B68DB6872
:103850001A68024B1A60704714010020AC00002067
:1038600010B50446006B00F0BDFE204600F0BAFE25
:1038700010BD2DE9F04105461E46069F089C236BAE
:1038800002F18042013A03EB820323F0070871B191
:103890000B460022092A07D8995C04EB020C8CF82D
:1038A000341009B10132F5E7002384F83D30042FCC
:1038B00008D94FF0500383F31188BFF36F8FBFF324
:1038C0004F8FFEE7E762201DFFF779FC04F1180037
:1038D000FFF775FC2461C7F10507A76164623246F2
:1038E0002946404600F096FC2060079B03B11C600F
:1038F000BDE8F08138B5002407E004EB84029300B2
:103900000E481844FFF750FC0134042CF5D90C4D37
:103910002846FFF749FC0B4C2046FFF745FC0A48B8
:10392000FFF742FC0948FFF73FFC0948FFF73CFC62
:10393000084B1D60084B1C6038BD00BF40010020D3
:103940002C01002018010020FC000020E8000020CD
:10395000D0000020140100201001002010B5044602
:1039600000F080FC284A136801331360274B1B6862
:103970005BB1274B1B686BB9244B1B68DA6AE36A9F
:103980009A4207D8214B1C6004E0204B1C6013684E
:10399000012B36D01F4A136801331360E36A0122FA
:1039A0009A401D49086802430A601C4A03EB8303DE
:1039B00002EB83035B68A3609868E060211D4160AF
:1039C0009960E36A03EB8301880002EB8101616186
:1039D00011580131115000F067FC0D4B1B687BB191
:1039E0000A4B1B68DA6AE36A9A4209D24FF0E02375
:1039F0004FF08052C3F8042DBFF34F8FBFF36F8F8A
:103A000010BDFFF777FFC5E7CC000020A401002020
:103A1000C0000020B0000020C400002040010020B1
:103A20000F4B1B68D3B110B500F01CFC0D4BDB68CD
:103A3000DC68201DFFF7DFFB0B4A1368013B1360B6
:103A4000074A1368013B136000F02EFC2046FFF785
:103A500007FF034B1B68002BE6D110BD704700BF6A
:103A6000E4000020E8000020CC00002008B5FFF7AB
:103A7000D7FF074B1B68012BF9D94FF0E0234FF01C
:103A80008052C3F8042DBFF34F8FBFF36F8FEEE763
:103A90004001002070B504460D46234B1E68234BA1
:103AA00018680430FFF7A7FB48B9204B1B68DB6A96
:103AB00001229A401E490B6823EA02030B60B4F10D
:103AC000FF3F0DD03444194B1B685C60A6421DD9E2
:103AD000184B1868154B19680431FFF773FB70BD5C
:103AE000002DEFD0144A5168104B18688160186897
:103AF0008C68C4601868043060601868043088609E
:103B00001B685A61136801331360E8E70B4B1868B0
:103B1000064B19680431FFF755FB094B1B68A3429C
:103B2000DDD9074B1C60DAE7C8000020A4010020A3
:103B3000C400002010010020D0000020140100204B
:103B4000AC0000202DE9F04385B0074688461446B6
:103B50001E46900000F0CCFC18B38146482000F0CF
:103B6000C7FC0546B8B14822002101F018F8C5F895
:103B700030900023039302950D9B01930C9B0093BF
:103B80003346224641463846FFF773FE2846FFF784
:103B9000E5FE012007E0484600F024FD4FF0FF302D
:103BA00001E04FF0FF3005B0BDE8F08300B583B011
:103BB000184B019300230093802217491748FFF701
:103BC000C1FF012807D0B0F1FF3F19D0144B1B688B
:103BD00003B05DF804FB4FF0500383F31188BFF38B
:103BE0006F8FBFF34F8F0F4B4FF0FF321A600E4BAA
:103BF00001221A600D4B00221A6000F0BDFBE5E7C0
:103C00004FF0500383F31188BFF36F8FBFF34F8FD3
:103C1000FEE700BFA8000020704F00086D3A0008C2
:103C2000F44F0008AC000020C0000020C8000020B5
:103C3000024A136801331360704700BFA4000020DC
:103C4000F8B5524B1B68002B40F09980504B1C6814
:103C500001341C60C4B94F4B1B681B6843B14FF063
:103C6000500383F31188BFF36F8FBFF34F8FFEE7CD
:103C7000484A1168484B186810601960474A136831
:103C800001331360FFF7D8FD454B1B68A34211D9E0
:103C90000020444B1B68DB6A03EB83039A00424B12
:103CA0009B58012B00D90120404B1B68002B6BD087
:103CB000012069E0002037E0394B4FF0FF321A60F5
:103CC000E7E7374B1A60E4E7D968516042E000212A
:103CD0009962116801391160DA6A01219140344E0C
:103CE000376839433160304902EB82024FEA820C77
:103CF0008C44DCF804209A609668DE6075609560FC
:103D0000DA6A02EB820C4FEA8C056E185E614D593F
:103D100001354FEA8C0C41F80C50DA6A214B1B68D4
:103D2000DB6A9A4200D901201A4B1B681B68002BE2
:103D3000C2D0184B1B68DB68DB685A689442C0D35A
:103D40005A699D68D968A9609D684D6051681D1DBC
:103D5000A942B9D0002159611168013911609A6AEC
:103D6000002AB9D0DE69196AB160DE694E60566812
:103D700003F118018E42AAD1196A5160A7E70D4AD2
:103D80001368013313600020F8BD00BFA4000020B9
:103D9000C80000201401002010010020B400002001
:103DA000AC000020A401002040010020B800002049
:103DB000C4000020BC00002038B54A4B1B6843B942
:103DC0004FF0500383F31188BFF36F8FBFF34F8F12
:103DD000FEE700F047FA434B1A68013A1A601B6885
:103DE000002B7AD1404B1B683BB9002476E0196A5E
:103DF000516015E0D968516021E000233B4A126808
:103E0000002A47D0394BDB68DB689A6AD869196A9F
:103E10008160D8694860506803F118018842E6D093
:103E2000002199621168013911605A699868D9684E
:103E30008160986848605168181D8142DAD000217D
:103E40005961116801391160DA6A01219140284CE9
:103E5000256829432160274902EB820201EB820297
:103E600052689A609468DC6060609060DA6A02EB85
:103E70008200840001EB800058610859013008512C
:103E8000D96A1D4A1268D26A9142B7D31B4A0121EE
:103E90001160B3E70BB1FFF7CFFC194B1C6884B975
:103EA000164B1C68D4B14FF0E0234FF08052C3F89A
:103EB000042DBFF34F8FBFF36F8F01240EE0013C41
:103EC00007D0FFF7BDFE0028F9D00C4B01221A6085
:103ED000F5E70B4B00221A60E2E7002400F0E4F95A
:103EE000204638BDA4000020CC000020FC000020AB
:103EF000C400002040010020A4010020B8000020E0
:103F0000BC00002010B5A8B10446104B1B6843B19B
:103F10004FF0500383F31188BFF36F8FBFF34F8FC0
:103F2000FEE7FFF785FE00212046FFF7B3FDFFF710
:103F300043FF48B94FF0E0234FF08052C3F8042DFF
:103F4000BFF34F8FBFF36F8F10BD00BFA4000020E1
:103F5000204B1B681BB1204B01221A6070471E4B7F
:103F600000221A601D4B1B68B3FA83F3DBB2C3F166
:103F70001F0303EB83018A0019498A5842B94FF0A5
:103F8000500383F31188BFF36F8FBFF34F8FFEE7AA
:103F9000134803EB83018A00024451684968516069
:103FA00003EB830C4FEA8C0208320244914209D0A1
:103FB00003EB83039A000A4B13445B68DA68094BEE
:103FC0001A607047486862469100054A0A4450608A
:103FD000EEE700BFA4000020B8000020C4000020CD
:103FE00040010020A401002058B110B50C46094A38
:103FF00011681831FFF7E6F801212046FFF74AFD66
:1040000010BD4FF0500383F31188BFF36F8FBFF3E0
:104010004F8FFEE7A4010020C368DB68002B4AD065
:1040200030B49A6AD869196A8160D8694860516861
:1040300003F11800814247D00021996211680139CB
:1040400011602B4A1268002A44D15A699868D968CD
:104050008160986848605168181D814237D00021FE
:104060005961116801391160DA6A01219140214CCE
:10407000256829432160204902EB820201EB82027C
:1040800052689A609468DC6060609060DA6A02EB63
:104090008200840001EB800058610859013008510A
:1040A000DA6A164B1B68DB6A9A421FD90120144B4F
:1040B000186030BC70474FF0500383F31188BFF392
:1040C0006F8FBFF34F8FFEE7196A5160B4E7D9686D
:1040D0005160C4E70B4A5168D9618C681C6260600A
:1040E00088609A62116801311160D9E70020E0E729
:1040F000A4000020C400002040010020A4010020F2
:10410000B8000020FC000020034B1B680360034B39
:104110001B684360704700BFB4000020C800002047
:10412000C8B170B50C460546F1B100F09BF81C4BC8
:1041300019686B68C81A2268B2F1FF3F2BD0194E7C
:104140003668D5F800C0B44517D08B4215D8002387
:104150002360012420E04FF0500383F31188BFF364
:104160006F8FBFF34F8FFEE74FF0500383F311883B
:10417000BFF36F8FBFF34F8FFEE7824203D8002358
:104180002360012408E05B1A134423602846FFF7EC
:10419000BBFF002400E0002400F086F8204670BD3C
:1041A000C8000020B4000020014B01221A607047B3
:1041B000B800002082B0002301930D4B1B68B3F1BF
:1041C000FF3F08D04FF0500383F31188BFF36F8F88
:1041D000BFF34F8FFEE74FF0500383F31188BFF317
:1041E0006F8FBFF34F8F019B002BFCD002B0704745
:1041F0001000002006480068006880F3088862B656
:1042000061B6BFF34F8FBFF36F8F00DF00BF0000B9
:1042100008ED00E04FF0807340F8043C21F001010C
:1042200040F8081C034B40F80C3C40F8202C403868
:10423000704700BFB541000800000000000000000A
:10424000074B19680868B0E8F00F80F30988BFF3DE
:104250006F8F4FF0000080F311884EF00D0E704705
:10426000A40100204FF0500383F31188BFF36F8F38
:10427000BFF34F8F0B4A136801331360012B00D03B
:1042800070474FF0E023D3F8043D13F0FF0FF7D051
:104290004FF0500383F31188BFF36F8FBFF34F8F3D
:1042A000FEE700BF10000020094B1B6843B94FF028
:1042B000500383F31188BFF36F8FBFF34F8FFEE777
:1042C000013B034A13600BB983F31188704700BFA9
:1042D00010000020000000000000000000000000AE
:1042E000EFF30980BFF36F8F0D4B1A6820E9F00FD1
:1042F00010602DE908404FF0500080F31188FFF75F
:1043000027FE4FF0000080F31188BDE808401968CF
:104310000868B0E8F00F80F30988BFF36F8F70472B
:10432000A401002008B54FF0500383F31188BFF3B8
:104330006F8FBFF34F8FFFF783FC28B14FF0E0235F
:104340004FF08052C3F8042D002383F3118808BD79
:104350004FF0E022002313619361054B1B68054970
:10436000A1FB03139B09013B5361072313617047B2
:1043700004000020D34D621010B582B02A4B1A7889
:10438000D2B20192FF221A701B78DBB28DF8033093
:104390009DF8033003F05003244A1370244B072286
:1043A0001A6009E0224A1368013B13609DF803304C
:1043B0005B00DBB28DF803309DF8033013F0800F03
:1043C000F0D11B4B1B68032B08D04FF0500383F335
:1043D0001188BFF36F8FBFF34F8FFEE71B02144AA4
:1043E000136003F4E0631360019BDBB20E4A1370A9
:1043F0004FF0E023D3F8202D42F47002C3F8202DB3
:10440000D3F8202D42F07042C3F8202DFFF7A0FF13
:104410000024084B1C60FFF7EDFEFFF799FDFFF746
:10442000C9FE204602B010BD00E400E0AC0100204F
:10443000A801002010000020104A12F0070F1AD027
:10444000D11D21F00701C1F5884313440A460C48E9
:104450000260002141601344083B23F00703094830
:10446000036059601960991A51601360064B196016
:10447000064B196070474FF48843E8E7CC010020F1
:10448000C4010020C0010020B8010020BC010020B0
:10449000154B1A461B688342FBD3516802EB010C93
:1044A000844509D0416800EB010C634509D00360E5
:1044B000904218D010607047406801445160104627
:1044C000F0E710B4094C2468A3420AD05B68194491
:1044D000416013681B680360904200D0106010BCFC
:1044E00070470460F8E77047C4010020C001002055
:1044F00070B50546FFF79CFB354B1B685BB175B18A
:1045000005F00703C3F11002113BAB4206D3AD180F
:1045100005D5002647E0FFF78FFFF0E70025002DC7
:1045200040D02C4B1B68AB424BD32B4A146801E0A4
:1045300022461C466368AB4202D22368002BF7D1A7
:10454000234B1B68A3423ED01668083623681360CD
:1045500063685B1B102B10D9601910F0070F08D08F
:104560004FF0500383F31188BFF36F8FBFF34F8F6A
:10457000FEE743606560FFF78BFF626815490B68D3
:104580009B1A0B60154909688B4201D213490B60D5
:1045900042F00042626000232360114A1368013335
:1045A000136000E00026FFF707FC16F0070F0CD0A1
:1045B0004FF0500383F31188BFF36F8FBFF34F8F1A
:1045C000FEE70026EFE70026EDE7304670BD00BFAE
:1045D000C0010020BC010020C4010020B80100205F
:1045E000B401002090B338B50446A0F1080550F896
:1045F000043C002B08DB4FF0500383F31188BFF31A
:104600006F8FBFF34F8FFEE750F8082C42B14FF089
:10461000500383F31188BFF36F8FBFF34F8FFEE713
:1046200023F0004340F8043CFFF702FB54F8041C5D
:10463000074A13680B4413602846FFF729FF054A11
:10464000136801331360FFF7B7FB38BD704700BF35
:10465000BC010020B00100202DE9F0470D46C168E3
:104660004068FCF74FFA04465B49FCF755FB0746E8
:104670005A492046FCF750FB06462846FCF7F8FA54
:10468000054601463046FCF747FBFBF7ADFE50A35D
:10469000D3E90023FBF700FF804689465049514B80
:1046A0001868FCF739FB01462846FCF735FBFBF799
:1046B0009BFE47A3D3E90023FBF7EEFE02460B4621
:1046C00040464946FBF732FD80468946DFF818A18F
:1046D000DAF80000FBF788FE42464B46FBF726FD62
:1046E000FCF7BCF90646CAF80000DFF80081D8F8EC
:1046F00000102046FCF706FA3D49FCF70DFB294661
:10470000FCF7BEFB0546C8F8004039463046FCF7CA
:10471000FBF92946FCF7F8F900F07CFA04460D464F
:1047200006460F46012871F1000315DA002930DB37
:10473000304C002201212046FEF7BAF80022022167
:104740002046FEF7B5F8704265EB4501FCF7A6FA86
:10475000244B1860002418E0DFF898800022012123
:104760004046FEF7A5F8012202214046FEF7A0F8D8
:10477000652C75F1000301DB64240025A01B65EBAB
:104780000701FCF78BFA174B18601B4B5C63BDE805
:10479000F087DFF86080012211464046FEF788F876
:1047A000002202214046FEF783F814F1640F75F1F0
:1047B000FF3303DA6FF063044FF0FF35A01B65EBA6
:1047C0000701FCF76BFA074B18606442DDE700BF96
:1047D000FCA9F1D24D62503F57AC0242E8D9F541F5
:1047E00063EE7E40D0450020D4450020CC4500201B
:1047F00057ECF73F000C014000040040F0B589B0D1
:104800002D4B9A6942F020029A619A6902F02002C7
:104810000092009A9A6942F004029A619A6902F041
:1048200004020192019A9A6942F008029A619A6917
:1048300002F008020292029A9A6942F010029A610A
:104840009B6903F010030393039B002404940594D5
:1048500006940794194E22464FF400513046FEF755
:1048600027F8012505954FF4005304930694032778
:10487000079704A93046FDF70DFFA6F5806622468E
:1048800029463046FEF714F80595049506940797D7
:1048900004A93046FDF7FEFE224602213046FEF70F
:1048A00007F80595022304930694079704A9304658
:1048B000FDF7F0FE09B0F0BD00100240001001400D
:1048C00072B6FEE700B591B02822002106A800F0DC
:1048D00066F9002301930293039304930593012245
:1048E00006924FF4803307930A9202220D920E93A0
:1048F0004FF4E0130F9306A8FDF7F6FF80B90F23DE
:10490000019302210291002303934FF480620492E9
:10491000059301A8FEF71AFA20B911B05DF804FB5F
:10492000FFF7CEFFFFF7CCFF0B4B1B6913F0020F15
:1049300004D1094B1B6913F0040F0CD0064B1A6904
:1049400022F006021A615B6A044A1380044A128844
:104950009B1A044A1380704700080040DC45002081
:10496000DA450020D8450020284BDA6942F00402DD
:10497000DA619A6942F008029A61A3F582331A68F3
:1049800022F04C521A601A6822F04C421A601A68DF
:1049900042F008421A60DA6842F0C002DA60A3F519
:1049A0008233002199624FF6FF72DA629A6842F010
:1049B00003029A609A6942F4807242F001029A619D
:1049C0009A6922F4406222F00C029A619A6922F4F8
:1049D000704222F0F0029A611A6A42F022021A62D0
:1049E0001A6A42F011021A625962DA6842F006024B
:1049F000DA60074A702182F81E134FF0804111607F
:104A00001A6842F001021A60704700BF00100240AD
:104A100000E100E038B5204A936943F00403936154
:104A20001E4B196821F070611960196841F04071DE
:104A30001960196841F000611960D36943F00203FD
:104A4000D361174B23229A626322DA6200245C63EB
:104A50009A6922F070029A619A6942F060029A6142
:104A60009A6942F008029A611A6A42F001021A62D7
:104A70001A6842F001021A605A6942F001025A6152
:104A8000084D224601212846FDF712FF2246022149
:104A90002846FDF70DFF38BD001002400008014018
:104AA00000040040000C014010B50446FBF730FB49
:104AB0004FF0FF3382B221460148FEF70FFB10BDD5
:104AC000E045002070B586B01E4DAB6943F004038D
:104AD000AB61AB6903F004030093009B00240294D4
:104AE0000394049405944FF40073029302230393F8
:104AF00003230593144E02A93046FDF7CBFD4FF476
:104B0000806302930394049402A93046FDF7C2FD2A
:104B1000AB6943F48043AB61AB6903F48043019319
:104B2000019B0A480A4B03604FF4E1334360846001
:104B3000C46004610C2343618461C461FEF79EFA82
:104B400006B070BD0010024000080140E0450020A2
:104B500000380140FDF7F4FC0B480C490C4A0023D7
:104B600002E0D458C4500433C4188C42F9D3094A23
:104B7000094C002301E013600432A242FBD300F091
:104B800017F8FCF7ABFB7047000000201400002072
:104B9000085000081400002028460020FEE70346C5
:104BA0000244934200D1704703F8011BF9E700006B
:104BB00070B500260C4D0D4C641BA410A64209D103
:104BC00000F0B6F900260A4D0A4C641BA410A64258
:104BD00005D170BD55F8043B98470136EEE755F80E
:104BE000043B98470136F2E70050000800500008E7
:104BF00000500008045000080A44914200F1FF33BD
:104C000000D1704710B511F8014B914203F8014FE4
:104C1000F9D110BD10B500210446FCF735FA20B9D2
:104C20002046BDE8104000F009B804F1004000F053
:104C300005F8404261EB410110BD00BFD0B5FBF764
:104C4000D3FB00220B4B06460F46FBF725FCFBF778
:104C5000E5FE0446FBF7A6FB0022074BFBF71CFC16
:104C600002460B4630463946FBF75EFAFBF7D6FEA6
:104C70002146D0BD0000F03D0000F0412DE9F04795
:104C8000089D0E4604468E46002B4CD18A4294461F
:104C9000B2FA82F362D953B102FA03FCC3F12002E3
:104CA00001FA03FE20FA02F242EA0E0E9C404FEA9D
:104CB0001C47BEFBF7F11FFA8CF607FB11EE01FB58
:104CC00006F0220C42EA0E4290420AD91CEB020284
:104CD00001F1FF3E80F00E81904240F20B810239DB
:104CE0006244121AB2FBF7F007FB102200FB06F633
:104CF000A4B244EA0244A6420AD91CEB040400F11F
:104D0000FF3280F0F980A64240F2F6806444023817
:104D100040EA01400021A41B1DB1DC400023C5E98D
:104D20000043BDE8F0878B4205D90DB1C5E900010C
:104D300000210846F5E7B3FA83F1002942D1B342D6
:104D400002D3824200F2EE80841A66EB0302012055
:104D50009646002DE5D0C5E9004EE2E7002B40F075
:104D60008C80881A0121170C96B2B0FBF7FE07FB66
:104D70001E00220C42EA004206FB0EF0904208D9C7
:104D80001CEB02020EF1FF3802D2904200F2CC80FE
:104D9000C646121AB2FBF7F007FB102200FB06F61C
:104DA000A4B244EA0244A64208D91CEB040400F170
:104DB000FF3202D2A64200F2B2801046A41B40EAA3
:104DC0000E40A9E7C1F120078B4022FA07FC4CEA0C
:104DD000030C26FA07FA4FEA1C48BAFBF8FE06FA5B
:104DE00001F308FB1EAA1FFA8CF620FA07F400FA5A
:104DF00001F90EFB06F023431C0C44EA0A44A042CE
:104E000002FA01F20BD91CEB04040EF1FF3A80F018
:104E10008480A04240F28180AEF1020E6444241AE4
:104E200098B2B4FBF8F308FB134403FB06F640EA20
:104E30000444A64208D91CEB040403F1FF3068D2F5
:104E4000A64266D9023B644443EA0E40A41BA0FB81
:104E500002E6B4427346B04652D34FD05DB1B9EBCF
:104E6000030264EB080404FA07F722FA01F31F4374
:104E7000CC40C5E90074002153E702FA03FCC3F1FA
:104E80002000C1404FEA1C47B1FBF7FE07FB1E1193
:104E900024FA00F09E403043020C1FFA8CF642EADE
:104EA00001420EFB06F1914204FA03F409D91CEB0E
:104EB00002020EF1FF382ED291422CD9AEF1020E31
:104EC0006244521AB2FBF7F107FB112280B240EAAA
:104ED000024001FB06F2824208D91CEB000001F1FE
:104EE000FF3814D2824212D902396044801A41EA52
:104EF0000E413AE77146F4E6104609E7F145ADD2B6
:104F0000BEEB020366EB0C060138B046A6E741464D
:104F1000ECE7034698E7C646D3E7D6467FE7644406
:104F200002384BE7084614E7AEF1020E624430E760
:104F3000F8B500BFF8BC08BC9E467047F8B500BF86
:084F4000F8BC08BC9E46704756
:104F480025302E32662C25302E32660A00000000ED
:104F5800666E692B00000000666E69006E616E0067
:104F6800666E692D0000000049444C4500000000B1
:104F7800000000000000F03F000000000000244096
:104F880000000000000059400000000000408F4071
:104F9800000000000088C34000000000006AF840DC
:104FA8000000000080842E4100000000D012634100
:104FB8000000000084D797410000000065CDCD4176
:104FC80000000000010203040000000000000000CF
:104FD8000102030406070809010200000203040590
:104FE800060708090A0B0C0D0E0F1010040000002C
:084FF80018B1FF7F0100000069
:045000004111000852
:045004001911000876
:105008003200000000127A000100000010000000C9
:04501800AAAAAAAAEC
:0400000508004B554F
:00000001FF
