:020000040800F2
:100000000050002005300008290300082B030008D9
:100010002D0300082F030008310300080000000032
:10002000000000000000000000000000912B00080C
:100030003303000800000000312C0008752C000874
:100040004D3000084D3000084D3000084D3000089C
:100050004D3000084D3000084D3000084D3000088C
:100060004D3000084D3000084D3000084D3000087C
:100070004D3000084D3000084D3000084D3000086C
:100080004D3000084D3000084D3000084D3000085C
:100090004D3000084D3000084D3000084D3000084C
:1000A0004D3000084D3000084D3000084D3000083C
:1000B0004D3000084D300008452800084D3000083C
:1000C0004D3000084D3000084D3000084D3000081C
:1000D0004D300008BD2900084D3000084D300008A3
:1000E0004D3000084D3000084D3000080000000081
:1000F0000000000000000000000000000000000000
:0C01000000000000000000005FF808F1A3
:10011000034613F8012B002AFBD1181A0138704747
:100120000348044B834202D0034B03B11847704786
:100130006000002060000020000000000548064B21
:100140001B1AD90F01EBA301491002D0034B03B1D5
:100150001847704760000020600000200000000089
:1001600010B5064C237843B9FFF7DAFF044B13B1FF
:100170000448AFF300800123237010BD600000200D
:1001800000000000C03A000808B5054B1BB1054946
:100190000548AFF30080BDE80840FFF7CFBF00BFC0
:1001A0000000000064000020C03A000810B50AE01A
:1001B0000B4802F04CFF0B4C2060002002F0CCFA00
:1001C000206802F0F5FB4FF4C8720549064B186829
:1001D00001F005FD0128EBD0044802F02FFCF2E706
:1001E000E80000204C01002050010020D83A00080F
:1001F00008B502F071FB0449088000230922034876
:10020000006801F0BDFBF4E7E40000205401002089
:1002100008B54FF0FF320B490B4B186801F0DFFCBB
:100220000128F6D1094C074BB3F9002008492046B4
:1002300002F096FF204602F001FC4FF47A7002F0C3
:10024000DBF8E6E77C00002054010020800000205D
:10025000EC3A000800B583B000F0B8F802F0C0FA3C
:1002600002F0A4FA02F0F8FB02F0F2FA02F03AFB14
:1002700002F01AFA00220221012001F056FB144B71
:10028000186000226421012001F04FFB114B18601F
:1002900000240194042300932346802221460E4823
:1002A00001F0C4FE019403230093234680222146DB
:1002B0000A4801F0BBFE01940223009323468022EA
:1002C0002146074801F0B2FE01F0E4FEFEE700BF60
:1002D0005401002050010020F1010008AD01000888
:1002E0001102000882B00E4B9A6942F001029A6135
:1002F0009A6902F001020092009ADA6942F0805293
:10030000DA61DB6903F080530193019B054A53686E
:1003100023F0E06343F00073536002B0704700BF06
:100320000010024000000140FEE7FEE7FEE7FEE7A6
:10033000FEE7704710B503460C4A0D490D480068AA
:1003400040B10C4800680344521A934206D8094A47
:10035000136010BD0748084C0460F2E702F02AFF62
:100360000C2303604FF0FF30F3E700BF0050002084
:100370000004000058010020584900207047000088
:1003800010B504460E4B1A784FF47A73B3FBF2F3B0
:100390000C4A1068B0FBF3F000F094F868B90F2C29
:1003A00001D901200AE0002221464FF0FF3000F081
:1003B0006BF8054B1C60002000E0012010BD00BF61
:1003C00004000020000000200800002008B5074AB3
:1003D000136843F010031360032000F043F80F206C
:1003E000FFF7CEFFFFF77EFF002008BD0020024090
:1003F000014B1868704700BF5C010020002808DB33
:100400000901C9B200F1604000F5614080F80013B5
:10041000704700F00F000901C9B2014B1954704731
:1004200014ED00E000B500F00700C0F1070CBCF1CE
:10043000040F28BF4FF0040C031D062B0FD9C31E59
:100440004FF0FF3E0EFA0CF021EA000199400EFA3F
:1004500003FE22EA0E0241EA02005DF804FB0023DB
:10046000EEE70000074AD36823F4E0631B041B0C8B
:10047000000200F4E060034343F0BF6343F4003341
:10048000D360704700ED00E010B50446054BD86816
:10049000C0F30220FFF7C6FF01462046FFF7AEFF7C
:1004A00010BD00BF00ED00E0002807DB00F01F02D8
:1004B000400901239340024A42F82030704700BFB0
:1004C00000E100E00138B0F1807F0BD24FF0E02373
:1004D0005861054AF02182F8231000209861072214
:1004E0001A6170470120704700ED00E070B582B0DE
:1004F0000024A446A1E07E4DAB4214D00CD8A5F553
:100500008015AB420FD005F57025AB420BD0A5F599
:100510008015AB4210D106E0764DAB4203D005F515
:100520008035AB4208D18B68002B50D0012B49D0CD
:100530004261082400E0CC68BEF1FF0F49D80646AE
:100540004FEA8C0233680F25954023EA050304FA2D
:1005500002F2134333604B6813F0805F6BD0664B3D
:100560009A6942F001029A619B6903F001030193C9
:10057000019B4FEA9C02951C604B53F825600CF0E0
:100580000305AD000F23AB4026EA03065C4B9842FF
:1005900026D003F58063984200F08C8003F58063D9
:1005A000984200F0898003F58063984216D00423B6
:1005B00017E0CC680434BFE7CC680834BCE7CC68EB
:1005C0000C34B9E702610824B6E70024B4E7042438
:1005D000B2E7061DACF108029200B3E7032300E086
:1005E0000023AB4033430232444D45F822304B6880
:1005F00013F4801F62D0434A936843EA0E0393606A
:100600004B6813F4001F5FD03E4AD36843EA0E03E1
:10061000D3604B6813F4003F5CD03A4A536843EA16
:100620000E0353604B6813F4803F59D0354A13686A
:1006300043EA0E0313600CF1010C0B6833FA0CF261
:1006400054D0012202FA0CF203EA020E32EA03034A
:10065000F1D14B68122B3FF64EAF122B3FF66CAF29
:1006600001A555F823F000BF27050008370500084D
:10067000B9050008CB050008390500083905000850
:100680003905000839050008390500083905000852
:100690003905000839050008390500083905000842
:1006A000390500083905000839050008B3050008B8
:1006B000BF050008012394E7022392E7114A9368DB
:1006C00023EA0E0393609BE70E4AD36823EA0E03E6
:1006D000D3609EE70B4A536823EA0E035360A1E7F9
:1006E000084A136823EA0E031360A4E702B070BD42
:1006F00000002210000031100010024000000140F4
:1007000000080140000401400AB10161704709047A
:100710000161704782B0084B1B68084AA2FB0323A3
:100720005B0A00FB03F3019300BF019B5A1E019279
:10073000002BF9D102B0704700000020D34D6210A9
:10074000002800F0F18170B582B00446036813F010
:10075000010F2CD0994B5B6803F00C03042B1DD0C8
:10076000964B5B6803F00C03082B12D06368B3F55B
:10077000803F41D0002B55D103F1804303F5043372
:100780001A6822F480321A601A6822F480221A60F1
:1007900037E08A4B5B6813F4803FE7D0874B1B68D8
:1007A00013F4003F03D06368002B00F0BF8123687F
:1007B00013F0020F75D0814B5B6813F00C0F5FD004
:1007C0007E4B5B6803F00C03082B54D02369002B8D
:1007D00000F08A807A4B01221A60FFF709FE054675
:1007E000764B1B6813F0020F75D1FFF701FE401B1B
:1007F0000228F5D903209EE1704A136843F4803340
:100800001360636843B3FFF7F3FD05466B4B1B684A
:1008100013F4003FCBD1FFF7EBFD401B6428F5D963
:10082000032088E1B3F5A02F09D0644B1A6822F4A5
:1008300080321A601A6822F480221A60E1E703F11C
:100840008043A3F53C331A6842F480221A601A6888
:1008500042F480321A60D4E7FFF7CAFD0546574BD1
:100860001B6813F4003FA2D0FFF7C2FD401B6428B1
:10087000F5D903205FE1514B5B6813F4803FA5D1AC
:100880004E4B1B6813F0020F03D02369012B40F07D
:100890004F814A4A136823F0F803616943EAC103B0
:1008A0001360236813F0080F33D0A369002B5CD0CA
:1008B000434B0122C3F88024FFF79AFD05463F4BC6
:1008C0005B6A13F0020F21D1FFF792FD401B022853
:1008D000F5D903202FE1394A136823F0F803616941
:1008E00043EAC1031360DCE7354B00221A60FFF7CF
:1008F0007FFD0546314B1B6813F0020FD1D0FFF787
:1009000077FD401B0228F5D9032014E10120FFF7F1
:1009100001FF236813F0040F00F09680274BDB697A
:1009200013F0805F34D1254BDA6942F08052DA61EE
:10093000DB6903F080530193019B0125214B1B6868
:1009400013F4807F26D0E368012B3DD0002B53D1D8
:1009500003F1804303F504331A6A22F001021A629C
:100960001A6A22F004021A6233E0154B0022C3F81F
:100970008024FFF73DFD0546104B5B6A13F0020F24
:10098000C7D0FFF735FD401B0228F5D90320D2E080
:100990000025D3E70B4A136843F480731360FFF715
:1009A00027FD0646074B1B6813F4807FCBD1FFF76A
:1009B0001FFD801B6428F5D90320BCE00010024015
:1009C00000004242007000405F4A136A43F0010396
:1009D0001362E36833B3FFF70BFD06465A4B1B6AFD
:1009E00013F0020F2FD1FFF703FD801B41F2883374
:1009F0009842F3D903209EE0052B09D0524B1A6A86
:100A000022F001021A621A6A22F004021A62E0E776
:100A10004D4B1A6A42F004021A621A6A42F001024D
:100A20001A62D6E7FFF7E4FC0646474B1B6A13F051
:100A3000020F08D0FFF7DCFC801B41F2883398429C
:100A4000F3D9032077E0E5B9E369002B72D03E4A81
:100A5000526802F00C02082A56D0022B17D03B4BEA
:100A600000221A66FFF7C4FC0446374B1B6813F0DC
:100A7000007F47D0FFF7BCFC001B0228F5D90320FC
:100A800059E0314AD36923F08053D361DCE72F4B1F
:100A900000221A66FFF7ACFC05462B4B1B6813F0CF
:100AA000007F06D0FFF7A4FC401B0228F5D90320E5
:100AB00041E0236AB3F5803F1AD023494B6823F401
:100AC0007413226A606A024313434B601F4B012276
:100AD0001A66FFF78DFC04461B4B1B6813F0007F62
:100AE0000ED1FFF785FC001B0228F5D9032022E078
:100AF000154A536823F40033A1680B435360DCE7C5
:100B0000002018E0002016E0012B16D00E4B5B6889
:100B100003F48031226A914211D103F47013626AA6
:100B200093420ED1002006E001207047012002E030
:100B3000012000E0002002B070BD0120FBE7012091
:100B4000F9E70120F7E700BF001002400000424231
:100B50000F4B5B6803F00C02082A01D00D48704768
:100B6000C3F383420C49885C13F4803F0BD0084BDD
:100B70005B68C3F34043094AD35C064A02FB00F0BA
:100B8000B0FBF3F07047064B03FB00F0704700BF6B
:100B90000010024000127A00203B00081C3B0008B5
:100BA00000093D00002800F0A08070B50D46044605
:100BB000524B1B6803F007038B420BD24F4A13685A
:100BC00023F007030B431360136803F007038B4202
:100BD00040F08D80236813F0020F17D013F0040F3C
:100BE00004D0474A536843F4E0635360236813F02A
:100BF000080F04D0424A536843F460535360404A9C
:100C0000536823F0F003A1680B435360236813F08B
:100C1000010F31D06368012B20D0022B25D0384A38
:100C2000126812F0020F64D035494A6822F00302BC
:100C300013434B60FFF7DCFB0646314B5B6803F068
:100C40000C036268B3EB820F16D0FFF7D1FB801B59
:100C500041F288339842F0D9032045E0284A1268CF
:100C600012F4003FE0D101203EE0254A126812F064
:100C7000007FD9D1012037E0204B1B6803F0070328
:100C8000AB420AD91D4A136823F007032B431360B4
:100C9000136803F00703AB422DD1236813F0040F50
:100CA00006D0174A536823F4E063E1680B435360AE
:100CB000236813F0080F07D0114A536823F46053D8
:100CC000216943EAC1035360FFF742FF0C4B5B68A5
:100CD000C3F303130B4AD35CD8400B4B18600B4B88
:100CE0001868FFF74DFB002070BD01207047012000
:100CF000FAE70120F8E70120F6E700BF00200240F4
:100D0000001002400C3B00080000002008000020FA
:100D1000014B1868704700BF0000002008B5FFF7BE
:100D2000F7FF044B5B68C3F30223034AD35CD8404C
:100D300008BD00BF00100240043B000808B5FFF7E3
:100D4000E7FF044B5B68C3F3C223034AD35CD8407C
:100D500008BD00BF00100240043B000830B4026A26
:100D6000036A23F0010303624568836923F0730378
:100D70000C681C4322F002028B6813430B4A90421A
:100D800006D0456084614A684263036230BC7047A4
:100D900023F00803CA681A4322F0040325F44075BF
:100DA0004A692A438D691543EBE700BF002C0140D7
:100DB00030B4036A026A22F4807202624468C26933
:100DC00022F073020D68154323F400738A6843EA26
:100DD00002230D4A904206D04460C5614A68C2634E
:100DE000036230BC704723F40063CA6843EA0223FD
:100DF00023F4806324F440544A6944EA02148A6963
:100E000044EA0214E8E700BF002C014030B4036A52
:100E1000026A22F4805202624468C26922F4E64205
:100E20000D6842EA052223F400538D6843EA053336
:100E3000074DA84206D04460C2614A68026403625A
:100E400030BC704724F480444D6944EA8514F2E7CD
:100E5000002C01407047704703681F4A90420AD037
:100E6000B0F1804F07D0A2F59432904203D002F542
:100E70008062904203D123F070034A681343164AFC
:100E800090420AD0B0F1804F07D0A2F59432904240
:100E900003D002F58062904203D123F44073CA6804
:100EA000134323F080034A69134303608B68C362D2
:100EB0000B688362084B98420AD00123436103699F
:100EC00013F0010F03D0036923F00103036170479E
:100ED0000B690363F1E700BF002C014040B310B57C
:100EE000044690F83D30F3B1022384F83D302146AA
:100EF00051F8040BFFF7B0FF012384F8463084F863
:100F00003E3084F83F3084F8403084F8413084F833
:100F1000423084F8433084F8443084F8453084F813
:100F20003D30002010BD80F83C30FFF793FFDBE739
:100F300001207047002856D070B50D46044690F841
:100F40003D30002B4AD0022384F83D30226893685C
:100F500023F4804323F007039360214651F8040BE8
:100F6000FFF77AFF21688B688A690E6A2868184340
:100F700022F4407222F00302AB68D5F818C043EAAD
:100F80000C23134323F47C4323F0FC03EA68D5F8D5
:100F90001CC042EA0C221A432B6A1B03D5F810C06E
:100FA00043EA0C13134326F022066A686D6942EA8D
:100FB00005123243886021688B6123681A6201231D
:100FC00084F8463084F83E3084F83F3084F842306C
:100FD00084F8433084F83D30002070BD80F83C3008
:100FE000FFF739FFAFE701207047000030B4036A14
:100FF000026A22F0100202624468826922F4E64228
:101000000D6842EA052223F020038D6843EA0513A8
:101010000C4DA84206D0446082614A688263036234
:1010200030BC704723F08003CD6843EA051323F0FA
:10103000400324F440644D6944EA85048D6944EA20
:101040008504E8E7002C014038B590F83C30012BCE
:1010500066D004460D46012380F83C300C2A5AD84D
:10106000DFE802F0075959591B5959593059595954
:1010700044000068FFF772FE2268936943F008039A
:1010800093612268936923F0040393612268936952
:1010900029690B43936100203EE00068FFF7A6FF3B
:1010A0002268936943F4006393612268936923F48F
:1010B0008063936122689369296943EA01239361FC
:1010C000002029E00068FFF773FE2268D36943F02F
:1010D0000803D3612268D36923F00403D361226833
:1010E000D36929690B43D361002015E00068FFF73D
:1010F0008DFE2268D36943F40063D3612268D3690B
:1011000023F48063D3612268D369296943EA012308
:10111000D361002000E00120002384F83C3038BD7A
:101120000220FCE701F01F014FF0010C0CFA01FC5A
:10113000036A23EA0C030362036A8A4013430362CF
:101140007047000010B50446084651BB94F83E3085
:10115000DBB2013B18BF0123002B5BD1002839D142
:10116000022384F83E30012201462068FFF7DAFFAF
:1011700023682A4A93423DD02368284A93423ED0AE
:10118000B3F1804F3BD0A2F59432934237D002F5B1
:101190008062934233D01A6842F001021A60002044
:1011A00039E0042908D008290DD094F84130DBB289
:1011B000013B18BF0123CFE794F83F30DBB2013B7E
:1011C00018BF0123C8E794F84030DBB2013B18BFD9
:1011D0000123C1E7042805D0082807D0022384F89A
:1011E0004130C0E7022384F83F30BCE7022384F893
:1011F0004030B8E75A6C42F400425A64BCE79A683F
:1012000002F00702062A07D01A6842F001021A60AB
:10121000002000E0012010BD0020FCE7002C014070
:1012200038B5044690F83E00C0B294F83F3094F8C8
:101230004220D2B294F843C00D46B1B9012849D139
:10124000012A48D1022384F83E3084F842307DB32D
:10125000042D39D0012200212068FFF763FF01220D
:1012600004212068FFF75EFF27E0DBB25FFA8CFC09
:10127000042912D0012833D1012B2CD1012A31D1DC
:10128000BCF1010F30D1022384F83E3084F83F30A6
:1012900084F8423084F84330D9E7012B1CD1BCF1EB
:1012A000010F1BD1022384F83F3084F84330CEE78E
:1012B000012200212068FFF735FF2268136843F000
:1012C00001031360002006E0012204212068FFF7DB
:1012D00029FFF2E7012038BD0120FCE71846FAE7B4
:1012E0000120F8E71846F6E71046F4E790F83C20AE
:1012F000012A2CD010B40346012280F83C2002229F
:1013000080F83D2002685068946820F0700C0868EE
:1013100040EA0C0050601A680E4882420AD0B2F1CE
:10132000804F07D0A0F59430824203D000F5806052
:10133000824204D124F08004496821439160012253
:1013400083F83D20002083F83C0010BC7047022049
:10135000704700BF002C0140026802F10C0353E803
:10136000003F23F490730C3242E800310029F3D19E
:10137000026802F1140353E8003F23F00103143222
:1013800042E800310029F3D1036B012B05D0202363
:1013900080F84230002303637047026802F10C03B7
:1013A00053E8003F23F010030C3242E800310029DB
:1013B000F3D1ECE710B504460268136923F44053F7
:1013C000C1680B43136183680269134342691A437E
:1013D0000168CB6823F4B05323F00C031343CB60B4
:1013E0000268536923F4407381690B4353610268B7
:1013F000134B9A4220D0FFF791FC024602EB820287
:1014000002EB820263689B00B2FBF3F20D48A0FB83
:1014100002314909642303FB11231B013233A0FB72
:1014200003035B0903F0F00202EB011203F00F0368
:10143000216813448B6010BDFFF780FC0246DDE796
:10144000003801401F85EB512DE9F04383B005467C
:101450000E4617469946DDF828802B681C6836EA48
:1014600004040CBF01240024BC4228D1B8F1FF3F82
:10147000F3D0FEF7BDFFA0EB0900404523D8B8F13B
:10148000000F22D02B68DA6812F0040FE5D0802E0E
:10149000E3D0402EE1D01A6812F0080FDDD000240E
:1014A00001941A6801925B680193019B2846FFF73B
:1014B00053FF08236B6485F84040012000E00020C2
:1014C00003B0BDE8F0830320FAE70320F8E7704794
:1014D00060B310B5044690F8413013B3242384F868
:1014E00041302268D36823F40053D3602046FFF7CD
:1014F00061FF2268136923F49043136122685369E2
:1015000023F02A0353612268D36843F40053D36065
:1015100000206064202384F8413084F84230606306
:1015200010BD80F84030FFF7D2FFD7E701207047A9
:101530002DE9F04182B01E4690F84130DBB2202BFD
:1015400056D104460D469046002955D00AB90120CF
:101550004FE000234364212380F84130FEF748FF29
:101560000746A4F82480A4F82680A368B3F5805F1A
:1015700002D04FF0000814E023692BB34FF00008AD
:101580000FE0202384F84130032032E038F8023B9A
:101590002268C3F308035360E28C92B2013A92B21C
:1015A000E284E38C9BB293B100963B4600228021FB
:1015B0002046FFF749FF0028E3D1002DE6D015F8BB
:1015C000012B23685A60E7E7A8460025E9E7009663
:1015D0003B46002240212046FFF736FF18B9202362
:1015E00084F8413005E0202384F84130032000E0F6
:1015F000022002B0BDE8F0810120FAE72DE9F041B8
:1016000082B01E4690F84230DBB2202B59D10446FE
:101610000D469046002958D00AB9012052E0002317
:101620004364222280F842200363FEF7E1FE07466E
:10163000A4F82C80A4F82E80A368B3F5805F02D0B4
:101640004FF000081CE0236913B14FF0000817E0C9
:10165000A846002514E0202384F84230032031E01E
:1016600023685B68C3F3080328F8023B03E02368A0
:101670005B682B700135E28D92B2013A92B2E2853D
:10168000E38D9BB2C3B100963B4600222021204649
:10169000FFF7DAFE0028DED1002DE1D0A368B3F514
:1016A000805FE4D013B92369002BE0D023685B6826
:1016B00003F07F032B70DDE7202384F84230002005
:1016C00000E0022002B0BDE8F0810120FAE700F15D
:1016D000080343604FF0FF328260C3600361002360
:1016E0000360704700230361704730B40D68B5F1A3
:1016F000FF3F11D000F108031C465B681A68AA423C
:10170000FAD963684B6099608C6061600861036816
:101710000133036030BC70470469F2E70369416834
:1017200082688A60416851605A68824206D000220D
:1017300002611A68013A1A601868704782685A6034
:10174000F5E710B5044601F035FAA26BE36B9A4257
:1017500004D0002401F050FA204610BD0124F9E71E
:1017600010B5044601F026FAA36B23B9012401F059
:1017700043FA204610BD0024F9E770B5044616462A
:10178000856B026CEAB166B9406801F03FFD6368A1
:10179000226C13446360A268934212D3236863608F
:1017A0000FE0C06801F032FDE368226C51429B1AE1
:1017B000E3602268934202D2A3680B44E360022EE6
:1017C00003D00135A563002070BD002DF9D0013D87
:1017D000F7E708B50346026C62B10846D9681144C0
:1017E000D960D3F808C0614501D31968D960D968B8
:1017F00001F00CFD08BD38B5054601F0DBF995F8A0
:10180000454064B201E0013C64B2002C0ADD6B6A21
:1018100043B105F1240000F079FE0028F3D000F078
:101820003DFFF0E7FF2385F8453001F0E5F901F0D1
:10183000C1F995F8444064B201E0013C64B2002C67
:101840000ADD2B6943B105F1100000F05FFE0028AE
:10185000F3D000F023FFF0E7FF2385F8443001F0D8
:10186000CBF938BD38B590B10D460446C36B2BB1EA
:10187000026C0021A2FB032393B999B14FF05003EE
:1018800083F31188BFF36F8FBFF34F8FFEE74FF0E5
:10189000500383F31188BFF36F8FBFF34F8FFEE7C1
:1018A0000121EAE701F086F92368E26B216C01FB74
:1018B0000230A0600020A0636360013A02FB0133A4
:1018C000E360FF2384F8443084F84530B5B92369D8
:1018D0001BB901F091F9012038BD04F1100000F0AE
:1018E00015FE0028F5D04FF0E0234FF08052C3F8EA
:1018F000042DBFF34F8FBFF36F8FEAE704F11000A1
:10190000FFF7E5FE04F12400FFF7E1FEE1E710B583
:10191000034602980C4631B90060C3630464012198
:10192000FFF7A0FF10BD0260F7E7F0B583B060B12C
:101930000C46174605460023A4FB001272B923B9D2
:1019400004FB05F010F1490F0AD94FF0500383F35F
:101950001188BFF36F8FBFF34F8FFEE70123EEE7D0
:10196000483001F09BFA064638B100903B4600F142
:10197000480221462846FFF7CAFF304603B0F0BDB3
:10198000F0B585B0019238B10F461D46044661B1ED
:10199000022D16D0002660E04FF0500383F311882B
:1019A000BFF36F8FBFF34F8FFEE7036C002BEFD0B9
:1019B0004FF0500383F31188BFF36F8FBFF34F8F46
:1019C000FEE7E36B012B08D04FF0500383F311883F
:1019D000BFF36F8FBFF34F8FFEE700263DE02A462F
:1019E00039462046FFF7C9FE636A7BB948B14FF01C
:1019F000E0234FF08052C3F8042DBFF34F8FBFF3A5
:101A00006F8F01F0F9F8012005B0F0BD04F124005A
:101A100000F07CFD0028F4D04FF0E0234FF080521E
:101A2000C3F8042DBFF34F8FBFF36F8FE9E701F0C9
:101A3000E3F80020E8E702A800F0E0FD012619E045
:101A4000002384F8443021E0002384F8453023E06B
:101A50002046FFF7D0FE00F029FC01F0ABF8A26BA6
:101A6000E36B9A42BBD3022DB9D0019B002BDED091
:101A7000002EE0D001F0C0F800F04EFB01F09AF823
:101A800094F8442052B2B2F1FF3FD9D094F84520E7
:101A900052B2B2F1FF3FD7D001F0AEF801A902A8CF
:101AA00000F0B8FDD8B92046FFF74BFE0028CFD094
:101AB000019904F1100000F011FD2046FFF79BFE94
:101AC00000F0F4FB0028C8D14FF0E0234FF0805223
:101AD000C3F8042DBFF34F8FBFF36F8FBDE72046D0
:101AE000FFF789FE00F0E2FB00208DE72DE9F843C7
:101AF00090B10F4616461C460546B1B1022C20D1C6
:101B0000EB6B012B1DD04FF0500383F31188BFF313
:101B10006F8FBFF34F8FFEE74FF0500383F31188B1
:101B2000BFF36F8FBFF34F8FFEE7036C002BE5D041
:101B30004FF0500383F31188BFF36F8FBFF34F8FC4
:101B4000FEE701F021F9EFF311884FF0500383F322
:101B50001188BFF36F8FBFF34F8FAA6BEB6B9A4265
:101B600006D3022C04D0002088F31188BDE8F88346
:101B700095F845904FFA89F9AB6B224639462846CD
:101B8000FFF7FBFDB9F1FF3F0CD16B6A0BB90120E8
:101B9000EAE705F1240000F0B9FCD0B1DEB1012084
:101BA0003060E1E700F0C0FA814516D2B9F17F0F4D
:101BB00006D009F101035BB285F845300120D3E777
:101BC0004FF0500383F31188BFF36F8FBFF34F8F34
:101BD000FEE70120C8E70120C6E70120C4E7F0B511
:101BE00085B0019220B10F46044651B1002654E061
:101BF0004FF0500383F31188BFF36F8FBFF34F8F04
:101C0000FEE7036C43B14FF0500383F31188BFF339
:101C10006F8FBFF34F8FFEE700263EE03946204628
:101C2000FFF7D7FD013DA563236923B900F0E4FF69
:101C3000012005B0F0BD04F1100000F067FC0028A1
:101C4000F4D04FF0E0234FF08052C3F8042DBFF3DF
:101C50004F8FBFF36F8FE9E700F0CEFF0020E8E77A
:101C600002A800F0CBFC012621E0002384F84430D8
:101C700029E0002384F845302BE02046FFF7BBFD28
:101C800000F014FB09E02046FFF7B5FD00F00EFB65
:101C90002046FFF765FD00283FD100F08BFFA56BC4
:101CA000002DBBD1019B002BD6D0002ED8D000F048
:101CB000A3FF00F031FA00F07DFF94F844305BB2EE
:101CC000B3F1FF3FD1D094F845305BB2B3F1FF3FA1
:101CD000CFD000F091FF01A902A800F09BFC0028E2
:101CE000D1D12046FFF73CFD0028C6D0019904F170
:101CF000240000F0F3FB2046FFF77DFD00F0D6FA4C
:101D00000028CAD14FF0E0234FF08052C3F8042DD1
:101D1000BFF34F8FBFF36F8FBFE7002089E700004D
:101D2000074B1B681B6823B9064B4FF0FF321A6044
:101D30007047034B1B68DB681A68024B1A607047D8
:101D4000D00100206801002010B50446006B01F0AE
:101D50001FF9204601F01CF910BD2DE9F0410546A0
:101D60001E46069F089C236B02F18042013A03EB5A
:101D7000820323F0070871B10B460022092A07D815
:101D8000995C04EB020C8CF8341009B10132F5E7D0
:101D9000002384F83D30042F08D94FF0500383F31B
:101DA0001188BFF36F8FBFF34F8FFEE7E762201DEF
:101DB000FFF798FC04F11800FFF794FC2461C7F1C9
:101DC0000507A761646232462946404600F0CEFE10
:101DD0002060079B03B11C60BDE8F08138B500248A
:101DE00007E004EB840293000E481844FFF76FFCF1
:101DF0000134042CF5D90C4D2846FFF768FC0B4C38
:101E00002046FFF764FC0A48FFF761FC0948FFF72A
:101E10005EFC0948FFF75BFC084B1D60084B1C602B
:101E200038BD00BFFC010020E8010020D4010020E3
:101E3000B8010020A40100208C010020D001002066
:101E4000CC01002010B5044600F0B4FE284A136807
:101E500001331360274B1B685BB1274B1B686BB9C1
:101E6000244B1B68DA6AE36A9A4207D8214B1C604C
:101E700004E0204B1C601368012B36D01F4A136806
:101E800001331360E36A01229A401D490868024346
:101E90000A601C4A03EB830302EB83035B68A360C5
:101EA0009868E060211D41609960E36A03EB83015B
:101EB000880002EB8101616111580131115000F07D
:101EC0009BFE0D4B1B687BB10A4B1B68DA6AE36A09
:101ED0009A4209D24FF0E0234FF08052C3F8042D0C
:101EE000BFF34F8FBFF36F8F10BDFFF777FFC5E7CD
:101EF00088010020600200207C0100206C0100208D
:101F000080010020FC0100200F4B1B68D3B110B5ED
:101F100000F050FE0D4BDB68DC68201DFFF7FEFB78
:101F20000B4A1368013B1360074A1368013B1360B7
:101F300000F062FE2046FFF707FF034B1B68002BF3
:101F4000E6D110BD704700BFA0010020A401002011
:101F50008801002008B5FFF7D7FF074B1B68012B4E
:101F6000F9D94FF0E0234FF08052C3F8042DBFF3AE
:101F70004F8FBFF36F8FEEE7FC01002070B5044672
:101F80000D46234B1E68234B18680430FFF7C6FB31
:101F900048B9204B1B68DB6A01229A401E490B6836
:101FA00023EA02030B60B4F1FF3F0DD03444194B18
:101FB0001B685C60A6421DD9184B1868154B196840
:101FC0000431FFF792FB70BD002DEFD0144A516829
:101FD000104B1868816018688C68C46018680430F9
:101FE00060601868043088601B685A6113680133A8
:101FF0001360E8E70B4B1868064B19680431FFF7CC
:1020000074FB094B1B68A342DDD9074B1C60DAE760
:10201000840100206002002080010020CC0100200B
:102020008C010020D0010020680100202DE9F04340
:1020300085B00746884614461E46900000F02EFFE5
:1020400018B38146482000F029FF0546B8B1482260
:10205000002101F0A7F8C5F8309000230393029502
:102060000D9B01930C9B0093334622464146384614
:10207000FFF773FE2846FFF7E5FE012007E048461C
:1020800000F086FF4FF0FF3001E04FF0FF3005B069
:10209000BDE8F08300B583B0184B01930023009393
:1020A000802217491748FFF7C1FF012807D0B0F178
:1020B000FF3F19D0144B1B6803B05DF804FB4FF0D1
:1020C000500383F31188BFF36F8FBFF34F8F0F4B14
:1020D0004FF0FF321A600E4B01221A600D4B0022A6
:1020E0001A6000F0F1FDE5E74FF0500383F311882B
:1020F000BFF36F8FBFF34F8FFEE700BF6401002077
:10210000FC3A0008551F0008303B00086801002019
:102110007C01002084010020024A1368013313600F
:10212000704700BF60010020014B1868704700BF76
:1021300088010020F8B5524B1B68002B40F09980B5
:10214000504B1C6801341C60C4B94F4B1B681B68A2
:1021500043B14FF0500383F31188BFF36F8FBFF388
:102160004F8FFEE7484A1168484B186810601960A5
:10217000474A136801331360FFF7D2FD454B1B68D4
:10218000A34211D90020444B1B68DB6A03EB830395
:102190009A00424B9B58012B00D90120404B1B68F1
:1021A000002B6BD0012069E0002037E0394B4FF065
:1021B000FF321A60E7E7374B1A60E4E7D9685160ED
:1021C00042E000219962116801391160DA6A012147
:1021D0009140344E376839433160304902EB820216
:1021E0004FEA820C8C44DCF804209A609668DE602A
:1021F00075609560DA6A02EB820C4FEA8C056E1806
:102200005E614D5901354FEA8C0C41F80C50DA6A89
:10221000214B1B68DB6A9A4200D901201A4B1B68CC
:102220001B68002BC2D0184B1B68DB68DB685A6840
:102230009442C0D35A699D68D968A9609D684D6071
:1022400051681D1DA942B9D0002159611168013999
:1022500011609A6A002AB9D0DE69196AB160DE6934
:102260004E60566803F118018E42AAD1196A516076
:10227000A7E70D4A1368013313600020F8BD00BFC3
:102280006001002084010020D0010020CC0100204A
:10229000700100206801002060020020FC01002085
:1022A00074010020800100207801002038B54A4BDD
:1022B0001B6843B94FF0500383F31188BFF36F8F4E
:1022C000BFF34F8FFEE700F075FC434B1A68013AED
:1022D0001A601B68002B7AD1404B1B683BB9002465
:1022E00076E0196A516015E0D968516021E0002359
:1022F0003B4A1268002A47D0394BDB68DB689A6A90
:10230000D869196A8160D8694860506803F118017A
:102310008842E6D0002199621168013911605A693A
:102320009868D9688160986848605168181D814232
:10233000DAD000215961116801391160DA6A01218E
:102340009140284C256829432160274902EB8202ED
:1023500001EB820252689A609468DC606060906071
:10236000DA6A02EB8200840001EB800058610859B0
:1023700001300851D96A1D4A1268D26A9142B7D316
:102380001B4A01211160B3E70BB1FFF7C9FC194BE0
:102390001C6884B9164B1C68D4B14FF0E0234FF091
:1023A0008052C3F8042DBFF34F8FBFF36F8F01240A
:1023B0000EE0013C07D0FFF7BDFE0028F9D00C4B22
:1023C00001221A60F5E70B4B00221A60E2E70024B5
:1023D00000F012FC204638BD60010020880100207A
:1023E000B801002080010020FC01002060020020D4
:1023F000740100207801002010B5A8B10446104BEC
:102400001B6843B14FF0500383F31188BFF36F8F04
:10241000BFF34F8FFEE7FFF77FFE00212046FFF757
:10242000ADFDFFF743FF48B94FF0E0234FF0805276
:10243000C3F8042DBFF34F8FBFF36F8F10BD00BFE4
:1024400060010020204B1B681BB1204B01221A6049
:1024500070471E4B00221A601D4B1B68B3FA83F3B2
:10246000DBB2C3F11F0303EB83018A0019498A58C9
:1024700042B94FF0500383F31188BFF36F8FBFF35E
:102480004F8FFEE7134803EB83018A000244516833
:102490004968516003EB830C4FEA8C020832024416
:1024A000914209D003EB83039A000A4B13445B6803
:1024B000DA68094B1A607047486862469100054A1D
:1024C0000A445060EEE700BF600100207401002064
:1024D00080010020FC0100206002002058B110B5EE
:1024E0000C46094A11681831FFF7FFF80121204610
:1024F000FFF744FD10BD4FF0500383F31188BFF385
:102500006F8FBFF34F8FFEE760020020C368DB6868
:10251000002B4AD030B49A6AD869196A8160D869A8
:102520004860516803F11800814247D00021996248
:102530001168013911602B4A1268002A44D15A6986
:102540009868D9688160986848605168181D814210
:1025500037D000215961116801391160DA6A01210F
:102560009140214C256829432160204902EB8202D9
:1025700001EB820252689A609468DC60606090604F
:10258000DA6A02EB8200840001EB8000586108598E
:1025900001300851DA6A164B1B68DB6A9A421FD970
:1025A0000120144B186030BC70474FF0500383F388
:1025B0001188BFF36F8FBFF34F8FFEE7196A516029
:1025C000B4E7D9685160C4E70B4A5168D9618C6897
:1025D0001C62606088609A62116801311160D9E7FD
:1025E0000020E0E76001002080010020FC010020C5
:1025F0006002002074010020B8010020034B1B681A
:102600000360034B1B684360704700BF70010020EC
:1026100084010020C8B170B50C460546F1B100F048
:10262000C9FA1C4B19686B68C81A2268B2F1FF3FDF
:102630002BD0194E3668D5F800C0B44517D08B4260
:1026400015D800232360012420E04FF0500383F3CA
:102650001188BFF36F8FBFF34F8FFEE74FF050032A
:1026600083F31188BFF36F8FBFF34F8FFEE7824272
:1026700003D800232360012408E05B1A134423607D
:102680002846FFF7BBFF002400E0002400F0B4FA66
:10269000204670BD8401002070010020014B012202
:1026A0001A6070477401002000B587B00E4B9A691C
:1026B00042F010029A619B6903F010030193019BA1
:1026C00000230293039304930593012303934FF490
:1026D000005302930323059302A90448FDF706FF64
:1026E00007B05DF804FB00BF00100240001001407D
:1026F000F0B587B0164B9A6942F008029A619B695F
:1027000003F008030193019B124D0022012128468A
:10271000FDF7FAFF002202212846FDF7F5FF00240D
:1027200002940394049405940126039602960327C9
:10273000059702A92846FDF7D9FE039602230293C6
:102740000494059702A92846FDF7D0FE07B0F0BD16
:1027500000100240000C014010B568B1012817D0EC
:10276000114C002201212046FDF7CEFF002202215C
:102770002046FDF7C9FF0AE00B4C01221146204616
:10278000FDF7C2FF002202212046FDF7BDFF10BD6C
:10279000054C002201212046FDF7B6FF012202214F
:1027A0002046FDF7B1FFF2E7000C014082B00A4B72
:1027B0009A6942F020029A619A6902F0200200921E
:1027C000009A9A6942F004029A619B6903F004033B
:1027D0000193019B02B070470010024072B6FEE701
:1027E00000B591B02822002106A800F0DBFC0023F0
:1027F00001930293039304930593012206924FF4ED
:10280000803307930A9202220D920E934FF4E01345
:102810000F9306A8FDF794FF80B90F2301930221BF
:102820000291002303934FF480620492059301A860
:10283000FEF7B8F920B911B05DF804FBFFF7CEFF41
:10284000FFF7CCFF014B1B681B6970476402002037
:1028500000B58DB01E4BDA6942F00102DA61DB6926
:1028600003F001030093009B2422002103A800F041
:1028700099FC00230193029316484FF080420260B6
:10288000436083604FF6FF72C2600361836103237C
:10289000039302220492012305930892099303A94A
:1028A000FEF748FB70B900230193029301A9094880
:1028B000FEF71CFD48B93C210648FEF7B1FC0DB0FF
:1028C0005DF804FBFFF78AFFEDE7FFF787FFF2E70C
:1028D00000100240F40200204FF08043586A00B21A
:1028E0007047000030B591B000240C940D940E9404
:1028F0000F942B4DAB6943F00403AB61AB6903F05C
:1029000004030193019B40230C9302230D930F9327
:102910000CA92448FDF7EAFDEB6943F00203EB61E3
:10292000EB6903F002030293029B0A940B94039455
:102930000494059406940794089409941A481B4B30
:1029400003604723436084606423C360046184613F
:10295000FEF7C4FAD0B900230A930B930AA91248D0
:10296000FEF7C4FCA8B960230393002204920592E9
:10297000079203A90C48FEF767FB68B900210A48D3
:10298000FEF7E0FBFFF7B4FE11B030BDFFF726FF06
:10299000E1E7FFF723FFE6E7FFF720FFEEE700BFE1
:1029A0000010024000080140AC020020000400407A
:1029B000014B1B6858637047AC02002070B582B0B1
:1029C0004FF0FF3301220DF107011848FEF716FE04
:1029D0009DF80730532B07D015490A78501C087012
:1029E00014498B5402B070BD114E3378114D002440
:1029F000EC54009423466A4629460F480068FFF7C6
:102A000075F8347064222146284600F0CBFB009B09
:102A1000002BE7D04FF0E0234FF08052C3F8042D95
:102A2000BFF34F8FBFF36F8FDCE700BFA40300201D
:102A30003C030020400300205001002010B5044654
:102A4000FDF766FB4FF0FF3382B221460148FEF7E7
:102A50006FFD10BDA403002030B587B0274B9A69E5
:102A600042F480429A619A6902F480420092009A8C
:102A70009A6942F004029A619B6903F0040301938E
:102A8000019B002402940394049405944FF4007372
:102A900002930223039303230593194D02A92846A9
:102AA000FDF724FD4FF4806302930394049402A97C
:102AB0002846FDF71BFD1348134B03604FF4E13329
:102AC00043608460C46004610C2343618461C46119
:102AD000FEF7FEFC78B90B4B1A68D36843F020036D
:102AE000D360002205212520FDF7CEFC2520FDF72F
:102AF000DBFC07B030BDFFF771FEECE700100240D1
:102B000000080140A40300200038014082B00023E7
:102B100001930D4B1B68B3F1FF3F08D04FF05003FA
:102B200083F31188BFF36F8FBFF34F8FFEE74FF032
:102B3000500383F31188BFF36F8FBFF34F8F019B57
:102B4000002BFCD002B070470C0000200648006843
:102B5000006880F3088862B661B6BFF34F8FBFF399
:102B60006F8F00DF00BF000008ED00E04FF08073C2
:102B700040F8043C21F0010140F8081C034B40F8E8
:102B80000C3C40F8202C4038704700BF0D2B00084B
:102B9000074B19680868B0E8F00F80F30988BFF3A5
:102BA0006F8F4FF0000080F311884EF00D0E7047CC
:102BB000600200204FF0500383F31188BFF36F8F42
:102BC000BFF34F8F0B4A136801331360012B00D002
:102BD00070474FF0E023D3F8043D13F0FF0FF7D018
:102BE0004FF0500383F31188BFF36F8FBFF34F8F04
:102BF000FEE700BF0C000020094B1B6843B94FF0F3
:102C0000500383F31188BFF36F8FBFF34F8FFEE73D
:102C1000013B034A13600BB983F31188704700BF6F
:102C20000C00002000000000000000000000000078
:102C3000EFF30980BFF36F8F0D4B1A6820E9F00F97
:102C400010602DE908404FF0500080F31188FFF725
:102C5000F9FB4FF0000080F31188BDE808401968C7
:102C60000868B0E8F00F80F30988BFF36F8F7047F2
:102C70006002002008B54FF0500383F31188BFF3C2
:102C80006F8FBFF34F8FFFF755FA28B14FF0E02356
:102C90004FF08052C3F8042D002383F3118808BD40
:102CA0004FF0E022002313619361054B1B68054937
:102CB000A1FB03139B09013B536107231361704779
:102CC00000000020D34D621010B582B02A4B1A7854
:102CD000D2B20192FF221A701B78DBB28DF803305A
:102CE0009DF8033003F05003244A1370244B07224D
:102CF0001A6009E0224A1368013B13609DF8033013
:102D00005B00DBB28DF803309DF8033013F0800FC9
:102D1000F0D11B4B1B68032B08D04FF0500383F3FB
:102D20001188BFF36F8FBFF34F8FFEE71B02144A6A
:102D3000136003F4E0631360019BDBB20E4A13706F
:102D40004FF0E023D3F8202D42F47002C3F8202D79
:102D5000D3F8202D42F07042C3F8202DFFF7A0FFDA
:102D60000024084B1C60FFF7F1FEFFF76BFBFFF739
:102D7000CDFE204602B010BD00E400E0F0030020CC
:102D8000EC0300200C000020EFF305830F2B0FD97C
:102D9000114A9B5CDBB2114A12789A4208D94FF073
:102DA000500383F31188BFF36F8FBFF34F8FFEE79C
:102DB0004FF0E023D3F80C3D03F4E063084A1268B7
:102DC000934208D94FF0500383F31188BFF36F8FFC
:102DD000BFF34F8FFEE77047F0E300E0F003002001
:102DE000EC030020104A12F0070F1AD0D11D21F079
:102DF0000701C1F5884313440A460C4802600021CC
:102E000041601344083B23F00703094803605960FD
:102E10001960991A51601360064B1960064B1960CE
:102E200070474FF48843E8E71004002008040020AE
:102E300004040020FC03002000040020154B1A4667
:102E40001B688342FBD3516802EB010C844509D017
:102E5000416800EB010C634509D00360904218D033
:102E6000106070474068014451601046F0E710B4AC
:102E7000094C2468A3420AD05B6819444160136876
:102E80001B680360904200D0106010BC7047046063
:102E9000F8E77047080400200404002070B50546D8
:102EA000FFF73AF9354B1B685BB175B105F00703C5
:102EB000C3F11002113BAB4206D3AD1805D5002675
:102EC00047E0FFF78FFFF0E70025002D40D02C4BA7
:102ED0001B68AB424BD32B4A146801E022461C46C8
:102EE0006368AB4202D22368002BF7D1234B1B68E7
:102EF000A3423ED0166808362368136063685B1BE4
:102F0000102B10D9601910F0070F08D04FF05003A4
:102F100083F31188BFF36F8FBFF34F8FFEE74360DA
:102F20006560FFF78BFF626815490B689B1A0B60A1
:102F3000154909688B4201D213490B6042F00042E7
:102F4000626000232360114A13680133136000E0BC
:102F50000026FFF7ABF916F0070F0CD04FF0500327
:102F600083F31188BFF36F8FBFF34F8FFEE7002607
:102F7000EFE70026EDE7304670BD00BF04040020F7
:102F80000004002008040020FC030020F8030020B7
:102F900090B338B50446A0F1080550F8043C002B66
:102FA00008DB4FF0500383F31188BFF36F8FBFF33B
:102FB0004F8FFEE750F8082C42B14FF0500383F3D7
:102FC0001188BFF36F8FBFF34F8FFEE723F00043ED
:102FD00040F8043CFFF7A0F854F8041C074A1368B3
:102FE0000B4413602846FFF729FF054A1368013395
:102FF0001360FFF75BF938BD704700BF0004002085
:10300000F4030020FDF7BAF90B480C490C4A0023E1
:1030100002E0D458C4500433C4188C42F9D3094A8E
:10302000094C002301E013600432A242FBD300F0FC
:10303000C7F8FDF70FF9704700000020600000207E
:10304000783C00086000002058490020FEE70A2272
:10305000002100F07BB80000242B2DE9F0478646C4
:10306000904601D8012B06D100F0A4F81623036086
:103070000020BDE8F0870D4633482A4615F8014B7D
:10308000065D16F00806F8D12D2C10D101262C78FB
:10309000951C33F0100215D1302C0DD12A7802F096
:1030A000DF02582A08D16C78023510230AE02B2C55
:1030B00004BF2C78951CECE7002BF6D1302C14BF04
:1030C0000A230823002206F1004C0CF1FF3CBCFB54
:1030D000F3F9104603FB19CAA4F13007092F0FD8E2
:1030E0003C46A3421BDD571C07D0814514D301D1B8
:1030F000A24511DB012200FB034015F8014BEBE771
:10310000A4F14107192F01D8373CEAE7A4F1610780
:10311000192F04D8573CE4E74FF0FF32EDE7531C7A
:1031200008D122236046CEF80030B8F1000FA0D0BD
:10313000691E06E006B14042B8F1000F99D0002A9E
:10314000F6D1C8F8001094E7353B000813460A464C
:10315000014602480068FFF77FBF00BF1000002053
:103160000EB46FF0004110B500249DB01FAB02906B
:103170000690079104910948094953F8042B0591D9
:10318000006802A901931B9400F0A0F9029B1C7037
:103190001DB0BDE8104003B0704700BF1000002014
:1031A0000802FFFF03460244934200D1704703F830
:1031B000011BF9E7014B1868704700BF10000020A1
:1031C00070B500260C4D0D4C641BA410A64209D10D
:1031D00000F076FC00260A4D0A4C641BA410A6429F
:1031E00005D170BD55F8043B98470136EEE755F818
:1031F000043B98470136F2E7703C0008703C000839
:10320000703C0008743C0008704770470A449142C3
:1032100000F1FF3300D1704710B511F8014B914216
:1032200003F8014FF9D110BD38B50546002940D04B
:1032300051F8043C0C1F002BB8BFE41800F0DEF876
:103240001C4A136833B9636014602846BDE83840EF
:1032500000F0DAB8A34208D9206821188B4201BFD8
:1032600019685B6809182160EDE71A465B680BB1C5
:10327000A342FAD911685018A0420BD1206801442A
:10328000501883421160E0D118685B6808441060F0
:103290005360DAE702D90C232B60D6E720682118A7
:1032A0008B4201BF19685B68091821606360546034
:1032B000CBE738BD5449002070B50F4E0C4631683D
:1032C000054611B900F0A8FB30602146284600F001
:1032D000A3FB431C03D14FF0FF34204670BDC41C38
:1032E00024F00304A042F8D0211A284600F094FBF1
:1032F0000130F2D1EFE700BF504900202DE9F8433B
:10330000CD1C25F0030508350C2D38BF0C25002DEC
:10331000064601DBA94204D90C2333600020BDE836
:10332000F883DFF8D48000F069F8D8F800301C4644
:1033300044BB29463046FFF7BFFF431C044658D123
:10334000D8F800402746002F43D1002C4BD02368EB
:103350003946304604EB030900F05EFB814542D15B
:10336000216830466D1A2946FFF7A6FF01303AD092
:1033700023682B442360D8F800305A6862BBC8F831
:1033800000700FE02268521B20D40B2A17D9611954
:10339000A342256018BF5960636808BFC8F80010D1
:1033A00062514B60304600F02FF804F10B00231DF2
:1033B00020F00700C21A1CBF1B1AA350AFE76268B7
:1033C000A3420CBFC8F800205A60EBE723466468AC
:1033D000AEE73C467F68B6E71A465B68A342FBD17E
:1033E00000235360DEE70C233046336000F00CF816
:1033F00094E70560D6E700BF544900200148FFF775
:1034000003BF00BF4C4900200148FFF7FEBE00BFCC
:103410004C4900202DE9F0471F468E688246BE4287
:103420000C4690460B682DD8B1F90C2012F4906F21
:1034300026D06569096905EB4505A3EB010905EB94
:10344000D5757B1C4B446D109D4238BF1D465305FE
:1034500027D52946FFF752FF064660B34A46216941
:10346000FFF7D4FEA38923F4906343F08003A38184
:1034700026614E4426603E466561A5EB0905A560C0
:10348000BE4200D93E4632464146206800F0AAFAC4
:103490000020A3689B1BA360236833442360BDE81E
:1034A000F0872A4600F0D6FA06460028E0D15046BA
:1034B0002169FFF7B9FE0C23CAF80030A3894FF049
:1034C000FF3043F04003A381E9E700002DE9F04F0E
:1034D00098468B8907461B060D4614469DB010D5AD
:1034E0000B6973B94021FFF709FF2860286130B9E3
:1034F0000C233B604FF0FF301DB0BDE8F08F402340
:103500006B610023099320238DF8293030234FF07D
:103510000109CDF80C80DFF898818DF82A30234618
:103520009A4613F8012B0AB1252AF9D1BAEB040BFC
:103530000BD05B46224629463846FFF76BFF013029
:1035400000F0A780099A5A4409929AF80030002B9B
:1035500000F09F8000234FF0FF32CDE905230AF1F0
:10356000010A049307938DF853301A9354460522A9
:1035700014F8011B4E4800F05FFA049AD8B9D0063F
:1035800044BF20238DF85330110744BF2B238DF8FF
:1035900053309AF800302A2B15D0544600204FF0B3
:1035A0000A0C079A214611F8013B303B092B4BD9F5
:1035B000B0B1079214E0A0EB080309FA03F3134338
:1035C000A2460493D2E7039B191D1B680391002BAD
:1035D000BBBF5B4242F0020207930793B8BF04925D
:1035E00023782E2B0AD163782A2B32D1039B023405
:1035F0001A1D1B68039243EAE3730593DFF8B4A036
:1036000003225046217800F017FA38B14022049B7B
:10361000A0EB0A00824013430134049314F8011B09
:10362000062225488DF8281000F006FA002836D02A
:10363000224B1BBB039B073323F007030833039381
:10364000099B334409936AE70C4601200CFB0232C4
:10365000A8E700234FF00A0C1946013405932046D1
:1036600010F8012B303A092A03D9002BC6D0059156
:10367000C4E7044601230CFB0121F0E703AB0093F0
:103680002A4638460E4B04A9AFF30080421C06467A
:10369000D6D1AB895B063FF52DAF09982CE703AB7C
:1036A00000932A463846064B04A900F07DF8EDE762
:1036B000353C00083B3C00083F3C0008000000008F
:1036C000153400082DE9F047164698468A680B69BC
:1036D00007469342B8BF1346336091F843200C4627
:1036E000DDF820900AB1013333602368990642BFA8
:1036F000336802333360256815F0060506D104F1FE
:10370000190AE36832689B1AAB422BDC94F8433009
:103710002268003B18BF0123920630D44146384648
:1037200004F14302C847013023D02368226903F023
:103730000603042B14BF002533684FF0000608BFB2
:10374000E56804F11A0408BFED1A54F8123C08BFEA
:1037500025EAE5759342C4BF9B1AED18B5421AD10C
:10376000002008E00123524641463846C847013050
:1037700003D14FF0FF30BDE8F0870135C1E73020BD
:10378000E11881F843005A1C94F845102244023392
:1037900082F84310C2E70123224641463846C84713
:1037A0000130E6D00136D9E72DE9FF470F7E91467B
:1037B000782F80460C469A460C9E01F1430207D8AA
:1037C000622F0AD8002F00F0D180582F00F0B88067
:1037D00004F1420684F842703AE0A7F16303152B26
:1037E000F6D801A151F823F04138000855380008F7
:1037F000D1370008D1370008D1370008D137000889
:1038000055380008D1370008D1370008D1370008F3
:10381000D1370008533900087F3800080D390008F7
:10382000D1370008D137000875390008D1370008B2
:103830007F380008D1370008D13700081539000853
:1038400033681A1D1B68326004F1420684F8423066
:1038500001239CE033682068191D3160060601D5FC
:103860001D6803E04506FBD5B3F90050002D03DACF
:103870002D236D4284F843300A23584811E0216813
:103880003368080653F8045B02D4490648BFADB25A
:103890006F2F336014BF0A2308235048002184F897
:1038A00043106668002EA66005DB21682E4321F0D8
:1038B000040121604BD01646B5FBF3F103FB115711
:1038C000C75D06F8017D2F46BB420D46F4D9082B93
:1038D0000BD12368DF0708D5236961689942DEBFF1
:1038E000302306F8013C06F1FF36921B22614B465D
:1038F00021464046CDF800A003AAFFF7E3FE0130C1
:103900004AD14FF0FF3004B0BDE8F087236843F0A0
:10391000200323607827324884F845702368316893
:103920001F0651F8045B02D45F0648BFADB2316098
:10393000D90744BF43F0200323601DB11023ADE736
:103940002648E9E7236823F020032360F6E71646BC
:10395000BDE733682568181D616930602E061B6855
:1039600001D5196002E06806FBD5198000231646D0
:103970002361BCE7336800211A1D32601E6862684B
:10398000304600F059F808B1801B6060636823611D
:10399000002384F84330AAE732464946404623696B
:1039A000D0470130ADD023689B0713D4E068039B58
:1039B0009842B8BF1846A6E701233246494640461A
:1039C000D04701309DD00135E36803995B1AAB42C3
:1039D000F2DCEBE7002504F11906F5E7463C0008A8
:1039E000573C0008884210B501EB020402D984421A
:1039F000234607D8431EA14208D011F8012B03F833
:103A0000012FF8E7014602448A4200D110BD13F8A5
:103A1000014D02F8014DF7E738B50023054D044686
:103A200008462B60FCF786FC431C02D12B6803B1CF
:103A3000236038BD48490020034610B5C9B202448E
:103A40009342184601D1002003E0047801338C42F0
:103A5000F6D110BD2DE9F041074614460D4621B9B7
:103A60001146BDE8F041FFF749BC2AB9FFF7DCFB7E
:103A700025462846BDE8F08100F01AF88442064643
:103A800002D8B4EB500FF4D821463846FFF736FC85
:103A9000804608B94546ECE7B4422246294628BF8D
:103AA0003246FFF7B3FB29463846FFF7BDFBF1E787
:103AB00051F8043C181F002BBCBF0B58C0187047AE
:103AC000F8B500BFF8BC08BC9E467047F8B500BF0B
:083AD000F8BC08BC9E467047DB
:103AD800436F6E74726F6C6C6572205461736B0AFD
:103AE80000000000456E636F6465723A2025640A21
:103AF8000000000049444C450000000000000000A0
:103B08000102030400000000000000000102030499
:103B18000607080901020000020304050607080950
:103B28000A0B0C0D0E0F10100400000000202020BE
:103B38002020202020202828282828202020202055
:103B48002020202020202020202020202088101025
:103B58001010101010101010101010101004040481
:103B6800040404040404041010101010101041413F
:103B7800414141410101010101010101010101012D
:103B88000101010101010101101010101010424241
:103B980042424242020202020202020202020202FD
:103BA800020202020202020210101010200000009D
:103BB80000000000000000000000000000000000FD
:103BC80000000000000000000000000000000000ED
:103BD80000000000000000000000000000000000DD
:103BE80000000000000000000000000000000000CD
:103BF80000000000000000000000000000000000BD
:103C080000000000000000000000000000000000AC
:103C1800000000000000000000000000000000009C
:103C280000000000000000000000000000232D300C
:103C38002B2000686C4C00656667454647003031AC
:103C480032333435363738394142434445460030FB
:103C5800313233343536373839616263646566002A
:083C6800A8C4FF7F0100000069
:043C700089010008BE
:043C740061010008E2
:103C780000127A000100000010000000AAAAAAAAF7
:103C880014000020000000001048002078480020A0
:103C9800E0480020000000000000000000000000D4
:103CA800000000000000000000000000000000000C
:103CB80000000000000000000000000000000000FC
:103CC80000000000000000000000000000000000EC
:0400000508003005BA
:00000001FF
