:020000040800F2
:1000000000500020953F0008391300083B130008FA
:100010003D1300083F1300084113000800000000D2
:10002000000000000000000000000000213B00086C
:100030004313000800000000C13B0008053C000815
:10004000DD3F0008DD3F0008DD3F0008DD3F000820
:10005000DD3F0008DD3F0008DD3F0008DD3F000810
:10006000DD3F0008DD3F0008DD3F0008DD3F000800
:10007000DD3F0008DD3F0008DD3F0008DD3F0008F0
:10008000DD3F0008DD3F0008DD3F0008DD3F0008E0
:10009000DD3F0008DD3F0008DD3F0008DD3F0008D0
:1000A000DD3F0008DD3F0008DD3F0008DD3F0008C0
:1000B00001100008DD3F0008CD0F0008DD3F0008FB
:1000C000DD3F0008DD3F0008DD3F0008DD3F0008A0
:1000D000DD3F000865390008DD3F0008DD3F00080E
:1000E000DD3F0008DD3F0008DD3F000800000000A4
:1000F0000000000000000000000000000000000000
:0C01000000000000000000005FF808F1A3
:1001100081F0004102E000BF83F0004330B54FEAB8
:1001200041044FEA430594EA050F08BF90EA020F25
:100130001FBF54EA000C55EA020C7FEA645C7FEAB8
:10014000655C00F0E2804FEA5454D4EB5555B8BFDB
:100150006D420CDD2C4480EA020281EA030382EA4C
:10016000000083EA010180EA020281EA0303362DDE
:1001700088BF30BD11F0004F4FEA01314FF4801CB1
:100180004CEA113102D0404261EB410113F0004FC3
:100190004FEA03334CEA133302D0524263EB43037A
:1001A00094EA050F00F0A780A4F10104D5F1200E18
:1001B0000DDB02FA0EFC22FA05F2801841F1000173
:1001C00003FA0EF2801843FA05F359410EE0A5F147
:1001D00020050EF1200E012A03FA0EFC28BF4CF078
:1001E000020C43FA05F3C01851EBE37101F000452E
:1001F00007D54FF0000EDCF1000C7EEB00006EEB3B
:100200000101B1F5801F1BD3B1F5001F0CD34908C4
:100210005FEA30004FEA3C0C04F101044FEA44521B
:1002200012F5800F80F09A80BCF1004F08BF5FEAA2
:10023000500C50F1000041EB045141EA050130BD82
:100240005FEA4C0C404141EB0101013C28BFB1F594
:10025000801FE9D291F0000F04BF01460020B1FADF
:1002600081F308BF2033A3F10B03B3F120020CDAB2
:100270000C3208DD02F1140CC2F10C0201FA0CF090
:1002800021FA02F10CE002F11402D8BFC2F1200CF5
:1002900001FA02F120FA0CFCDCBF41EA0C019040AB
:1002A000E41AA2BF01EB0451294330BD6FEA0404F4
:1002B0001F3C1CDA0C340EDC04F11404C4F12002DF
:1002C00020FA04F001FA02F340EA030021FA04F3F1
:1002D00045EA030130BDC4F10C04C4F1200220FA48
:1002E00002F001FA04F340EA0300294630BD21FA86
:1002F00004F0294630BD94F0000F83F4801306BF4C
:1003000081F480110134013D4EE77FEA645C18BF3F
:100310007FEA655C29D094EA050F08BF90EA020FD6
:1003200005D054EA000C04BF1946104630BD91EACE
:10033000030F1EBF0021002030BD5FEA545C05D1D1
:100340004000494128BF41F0004130BD14F5800410
:100350003CBF01F5801130BD01F0004545F0FE4184
:1003600041F470014FF0000030BD7FEA645C1ABFB9
:10037000194610467FEA655C1CBF0B46024650EAF0
:10038000013406BF52EA033591EA030F41F400211C
:1003900030BD00BF90F0000F04BF0021704730B5A2
:1003A0004FF4806404F132044FF000054FF0000177
:1003B00050E700BF90F0000F04BF0021704730B538
:1003C0004FF4806404F1320410F0004548BF40420D
:1003D0004FF000013EE700BF42004FEAE2014FEA62
:1003E00031014FEA02701FBF12F07F4393F07F4F3D
:1003F00081F06051704732F07F4208BF704793F040
:100400007F4F04BF41F40021704730B54FF4607452
:1004100001F0004521F000411CE700BF50EA010255
:1004200008BF704730B54FF000050AE050EA0102FE
:1004300008BF704730B511F0004502D5404261EB6E
:1004400041014FF4806404F132045FEA915C3FF4AF
:10045000D8AE4FF003025FEADC0C18BF03325FEA4C
:10046000DC0C18BF033202EBDC02C2F1200300FAFD
:1004700003FC20FA02F001FA03FE40EA0E0021FA22
:1004800002F11444BDE600BF70B54FF0FF0C4CF410
:10049000E06C1CEA11541DBF1CEA135594EA0C0FC2
:1004A00095EA0C0F00F0DEF82C4481EA030621EAFD
:1004B0004C5123EA4C5350EA013518BF52EA033538
:1004C00041F4801143F4801338D0A0FB02CE4FF0EA
:1004D0000005E1FB02E506F00042E0FB03E54FF01A
:1004E0000006E1FB03569CF0000F18BF4EF0010E12
:1004F000A4F1FF04B6F5007F64F5407404D25FEA0E
:100500004E0E6D4146EB060642EAC62141EA5551C0
:100510004FEAC52040EA5E504FEACE2EB4F1FD0C02
:1005200088BFBCF5E06F1ED8BEF1004F08BF5FEA80
:10053000500E50F1000041EB045170BD06F0004632
:1005400046EA010140EA020081EA0301B4EB5C04DF
:10055000C2BFD4EB0C0541EA045170BD41F48011D7
:100560004FF0000E013C00F3AB8014F1360FDEBFFC
:10057000002001F0004170BDC4F10004203C35DAD8
:100580000C341BDC04F11404C4F1200500FA05F35B
:1005900020FA04F001FA05F240EA020001F00042FC
:1005A00021F0004110EBD37021FA04F642EB060172
:1005B0005EEA430E08BF20EAD37070BDC4F10C049C
:1005C000C4F1200500FA04F320FA05F001FA04F260
:1005D00040EA020001F0004110EBD37041F100014C
:1005E0005EEA430E08BF20EAD37070BDC4F1200557
:1005F00000FA05F24EEA020E20FA04F301FA05F2BF
:1006000043EA020321FA04F001F0004121FA04F266
:1006100020EA020000EBD3705EEA430E08BF20EA36
:10062000D37070BD94F0000F0FD101F00046400070
:1006300041EB010111F4801F08BF013CF7D041EAF2
:10064000060195F0000F18BF704703F000465200F6
:1006500043EB030313F4801F08BF013DF7D043EAC7
:100660000603704794EA0C0F0CEA135518BF95EA7D
:100670000C0F0CD050EA410618BF52EA4306D1D104
:1006800081EA030101F000414FF0000070BD50EA23
:10069000410606BF1046194652EA430619D094EAAD
:1006A0000C0F02D150EA013613D195EA0C0F05D197
:1006B00052EA03361CBF104619460AD181EA0301EB
:1006C00001F0004141F0FE4141F470014FF00000A3
:1006D00070BD41F0FE4141F4780170BD70B54FF03E
:1006E000FF0C4CF4E06C1CEA11541DBF1CEA1355BE
:1006F00094EA0C0F95EA0C0F00F0A7F8A4EB0504A0
:1007000081EA030E52EA03354FEA013100F0888096
:100710004FEA03334FF0805545EA131343EA12635F
:100720004FEA022245EA111545EA10654FEA002614
:100730000EF000419D4208BF964244F1FD0404F5CD
:10074000407402D25B084FEA3202B61A65EB030529
:100750005B084FEA32024FF480104FF4002CB6EBE6
:10076000020E75EB030E22BFB61A754640EA0C0066
:100770005B084FEA3202B6EB020E75EB030E22BFA6
:10078000B61A754640EA5C005B084FEA3202B6EBE7
:10079000020E75EB030E22BFB61A754640EA9C00A6
:1007A0005B084FEA3202B6EB020E75EB030E22BF76
:1007B000B61A754640EADC0055EA060E18D04FEA34
:1007C000051545EA16754FEA06164FEAC30343EAD4
:1007D00052734FEAC2025FEA1C1CC0D111F4801FA1
:1007E0000BD141EA00014FF000004FF0004CB6E79A
:1007F00011F4801F04BF01430020B4F1FD0C88BF39
:10080000BCF5E06F3FF6AFAEB5EB030C04BFB6EB43
:10081000020C5FEA500C50F1000041EB045170BD36
:100820000EF0004E4EEA113114EB5C04C2BFD4EB63
:100830000C0541EA045170BD41F480114FF0000EE7
:10084000013C90E645EA060E8DE60CEA135594EA63
:100850000C0F08BF95EA0C0F3FF43BAF94EA0C0F66
:100860000AD150EA01347FF434AF95EA0C0F7FF4DB
:1008700025AF104619462CE795EA0C0F06D152EA2F
:1008800003353FF4FDAE1046194622E750EA410613
:1008900018BF52EA43067FF4C5AE50EA41047FF424
:1008A0000DAF52EA43057FF4EBAE12E74FEA410287
:1008B000B2F1E04324BFB3F5001CDCF1FE5C0DD9BE
:1008C00001F0004C4FEAC0024CEA5070B2F1004F08
:1008D00040EB830008BF20F00100704711F0804F0B
:1008E00021D113F13872BCBF01F00040704741F4D0
:1008F00080114FEA5252C2F11802C2F1200C10FAD4
:100900000CF320FA02F018BF40F001004FEAC123B7
:100910004FEAD32303FA0CFC40EA0C0023FA02F35B
:100920004FEA4303CCE77FEA625307D150EA013331
:100930001EBF4FF0FE4040F44000704701F0004001
:1009400040F0FE4040F40000704700BF80F00040DF
:1009500002E000BF81F0004142001FBF5FEA410397
:1009600092EA030F7FEA226C7FEA236C6AD04FEA97
:100970001262D2EB1363C1BFD218414048404140DC
:10098000B8BF5B42192B88BF704710F0004F40F48E
:10099000000020F07F4018BF404211F0004F41F4AA
:1009A000000121F07F4118BF494292EA030F3FD076
:1009B000A2F1010241FA03FC10EB0C00C3F1200389
:1009C00001FA03F100F0004302D5494260EB400018
:1009D000B0F5000F13D3B0F1807F06D340084FEA83
:1009E000310102F10102FE2A51D2B1F1004F40EB78
:1009F000C25008BF20F0010040EA030070474900E0
:100A000040EB0000013A28BFB0F5000FEDD2B0FA7C
:100A100080FCACF1080CB2EB0C0200FA0CF0AABF9F
:100A200000EBC25052421843BCBFD040184370473D
:100A300092F0000F81F4000106BF80F40000013243
:100A4000013BB5E74FEA41037FEA226C18BF7FEA1A
:100A5000236C21D092EA030F04D092F0000F08BF5C
:100A60000846704790EA010F1CBF0020704712F043
:100A70007F4F04D1400028BF40F00040704712F182
:100A800000723CBF00F50000704700F0004343F0E7
:100A9000FE4040F4000070477FEA226216BF08461D
:100AA0007FEA23630146420206BF5FEA412390EAE0
:100AB000010F40F4800070474FF0000304E000BFD6
:100AC00010F0004348BF40425FEA000C08BF704787
:100AD00043F0964301464FF000001CE050EA01024B
:100AE00008BF70474FF000030AE000BF50EA010260
:100AF00008BF704711F0004302D5404261EB41014D
:100B00005FEA010C02BF84460146002043F0B64371
:100B100008BFA3F18053A3F50003BCFA8CF2083A96
:100B2000A3EBC25310DB01FA02FC634400FA02FC9F
:100B3000C2F12002BCF1004F20FA02F243EB0200A6
:100B400008BF20F00100704702F1200201FA02FC08
:100B5000C2F1200250EA4C0021FA02F243EB0200FB
:100B600008BF20EADC7070474FF0FF0C1CEAD0523F
:100B70001EBF1CEAD15392EA0C0F93EA0C0F6FD000
:100B80001A4480EA010C400218BF5FEA41211ED0DE
:100B90004FF0006343EA501043EA5111A0FB0131CA
:100BA0000CF00040B1F5000F3EBF490041EAD3719F
:100BB0005B0040EA010062F17F02FD2A1DD8B3F11B
:100BC000004F40EBC25008BF20F00100704790F08A
:100BD000000F0CF0004C08BF49024CEA502040EADC
:100BE00051207F3AC2BFD2F1FF0340EAC2507047A2
:100BF00040F400004FF00003013A5DDC12F1190FE0
:100C0000DCBF00F000407047C2F10002410021FA51
:100C100002F1C2F1200200FA02FC5FEA310040F169
:100C2000000053EA4C0308BF20EADC70704792F0E2
:100C3000000F00F0004C02BF400010F4000F013A1A
:100C4000F9D040EA0C0093F0000F01F0004C02BF15
:100C5000490011F4000F013BF9D041EA0C018FE784
:100C60000CEAD15392EA0C0F18BF93EA0C0F0AD08A
:100C700030F0004C18BF31F0004CD8D180EA0100B0
:100C800000F00040704790F0000F17BF90F0004F49
:100C9000084691F0000F91F0004F14D092EA0C0F2B
:100CA00001D142020FD193EA0C0F03D14B0218BFBE
:100CB000084608D180EA010000F0004040F0FE4004
:100CC00040F40000704740F0FE4040F440007047A0
:100CD0004FF0FF0C1CEAD0521EBF1CEAD15392EA1F
:100CE0000C0F93EA0C0F69D0A2EB030280EA010C0F
:100CF00049024FEA402037D04FF0805343EA1111A8
:100D000043EA10130CF000408B4238BF5B0042F105
:100D10007D024FF4000C8B4224BF5B1A40EA0C00AA
:100D2000B3EB510F24BFA3EB510340EA5C00B3EBDC
:100D3000910F24BFA3EB910340EA9C00B3EBD10FCA
:100D400024BFA3EBD10340EADC001B0118BF5FEA1C
:100D50001C1CE0D1FD2A3FF650AF8B4240EBC25045
:100D600008BF20F0010070470CF0004C4CEA502006
:100D70007F32C2BFD2F1FF0340EAC250704740F455
:100D800000004FF00003013A37E792F0000F00F047
:100D9000004C02BF400010F4000F013AF9D040EAC5
:100DA0000C0093F0000F01F0004C02BF490011F459
:100DB000000F013BF9D041EA0C0195E70CEAD15351
:100DC00092EA0C0F08D142027FF47DAF93EA0C0F38
:100DD0007FF470AF084676E793EA0C0F04D14B021C
:100DE0003FF44CAF08466EE730F0004C18BF31F0CE
:100DF000004CCAD130F000427FF45CAF31F00043C8
:100E00007FF43CAF5FE700BF4FF0FF3C06E000BF60
:100E10004FF0010C02E000BF4FF0010C4DF804CD83
:100E20004FEA40024FEA41037FEA226C18BF7FEA93
:100E3000236C11D001B052EA530C18BF90EA010F95
:100E400058BFB2EB030088BFC81738BF6FEAE17024
:100E500018BF40F0010070477FEA226C02D15FEAC0
:100E6000402C05D17FEA236CE4D15FEA412CE1D02C
:100E70005DF8040B704700BF844608466146FFE7F3
:100E80000FB5FFF7C9FF002848BF10F1000F0FBDD5
:100E90004DF808EDFFF7F4FF0CBF012000205DF8CE
:100EA00008FB00BF4DF808EDFFF7EAFF34BF012053
:100EB00000205DF808FB00BF4DF808EDFFF7E0FFEC
:100EC00094BF012000205DF808FB00BF4DF808ED3D
:100ED000FFF7D2FF94BF012000205DF808FB00BFA0
:100EE0004DF808EDFFF7C8FF34BF012000205DF882
:100EF00008FB00BF4FEA4002B2F1FE4F0FD34FF0A4
:100F00009E03B3EB12620DD94FEA002343F0004376
:100F100010F0004F23FA02F018BF404270474FF024
:100F20000000704712F1610F01D1420205D110F0AB
:100F3000004008BF6FF0004070474FF0000070475E
:100F40000348044B834202D0034B03B11847704758
:100F50001000002010000020000000000548064B93
:100F60001B1AD90F01EBA301491002D0034B03B1A7
:100F700018477047100000201000002000000000FB
:100F800010B5064C237843B9FFF7DAFF044B13B1D1
:100F90000448AFF300800123237010BD100000202F
:100FA000000000005440000808B5054B1BB105497E
:100FB0000548AFF30080BDE80840FFF7CFBF00BF92
:100FC00000000000140000205440000808B50A4B3F
:100FD0001B6913F0020F04D1074B1B6913F0040FB8
:100FE00008D0054A136923F00603136102F048FC98
:100FF000024B188008BD00BF0008004044000020DC
:101000004FF080431B6913F0010F00D1704700B50A
:1010100083B04FF08042136923F001031361002372
:10102000019301AA0C490D48006801F01BFC01A9BD
:101030000B4B186801F08FFC019B4BB14FF0E02384
:101040004FF08052C3F8042DBFF34F8FBFF36F8F63
:1010500003B05DF804FB00BF4400002050000020F6
:101060004800002000B583B000F094F902F05EFB68
:1010700002F042FB02F0B6FC02F08AFB02F0AAFB8F
:1010800002F004FC02F0A8FA00220221142001F070
:1010900008FB114B186000226421012001F001FBC4
:1010A0000E4B186003220021012001F0FAFA0C4BCC
:1010B000186020B100231A46194601F01DFB0021DB
:1010C0000191042300930B468022064801F06CFF37
:1010D00001F09EFFFEE700BF500000204C00002002
:1010E00048000020891200082DE9F04F87B0DFF892
:1010F00040814FF46163A8F800304E4B00221A8003
:101100004D4D4E4B1D604E4B4E4A1A604E4F4F4B4D
:101110001F604F4B4F4A1A604F4E504B1E60504B52
:10112000504A1A60FFF716FC04462946FFF71CFDDB
:10113000FFF752F9CDE900014B492046FFF714FDB6
:10114000DFF828A1DAF80010FFF706FC0546484949
:10115000484B1868FFF708FD01462846FFF7FCFBDF
:101160000546FFF739F9CDE90201DFF80CB1DBF8EC
:1011700000102046FFF7EEFB3946FFF7F5FC31463D
:10118000FFF7A6FDFFF728F9CDE90401DFF8EC90A1
:101190003B49D9F80000FFF7E7FCFFF71DF90646C9
:1011A0000F4621A3D3E90023DDE90401FFF76CF921
:1011B00002460B4630463946FEF7B0FF06460F465C
:1011C000CBF80040CAF80050FFF770FBC9F80000E8
:1011D000DDE90223DDE90001FEF7A0FF32463B46D0
:1011E000FEF79CFFFFF762FB044602F053FA20462D
:1011F000FFF780FE0028B8BF4042B8F800408442A4
:1012000004D30C4B1C88844200D80024201AFFF71A
:1012100053FC184B1860204602F09EFB07B0BDE857
:10122000F08F00BFAFF30080000000C0CCCCEC3FDB
:101230006E0000206C000020718C8143680000204B
:101240006400002083FFE644BEC1ED406000002042
:101250005C00002004567C410AD7233C5800002043
:10126000540000206666663FBAD6934138000020DD
:10127000BB7E213E34000020300000202C000020E6
:10128000D0CCCC3D0000000000B583B04FF0FF3261
:101290000DF10601124B186801F0C7FB4FF0FF314A
:1012A000104B186801F061FCBDF90600FFF782F8E9
:1012B00000220D4BFFF7E8F807A3D3E90023FFF75F
:1012C0000DFAFFF7F3FA0146084B1860084B18684F
:1012D000FFF70AFFDAE700BF0000000000F09E40C1
:1012E0005000002048000020008076403C00002094
:1012F0004000002082B00E4B9A6942F001029A61D0
:101300009A6902F001020092009ADA6942F0805272
:10131000DA61DB6903F080530193019B054A53684E
:1013200023F0E06343F00073536002B0704700BFE6
:101330000010024000000140FEE7FEE7FEE7FEE786
:10134000FEE770477047000010B504460E4B1A7850
:101350004FF47A73B3FBF2F30C4A1068B0FBF3F06E
:1013600000F094F868B90F2C01D901200AE000229E
:1013700021464FF0FF3000F06BF8054B1C60002059
:1013800000E0012010BD00BF04000020000000208C
:101390000800002008B5074A136843F010031360E3
:1013A000032000F043F80F20FFF7CEFFFFF7A2FF66
:1013B000002008BD00200240014B1868704700BFA4
:1013C00070000020002808DB0901C9B200F160406C
:1013D00000F5614080F80013704700F00F0009012C
:1013E000C9B2014B1954704714ED00E000B500F08C
:1013F0000700C0F1070CBCF1040F28BF4FF0040C2C
:10140000031D062B0FD9C31E4FF0FF3E0EFA0CF042
:1014100021EA000199400EFA03FE22EA0E0241EA97
:1014200002005DF804FB0023EEE70000074AD368E2
:1014300023F4E0631B041B0C000200F4E060034390
:1014400043F0BF6343F40033D360704700ED00E026
:1014500010B50446054BD868C0F30220FFF7C6FF5D
:1014600001462046FFF7AEFF10BD00BF00ED00E0D3
:10147000002807DB00F01F02400901239340024AC5
:1014800042F82030704700BF00E100E00138B0F1C1
:10149000807F0BD24FF0E0235861054AF02182F89B
:1014A00023100020986107221A61704701207047BD
:1014B00000ED00E070B582B00024A446A1E07E4DAE
:1014C000AB4214D00CD8A5F58015AB420FD005F572
:1014D0007025AB420BD0A5F58015AB4210D106E0CC
:1014E000764DAB4203D005F58035AB4208D18B6811
:1014F000002B50D0012B49D04261082400E0CC6879
:10150000BEF1FF0F49D806464FEA8C0233680F251B
:10151000954023EA050304FA02F2134333604B6853
:1015200013F0805F6BD0664B9A6942F001029A61BA
:101530009B6903F001030193019B4FEA9C02951CF8
:10154000604B53F825600CF00305AD000F23AB4052
:1015500026EA03065C4B984226D003F58063984246
:1015600000F08C8003F58063984200F0898003F5D9
:101570008063984216D0042317E0CC680434BFE798
:10158000CC680834BCE7CC680C34B9E702610824A5
:10159000B6E70024B4E70424B2E7061DACF1080264
:1015A0009200B3E7032300E00023AB403343023251
:1015B000444D45F822304B6813F4801F62D0434AF3
:1015C000936843EA0E0393604B6813F4001F5FD0E7
:1015D0003E4AD36843EA0E03D3604B6813F4003FDE
:1015E0005CD03A4A536843EA0E0353604B6813F4E5
:1015F000803F59D0354A136843EA0E0313600CF15B
:10160000010C0B6833FA0CF254D0012202FA0CF2EE
:1016100003EA020E32EA0303F1D14B68122B3FF6C4
:101620004EAF122B3FF66CAF01A555F823F000BF6B
:10163000EF140008FF140008811500089315000836
:101640000115000801150008011500080115000822
:101650000115000801150008011500080115000812
:101660000115000801150008011500080115000802
:10167000011500087B15000887150008012394E771
:10168000022392E7114A936823EA0E0393609BE7D3
:101690000E4AD36823EA0E03D3609EE70B4A5368D1
:1016A00023EA0E035360A1E7084A136823EA0E03F6
:1016B0001360A4E702B070BD0000221000003110DA
:1016C00000100240000001400008014000040140F9
:1016D0000AB10161704709040161704782B0084B8B
:1016E0001B68084AA2FB03235B0A00FB03F3019378
:1016F00000BF019B5A1E0192002BF9D102B0704726
:1017000000000020D34D6210002800F0F18170B578
:1017100082B00446036813F0010F2CD0994B5B682C
:1017200003F00C03042B1DD0964B5B6803F00C03F5
:10173000082B12D06368B3F5803F41D0002B55D100
:1017400003F1804303F504331A6822F480321A60EF
:101750001A6822F480221A6037E08A4B5B6813F41F
:10176000803FE7D0874B1B6813F4003F03D06368CA
:10177000002B00F0BF81236813F0020F75D0814B5E
:101780005B6813F00C0F5FD07E4B5B6803F00C03BB
:10179000082B54D02369002B00F08A807A4B012259
:1017A0001A60FFF709FE0546764B1B6813F0020F1F
:1017B00075D1FFF701FE401B0228F5D903209EE1F9
:1017C000704A136843F480331360636843B3FFF7D0
:1017D000F3FD05466B4B1B6813F4003FCBD1FFF7BD
:1017E000EBFD401B6428F5D9032088E1B3F5A02F59
:1017F00009D0644B1A6822F480321A601A6822F405
:1018000080221A60E1E703F18043A3F53C331A68B4
:1018100042F480221A601A6842F480321A60D4E7D7
:10182000FFF7CAFD0546574B1B6813F4003FA2D0D3
:10183000FFF7C2FD401B6428F5D903205FE1514B3F
:101840005B6813F4803FA5D14E4B1B6813F0020F69
:1018500003D02369012B40F04F814A4A136823F0DB
:10186000F803616943EAC1031360236813F0080FAA
:1018700033D0A369002B5CD0434B0122C3F88024F2
:10188000FFF79AFD05463F4B5B6A13F0020F21D12B
:10189000FFF792FD401B0228F5D903202FE1394ABA
:1018A000136823F0F803616943EAC1031360DCE7BE
:1018B000354B00221A60FFF77FFD0546314B1B6850
:1018C00013F0020FD1D0FFF777FD401B0228F5D9A6
:1018D000032014E10120FFF701FF236813F0040F38
:1018E00000F09680274BDB6913F0805F34D1254BE5
:1018F000DA6942F08052DA61DB6903F080530193C8
:10190000019B0125214B1B6813F4807F26D0E368DF
:10191000012B3DD0002B53D103F1804303F5043359
:101920001A6A22F001021A621A6A22F004021A628A
:1019300033E0154B0022C3F88024FFF73DFD054638
:10194000104B5B6A13F0020FC7D0FFF735FD401B49
:101950000228F5D90320D2E00025D3E70B4A13680B
:1019600043F480731360FFF727FD0646074B1B689F
:1019700013F4807FCBD1FFF71FFD801B6428F5D9BE
:101980000320BCE000100240000042420070004012
:101990005F4A136A43F001031362E36833B3FFF74E
:1019A0000BFD06465A4B1B6A13F0020F2FD1FFF7AF
:1019B00003FD801B41F288339842F3D903209EE057
:1019C000052B09D0524B1A6A22F001021A621A6AD8
:1019D00022F004021A62E0E74D4B1A6A42F0040258
:1019E0001A621A6A42F001021A62D6E7FFF7E4FCB3
:1019F0000646474B1B6A13F0020F08D0FFF7DCFCCA
:101A0000801B41F288339842F3D9032077E0E5B98F
:101A1000E369002B72D03E4A526802F00C02082A99
:101A200056D0022B17D03B4B00221A66FFF7C4FC9E
:101A30000446374B1B6813F0007F47D0FFF7BCFC10
:101A4000001B0228F5D9032059E0314AD36923F05D
:101A50008053D361DCE72F4B00221A66FFF7ACFC02
:101A600005462B4B1B6813F0007F06D0FFF7A4FC44
:101A7000401B0228F5D9032041E0236AB3F5803FDB
:101A80001AD023494B6823F47413226A606A024314
:101A900013434B601F4B01221A66FFF78DFC04466F
:101AA0001B4B1B6813F0007F0ED1FFF785FC001B5A
:101AB0000228F5D9032022E0154A536823F40033A5
:101AC000A1680B435360DCE7002018E0002016E01B
:101AD000012B16D00E4B5B6803F48031226A9142D1
:101AE00011D103F47013626A93420ED1002006E014
:101AF00001207047012002E0012000E0002002B038
:101B000070BD0120FBE70120F9E70120F7E700BFE6
:101B100000100240000042420F4B5B6803F00C02D1
:101B2000082A01D00D487047C3F383420C49885CF2
:101B300013F4803F0BD0084B5B68C3F34043094A62
:101B4000D35C064A02FB00F0B0FBF3F07047064B93
:101B500003FB00F0704700BF0010024000127A0043
:101B6000884000088440000800093D00002800F07B
:101B7000A08070B50D460446524B1B6803F0070366
:101B80008B420BD24F4A136823F007030B431360B9
:101B9000136803F007038B4240F08D80236813F035
:101BA000020F17D013F0040F04D0474A536843F4D0
:101BB000E0635360236813F0080F04D0424A53686F
:101BC00043F460535360404A536823F0F003A16824
:101BD0000B435360236813F0010F31D06368012B6E
:101BE00020D0022B25D0384A126812F0020F64D0A0
:101BF00035494A6822F0030213434B60FFF7DCFBD0
:101C00000646314B5B6803F00C036268B3EB820F4E
:101C100016D0FFF7D1FB801B41F288339842F0D9F0
:101C2000032045E0284A126812F4003FE0D1012069
:101C30003EE0254A126812F0007FD9D1012037E03A
:101C4000204B1B6803F00703AB420AD91D4A1368F7
:101C500023F007032B431360136803F00703AB4221
:101C60002DD1236813F0040F06D0174A536823F4CC
:101C7000E063E1680B435360236813F0080F07D05B
:101C8000114A536823F46053216943EAC103536046
:101C9000FFF742FF0C4B5B68C3F303130B4AD35CA3
:101CA000D8400B4B18600B4B1868FFF74DFB00201A
:101CB00070BD012070470120FAE70120F8E70120FC
:101CC000F6E700BF00200240001002407440000808
:101CD0000000002008000020014B1868704700BF7A
:101CE0000000002008B5FFF7F7FF044B5B68C3F363
:101CF0000223034AD35CD84008BD00BF0010024055
:101D00006C40000808B5FFF7E7FF044B5B68C3F3BE
:101D1000C223034AD35CD84008BD00BF0010024074
:101D20006C40000830B4026A036A23F001030362C6
:101D30004568836923F073030C681C4322F0020298
:101D40008B6813430B4A904206D0456084614A6811
:101D50004263036230BC704723F00803CA681A4329
:101D600022F0040325F440754A692A438D6915431E
:101D7000EBE700BF002C014030B4036A026A22F492
:101D8000807202624468C26922F073020D681543D2
:101D900023F400738A6843EA02230D4A904206D076
:101DA0004460C5614A68C263036230BC704723F473
:101DB0000063CA6843EA022323F4806324F4405496
:101DC0004A6944EA02148A6944EA0214E8E700BF57
:101DD000002C014030B4036A026A22F4805202628D
:101DE0004468C26922F4E6420D6842EA052223F4FF
:101DF00000538D6843EA0533074DA84206D044607E
:101E0000C2614A680264036230BC704724F48044B3
:101E10004D6944EA8514F2E7002C01407047000048
:101E200003681F4A90420AD0B0F1804F07D0A2F554
:101E30009432904203D002F58062904203D123F0A5
:101E400070034A681343164A90420AD0B0F1804F9B
:101E500007D0A2F59432904203D002F580629042FE
:101E600003D123F44073CA68134323F080034A6903
:101E7000134303608B68C3620B688362084B98420C
:101E80000AD001234361036913F0010F03D00369F2
:101E900023F00103036170470B690363F1E700BF9F
:101EA000002C014040B310B5044690F83D30F3B12A
:101EB000022384F83D30214651F8040BFFF7B0FFB0
:101EC000012384F8463084F83E3084F83F3084F8AB
:101ED000403084F8413084F8423084F8433084F84C
:101EE000443084F8453084F83D30002010BD80F83F
:101EF0003C30FFF793FFDBE70120704730B4036A03
:101F0000026A22F0100202624468826922F4E64208
:101F10000D6842EA052223F020038D6843EA051389
:101F20000C4DA84206D0446082614A688263036215
:101F300030BC704723F08003CD6843EA051323F0DB
:101F4000400324F440644D6944EA85048D6944EA01
:101F50008504E8E7002C014038B590F83C30012BAF
:101F600066D004460D46012380F83C300C2A5AD82E
:101F7000DFE802F0075959591B5959593059595935
:101F800044000068FFF7CEFE2268936943F008031F
:101F900093612268936923F0040393612268936933
:101FA00029690B43936100203EE00068FFF7A6FF1C
:101FB0002268936943F4006393612268936923F470
:101FC0008063936122689369296943EA01239361DD
:101FD000002029E00068FFF7CFFE2268D36943F0B4
:101FE0000803D3612268D36923F00403D361226814
:101FF000D36929690B43D361002015E00068FFF71E
:10200000E9FE2268D36943F40063D3612268D3698F
:1020100023F48063D3612268D369296943EA0123E9
:10202000D361002000E00120002384F83C3038BD5B
:102030000220FCE701F01F014FF0010C0CFA01FC3B
:10204000036A23EA0C030362036A8A4013430362B0
:102050007047000010B50446084651BB94F83E3066
:10206000DBB2013B18BF0123002B5BD1002839D123
:10207000022384F83E30012201462068FFF7DAFF90
:1020800023682A4A93423DD02368284A93423ED08F
:10209000B3F1804F3BD0A2F59432934237D002F592
:1020A0008062934233D01A6842F001021A60002025
:1020B00039E0042908D008290DD094F84130DBB26A
:1020C000013B18BF0123CFE794F83F30DBB2013B5F
:1020D00018BF0123C8E794F84030DBB2013B18BFBA
:1020E0000123C1E7042805D0082807D0022384F87B
:1020F0004130C0E7022384F83F30BCE7022384F874
:102100004030B8E75A6C42F400425A64BCE79A681F
:1021100002F00702062A07D01A6842F001021A608C
:10212000002000E0012010BD0020FCE7002C014051
:1021300090F83C20012A2CD010B40346012280F8EC
:102140003C20022280F83D2002685068946820F00C
:10215000700C086840EA0C0050601A680E48824211
:102160000AD0B2F1804F07D0A0F59430824203D05C
:1021700000F58060824204D124F080044968214344
:102180009160012283F83D20002083F83C0010BCC0
:1021900070470220704700BF002C0140026802F126
:1021A0000C0353E8003F23F490730C3242E80031F3
:1021B0000029F3D1026802F1140353E8003F23F031
:1021C0000103143242E800310029F3D1036B012BE3
:1021D00005D0202380F84230002303637047026853
:1021E00002F10C0353E8003F23F010030C3242E8E5
:1021F00000310029F3D1ECE710B5044602681369F9
:1022000023F44053C1680B4313618368026913438D
:1022100042691A430168CB6823F4B05323F00C03DE
:102220001343CB600268536923F4407381690B4305
:1022300053610268134B9A4220D0FFF753FD0246C8
:1022400002EB820202EB820263689B00B2FBF3F2B4
:102250000D48A0FB02314909642303FB11231B0134
:102260003233A0FB03035B0903F0F00202EB01121F
:1022700003F00F03216813448B6010BDFFF742FD8C
:102280000246DDE7003801401F85EB512DE9F043A0
:1022900083B005460E4617469946DDF828802B6820
:1022A0001C6836EA04040CBF01240024BC4228D177
:1022B000B8F1FF3FF3D0FFF77FF8A0EB09004045EE
:1022C00023D8B8F1000F22D02B68DA6812F0040F7F
:1022D000E5D0802EE3D0402EE1D01A6812F0080F2E
:1022E000DDD0002401941A6801925B680193019B80
:1022F0002846FFF753FF08236B6485F84040012010
:1023000000E0002003B0BDE8F0830320FAE70320DB
:10231000F8E7704760B310B5044690F8413013B346
:10232000242384F841302268D36823F40053D36017
:102330002046FFF761FF2268136923F4904313617D
:102340002268536923F02A0353612268D36843F457
:102350000053D36000206064202384F8413084F867
:102360004230606310BD80F84030FFF7D2FFD7E7FE
:10237000012070472DE9F04182B01E4690F84230AE
:10238000DBB2202B59D104460D469046002958D087
:102390000AB9012052E000234364222280F842203F
:1023A0000363FFF709F80746A4F82C80A4F82E80F1
:1023B000A368B3F5805F02D04FF000081CE02369EA
:1023C00013B14FF0000817E0A846002514E02023C1
:1023D00084F84230032031E023685B68C3F30803CC
:1023E00028F8023B03E023685B682B700135E28D1F
:1023F00092B2013A92B2E285E38D9BB2C3B10096EC
:102400003B46002220212046FFF740FF0028DED176
:10241000002DE1D0A368B3F5805FE4D013B9236940
:10242000002BE0D023685B6803F07F032B70DDE7AF
:10243000202384F84230002000E0022002B0BDE8F2
:10244000F0810120FAE700F1080343604FF0FF320A
:102450008260C3600361002303607047002303614F
:10246000704730B40D68B5F1FF3F11D000F108039B
:102470001C465B681A68AA42FAD963684B60996087
:102480008C606160086103680133036030BC704791
:102490000469F2E70369416882688A6041685160B3
:1024A0005A68824206D0002202611A68013A1A6014
:1024B0001868704782685A60F5E710B5044601F065
:1024C00041FBA26BE36B9A4204D0002401F05CFB59
:1024D000204610BD0124F9E710B5044601F032FB97
:1024E000A36B23B9012401F04FFB204610BD00244B
:1024F000F9E770B504461646856B026CEAB166B919
:10250000406801F099FD6368226C13446360A2681F
:10251000934212D3236863600FE0C06801F08CFD22
:10252000E368226C51429B1AE3602268934202D214
:10253000A3680B44E360022E03D00135A56300209D
:1025400070BD002DF9D0013DF7E708B50346026CD8
:1025500062B10846D9681144D960D3F808C0614512
:1025600001D31968D960D96801F066FD08BD38B596
:10257000054601F0E7FA95F8454064B201E0013CF8
:1025800064B2002C0ADD6B6A43B105F1240000F04F
:1025900055FF0028F3D001F019F8F0E7FF2385F884
:1025A000453001F0F1FA01F0CDFA95F8444064B2FB
:1025B00001E0013C64B2002C0ADD2B6943B105F156
:1025C000100000F03BFF0028F3D000F0FFFFF0E721
:1025D000FF2385F8443001F0D7FA38BD38B590B103
:1025E0000D460446C36B2BB1026C0021A2FB0323F2
:1025F00093B999B14FF0500383F31188BFF36F8FF4
:10260000BFF34F8FFEE74FF0500383F31188BFF302
:102610006F8FBFF34F8FFEE70121EAE701F092FAD7
:102620002368E26B216C01FB0230A0600020A063F4
:102630006360013A02FB0133E360FF2384F8443016
:1026400084F84530B5B923691BB901F09DFA012022
:1026500038BD04F1100000F0F1FE0028F5D04FF075
:10266000E0234FF08052C3F8042DBFF34F8FBFF328
:102670006F8FEAE704F11000FFF7E5FE04F1240094
:10268000FFF7E1FEE1E710B5034602980C4631B9C9
:102690000060C36304640121FFF7A0FF10BD026066
:1026A000F7E7F0B583B060B10C4617460546002346
:1026B000A4FB001272B923B904FB05F010F1490F15
:1026C0000AD94FF0500383F31188BFF36F8FBFF324
:1026D0004F8FFEE70123EEE7483001F0A7FB0646E7
:1026E00038B100903B4600F1480221462846FFF7EA
:1026F000CAFF304603B0F0BDF0B585B0019238B1E5
:102700000F461D46044661B1022D16D0002660E03A
:102710004FF0500383F31188BFF36F8FBFF34F8FD8
:10272000FEE7036C002BEFD04FF0500383F31188CA
:10273000BFF36F8FBFF34F8FFEE7E36B012B08D022
:102740004FF0500383F31188BFF36F8FBFF34F8FA8
:10275000FEE700263DE02A4639462046FFF7C9FE3F
:10276000636A7BB948B14FF0E0234FF08052C3F861
:10277000042DBFF34F8FBFF36F8F01F005FA0120D7
:1027800005B0F0BD04F1240000F058FE0028F4D09C
:102790004FF0E0234FF08052C3F8042DBFF34F8F6A
:1027A000BFF36F8FE9E701F0EFF90020E8E702A837
:1027B00000F0BCFE012619E0002384F8443021E03B
:1027C000002384F8453023E02046FFF7D0FE00F0D8
:1027D0002BFD01F0B7F9A26BE36B9A42BBD3022D3C
:1027E000B9D0019B002BDED0002EE0D001F0CCF957
:1027F00000F050FC01F0A6F994F8442052B2B2F176
:10280000FF3FD9D094F8452052B2B2F1FF3FD7D064
:1028100001F0BAF901A902A800F094FED8B9204647
:10282000FFF74BFE0028CFD0019904F1100000F013
:10283000EDFD2046FFF79BFE00F0F6FC0028C8D116
:102840004FF0E0234FF08052C3F8042DBFF34F8FB9
:10285000BFF36F8FBDE72046FFF789FE00F0E4FC71
:1028600000208DE72DE9F84390B10F4616461C462F
:102870000546B1B1022C20D1EB6B012B1DD04FF0DE
:10288000500383F31188BFF36F8FBFF34F8FFEE7C1
:102890004FF0500383F31188BFF36F8FBFF34F8F57
:1028A000FEE7036C002BE5D04FF0500383F3118853
:1028B000BFF36F8FBFF34F8FFEE701F02DFAEFF3F9
:1028C00011884FF0500383F31188BFF36F8FBFF36C
:1028D0004F8FAA6BEB6B9A4206D3022C04D00020D8
:1028E00088F31188BDE8F88395F845904FFA89F987
:1028F000AB6B224639462846FFF7FBFDB9F1FF3F97
:102900000CD16B6A0BB90120EAE705F1240000F055
:1029100095FDD0B1DEB101203060E1E700F0C2FBEF
:10292000814516D2B9F17F0F06D009F101035BB2E0
:1029300085F845300120D3E74FF0500383F3118829
:10294000BFF36F8FBFF34F8FFEE70120C8E7012071
:10295000C6E70120C4E7F8B560B10D460446036C34
:102960008BB14FF0500383F31188BFF36F8FBFF328
:102970004F8FFEE74FF0500383F31188BFF36F8F43
:10298000BFF34F8FFEE70368DBB101F0C5F9EFF34A
:1029900011864FF0500383F31188BFF36F8FBFF39D
:1029A0004F8FA36BE26B9A4235D994F845707FB292
:1029B0000133A363B7F1FF3F18D1636A6BB90120FC
:1029C0002AE08368002BE0D04FF0500383F3118896
:1029D000BFF36F8FBFF34F8FFEE704F1240000F0C9
:1029E0002DFDE0B1EDB10120286015E000F05AFBAB
:1029F000874218D27F2F05D07B1C5BB284F845300C
:102A0000012009E04FF0500383F31188BFF36F8F6B
:102A1000BFF34F8FFEE7002086F31188F8BD012039
:102A2000FAE70120F8E70120F6E7F0B585B001925A
:102A300020B10F46044651B1002654E04FF0500338
:102A400083F31188BFF36F8FBFF34F8FFEE7036CE3
:102A500043B14FF0500383F31188BFF36F8FBFF37F
:102A60004F8FFEE700263EE039462046FFF76DFD1A
:102A7000013DA563236923B901F086F8012005B063
:102A8000F0BD04F1100000F0D9FC0028F4D04FF0A4
:102A9000E0234FF08052C3F8042DBFF34F8FBFF3F4
:102AA0006F8FE9E701F070F80020E8E702A800F076
:102AB0003DFD012621E0002384F8443029E0002375
:102AC00084F845302BE02046FFF751FD00F0ACFBC9
:102AD00009E02046FFF74BFD00F0A6FB2046FFF77C
:102AE000FBFC00283FD101F02DF8A56B002DBBD1D8
:102AF000019B002BD6D0002ED8D001F045F800F075
:102B0000C9FA01F01FF894F844305BB2B3F1FF3F0B
:102B1000D1D094F845305BB2B3F1FF3FCFD001F094
:102B200033F801A902A800F00DFD0028D1D12046FC
:102B3000FFF7D2FC0028C6D0019904F1240000F070
:102B400065FC2046FFF713FD00F06EFB0028CAD19C
:102B50004FF0E0234FF08052C3F8042DBFF34F8FA6
:102B6000BFF36F8FBFE7002089E730B585B00191D3
:102B700058B10446036C8BB14FF0500383F31188B6
:102B8000BFF36F8FBFF34F8FFEE74FF0500383F318
:102B90001188BFF36F8FBFF34F8FFEE700253AE038
:102BA000013BA363236923B900F0EEFF012005B0C8
:102BB00030BD04F1100000F041FC0028F4D04FF0CB
:102BC000E0234FF08052C3F8042DBFF34F8FBFF3C3
:102BD0006F8FE9E700F0D8FF0020E8E702A800F0D7
:102BE000A5FC012521E0002384F8443029E00023DE
:102BF00084F845302BE02046FFF7B9FC00F014FBC9
:102C000009E02046FFF7B3FC00F00EFB2046FFF77B
:102C100063FC00283FD100F095FFA36B002BBFD1D0
:102C2000019B002BD6D0002DD8D000F0ADFF00F0D6
:102C300031FA00F087FF94F844305BB2B3F1FF3F04
:102C4000D1D094F845305BB2B3F1FF3FCFD000F064
:102C50009BFF01A902A800F075FC0028D1D12046F5
:102C6000FFF73AFC0028C6D0019904F1240000F0D7
:102C7000CDFB2046FFF77BFC00F0D6FA0028CAD136
:102C80004FF0E0234FF08052C3F8042DBFF34F8F75
:102C9000BFF36F8FBFE7002089E70000074B1B6879
:102CA0001B6823B9064B4FF0FF321A607047034B85
:102CB0001B68DB681A68024B1A607047E40000204A
:102CC0007C00002010B50446006B01F029F9204675
:102CD00001F026F910BD2DE9F04105461E46069F7C
:102CE000089C236B02F18042013A03EB820323F03C
:102CF000070871B10B460022092A07D8995C04EB3A
:102D0000020C8CF8341009B10132F5E7002384F885
:102D10003D30042F08D94FF0500383F31188BFF3DF
:102D20006F8FBFF34F8FFEE7E762201DFFF796FB23
:102D300004F11800FFF792FB2461C7F10507A761B2
:102D4000646232462946404600F0D6FE2060079B6A
:102D500003B11C60BDE8F08138B5002407E004EB46
:102D6000840293000E481844FFF76DFB0134042CD5
:102D7000F5D90C4D2846FFF766FB0B4C2046FFF7B4
:102D800062FB0A48FFF75FFB0948FFF75CFB094855
:102D9000FFF759FB084B1D60084B1C6038BD00BF96
:102DA00010010020FC000020E8000020CC000020E2
:102DB000B8000020A0000020E4000020E000002077
:102DC00010B5044600F0BEFE284A136801331360B4
:102DD000274B1B685BB1274B1B686BB9244B1B68E7
:102DE000DA6AE36A9A4207D8214B1C6004E0204B60
:102DF0001C601368012B36D01F4A1368013313601F
:102E0000E36A01229A401D49086802430A601C4A8D
:102E100003EB830302EB83035B68A3609868E060C5
:102E2000211D41609960E36A03EB8301880002EB96
:102E30008101616111580131115000F0A5FE0D4B67
:102E40001B687BB10A4B1B68DA6AE36A9A4209D2B3
:102E50004FF0E0234FF08052C3F8042DBFF34F8FA3
:102E6000BFF36F8F10BDFFF777FFC5E79C00002011
:102E700074010020900000208000002094000020B9
:102E8000100100200F4B1B68D3B110B500F05AFEA3
:102E90000D4BDB68DC68201DFFF7FCFA0B4A13685A
:102EA000013B1360074A1368013B136000F06CFE9E
:102EB0002046FFF707FF034B1B68002BE6D110BD30
:102EC000704700BFB4000020B80000209C00002024
:102ED00008B5FFF7D7FF074B1B68012BF9D94FF057
:102EE000E0234FF08052C3F8042DBFF34F8FBFF3A0
:102EF0006F8FEEE71001002070B504460D46234B9E
:102F00001E68234B18680430FFF7C4FA48B9204BF9
:102F10001B68DB6A01229A401E490B6823EA020300
:102F20000B60B4F1FF3F0DD03444194B1B685C605B
:102F3000A6421DD9184B1868154B19680431FFF7C4
:102F400090FA70BD002DEFD0144A5168104B1868EC
:102F5000816018688C68C460186804306060186804
:102F6000043088601B685A61136801331360E8E716
:102F70000B4B1868064B19680431FFF772FA094BBE
:102F80001B68A342DDD9074B1C60DAE798000020DC
:102F90007401002094000020E0000020A000002028
:102FA000E40000207C0000202DE9F04385B00746B6
:102FB000884614461E46900000F038FF18B381463C
:102FC000482000F033FF0546B8B14822002101F047
:102FD00006F8C5F830900023039302950D9B0193EA
:102FE0000C9B00933346224641463846FFF773FE5A
:102FF0002846FFF7E5FE012007E0484600F090FF75
:103000004FF0FF3001E04FF0FF3005B0BDE8F08336
:1030100000B583B0184B0193002300938022174919
:103020001748FFF7C1FF012807D0B0F1FF3F19D0C3
:10303000144B1B6803B05DF804FB4FF0500383F39F
:103040001188BFF36F8FBFF34F8F0F4B4FF0FF32DD
:103050001A600E4B01221A600D4B00221A6000F01C
:10306000FBFDE5E74FF0500383F31188BFF36F8F4B
:10307000BFF34F8FFEE700BF7800002098400008A4
:10308000D12E0008A04000087C0000209000002005
:1030900098000020024A136801331360704700BF94
:1030A00074000020014B1868704700BF9C0000208E
:1030B000F8B5524B1B68002B40F09980504B1C68B0
:1030C00001341C60C4B94F4B1B681B6843B14FF0FF
:1030D000500383F31188BFF36F8FBFF34F8FFEE769
:1030E000484A1168484B186810601960474A1368CD
:1030F00001331360FFF7D2FD454B1B68A34211D982
:103100000020444B1B68DB6A03EB83039A00424BAD
:103110009B58012B00D90120404B1B68002B6BD022
:10312000012069E0002037E0394B4FF0FF321A6090
:10313000E7E7374B1A60E4E7D968516042E00021C5
:103140009962116801391160DA6A01219140344EA7
:10315000376839433160304902EB82024FEA820C12
:103160008C44DCF804209A609668DE607560956097
:10317000DA6A02EB820C4FEA8C056E185E614D59DB
:1031800001354FEA8C0C41F80C50DA6A214B1B6870
:10319000DB6A9A4200D901201A4B1B681B68002B7E
:1031A000C2D0184B1B68DB68DB685A689442C0D3F6
:1031B0005A699D68D968A9609D684D6051681D1D58
:1031C000A942B9D0002159611168013911609A6A88
:1031D000002AB9D0DE69196AB160DE694E605668AE
:1031E00003F118018E42AAD1196A5160A7E70D4A6E
:1031F0001368013313600020F8BD00BF7400002085
:1032000098000020E4000020E0000020840000205E
:103210007C000020740100201001002088000020A4
:10322000940000208C00002038B54A4B1B6843B93D
:103230004FF0500383F31188BFF36F8FBFF34F8FAD
:10324000FEE700F07FFC434B1A68013A1A601B68E6
:10325000002B7AD1404B1B683BB9002476E0196AF9
:10326000516015E0D968516021E000233B4A1268A3
:10327000002A47D0394BDB68DB689A6AD869196A3B
:103280008160D8694860506803F118018842E6D02F
:10329000002199621168013911605A699868D968EA
:1032A0008160986848605168181D8142DAD0002119
:1032B0005961116801391160DA6A01219140284C85
:1032C000256829432160274902EB820201EB820233
:1032D00052689A609468DC6060609060DA6A02EB21
:1032E0008200840001EB80005861085901300851C8
:1032F000D96A1D4A1268D26A9142B7D31B4A01218A
:103300001160B3E70BB1FFF7C9FC194B1C6884B916
:10331000164B1C68D4B14FF0E0234FF08052C3F835
:10332000042DBFF34F8FBFF36F8F01240EE0013CDC
:1033300007D0FFF7BDFE0028F9D00C4B01221A6020
:10334000F5E70B4B00221A60E2E7002400F01CFCBA
:10335000204638BD740000209C000020CC000020D6
:10336000940000201001002074010020880000203B
:103370008C000020204B1B681BB1204B01221A60DF
:1033800070471E4B00221A601D4B1B68B3FA83F373
:10339000DBB2C3F11F0303EB83018A0019498A588A
:1033A00042B94FF0500383F31188BFF36F8FBFF31F
:1033B0004F8FFEE7134803EB83018A0002445168F4
:1033C0004968516003EB830C4FEA8C0208320244D7
:1033D000914209D003EB83039A000A4B13445B68C4
:1033E000DA68094B1A607047486862469100054ADE
:1033F0000A445060EEE700BF7400002088000020FF
:1034000094000020100100207401002058B110B574
:103410000C46094A11681831FFF723F801212046AC
:10342000FFF76AFD10BD4FF0500383F31188BFF31F
:103430006F8FBFF34F8FFEE774010020C368DB6816
:10344000002B4AD030B49A6AD869196A8160D86969
:103450004860516803F11800814247D00021996209
:103460001168013911602B4A1268002A44D15A6947
:103470009868D9688160986848605168181D8142D1
:1034800037D000215961116801391160DA6A0121D0
:103490009140214C256829432160204902EB82029A
:1034A00001EB820252689A609468DC606060906010
:1034B000DA6A02EB8200840001EB8000586108594F
:1034C00001300851DA6A164B1B68DB6A9A421FD931
:1034D0000120144B186030BC70474FF0500383F349
:1034E0001188BFF36F8FBFF34F8FFEE7196A5160EA
:1034F000B4E7D9685160C4E70B4A5168D9618C6858
:103500001C62606088609A62116801311160D9E7BD
:103510000020E0E77400002094000020100100204B
:103520007401002088000020CC000020034B1B68A1
:103530000360034B1B684360704700BF840000209A
:1035400098000020C8B170B50C460546F1B100F0F6
:10355000F9FA1C4B19686B68C81A2268B2F1FF3F70
:103560002BD0194E3668D5F800C0B44517D08B4221
:1035700015D800232360012420E04FF0500383F38B
:103580001188BFF36F8FBFF34F8FFEE74FF05003EB
:1035900083F31188BFF36F8FBFF34F8FFEE7824233
:1035A00003D800232360012408E05B1A134423603E
:1035B0002846FFF7BBFF002400E0002400F0E4FAF7
:1035C000204670BD9800002084000020014B01229D
:1035D0001A6070478800002030B587B0114B9A6997
:1035E00042F010029A619B6903F010030193019B62
:1035F000002402940394049405940B4D01224FF48B
:1036000000512846FEF764F8012303934FF400535A
:10361000029304940323059302A92846FDF74AFF69
:1036200007B030BD0010024000100140F0B587B077
:10363000164B9A6942F008029A619B6903F00803ED
:103640000193019B124D002201212846FEF740F80C
:10365000002202212846FEF73BF80024029403943E
:10366000049405940126039602960327059702A960
:103670002846FDF71FFF0396022302930494059743
:1036800002A92846FDF716FF07B0F0BD0010024062
:10369000000C014010B504460021FDF721FC80B963
:1036A00000212046FDF7FEFBB8B9124C0022012193
:1036B0002046FEF70DF8002202212046FEF708F80A
:1036C0000AE00C4C012211462046FEF701F80022C8
:1036D00002212046FDF7FCFF10BD064C002201210F
:1036E0002046FDF7F5FF012202212046FDF7F0FFFD
:1036F000F2E700BF000C014082B00A4B9A6942F029
:1037000020029A619A6902F020020092009A9A6956
:1037100042F004029A619B6903F004030193019B48
:1037200002B070470010024072B6FEE700B591B0DB
:103730002822002106A800F052FC002301930293E6
:10374000039304930593012206924FF48033079369
:103750000A9202220D920E934FF4E0130F9306A8E3
:10376000FDF7D2FF80B90F230193022102910023BC
:1037700003934FF480620492059301A8FEF7F6F9D3
:1037800020B911B05DF804FBFFF7CEFFFFF7CCFFC7
:103790000E4AD36943F00103D3614FF0804341F6F1
:1037A0001F429A6242F20F72DA621A6842F0010214
:1037B0001A60DA6842F00102DA60054B802283F871
:1037C0001C234FF080521A60704700BF0010024067
:1037D00000E100E0284BDA6942F00402DA619A69FC
:1037E00042F008029A61A3F582331A6822F04C5223
:1037F0001A601A6822F04C421A601A6842F00842B5
:103800001A60DA6842F0C002DA60A3F58233002160
:1038100099624FF6FE72DA629A6842F003029A6089
:103820009A6942F4807242F001029A619A6922F424
:10383000406222F00C029A619A6922F4704222F0EE
:10384000F0029A611A6A42F022021A621A6A42F07F
:1038500011021A625962DA6842F00602DA60074A17
:10386000702182F81E134FF0804111601A6842F0F7
:1038700001021A60704700BF0010024000E100E042
:10388000014B586A00B270470008004030B591B053
:1038900000240C940D940E940F942B4DAB6943F0BF
:1038A0000403AB61AB6903F004030193019B402364
:1038B0000C9302230D930F930CA92448FDF7FAFDF6
:1038C000EB6943F00203EB61EB6903F0020302933F
:1038D000029B0A940B940394049405940694079411
:1038E000089409941A481B4B0360446084604FF4A9
:1038F0006163C360046180238361FEF7D3FAD0B9AA
:1039000000230A930B930AA91148FEF711FCA8B9EA
:1039100060230393002204920592079203A90C48A6
:10392000FEF71AFB68B900210948FEF793FBFFF781
:103930007DFE11B030BDFFF7F7FEE1E7FFF7F4FEC3
:10394000E6E7FFF7F1FEEEE7001002400008014055
:103950007801002000040040014B1B685863704749
:103960007801002070B582B04FF0FF3301220DF1D5
:1039700007011848FEF7FEFC9DF80730532B07D0CF
:1039800015490A78501C087014498B5402B070BD58
:10399000114E3378114D0024EC54009423466A46AE
:1039A00029460F480068FEF75DFF34706422214607
:1039B000284600F014FB009B002BE7D04FF0E023DB
:1039C0004FF08052C3F8042DBFF34F8FBFF36F8FBA
:1039D000DCE700BF28020020C0010020C401002055
:1039E0004C00002030B587B0274B9A6942F48042E2
:1039F0009A619A6902F480420092009A9A6942F0B0
:103A000004029A619B6903F004030193019B002463
:103A100002940394049405944FF4007302930223D8
:103A2000039303230593194D02A92846FDF742FD90
:103A30004FF4806302930394049402A92846FDF78F
:103A400039FD1348134B03604FF4E1334360846046
:103A5000C46004610C2343618461C461FEF75AFCB5
:103A600078B90B4B1A68D36843F02003D360002267
:103A700005212520FDF7ECFC2520FDF7F9FC07B01A
:103A800030BDFFF751FEECE7001002400008014096
:103A9000280200200038014082B0002301930D4B22
:103AA0001B68B3F1FF3F08D04FF0500383F3118838
:103AB000BFF36F8FBFF34F8FFEE74FF0500383F3D9
:103AC0001188BFF36F8FBFF34F8F019B002BFCD08A
:103AD00002B070470C00002006480068006880F3C0
:103AE000088862B661B6BFF34F8FBFF36F8F00DFF8
:103AF00000BF000008ED00E04FF0807340F8043C88
:103B000021F0010140F8081C034B40F80C3C40F840
:103B1000202C4038704700BF993A00080000000090
:103B2000074B19680868B0E8F00F80F30988BFF305
:103B30006F8F4FF0000080F311884EF00D0E70472C
:103B4000740100204FF0500383F31188BFF36F8F8F
:103B5000BFF34F8F0B4A136801331360012B00D062
:103B600070474FF0E023D3F8043D13F0FF0FF7D078
:103B70004FF0500383F31188BFF36F8FBFF34F8F64
:103B8000FEE700BF0C000020094B1B6843B94FF053
:103B9000500383F31188BFF36F8FBFF34F8FFEE79E
:103BA000013B034A13600BB983F31188704700BFD0
:103BB0000C000020000000000000000000000000D9
:103BC000EFF30980BFF36F8F0D4B1A6820E9F00FF8
:103BD00010602DE908404FF0500080F31188FFF786
:103BE000C9FB4FF0000080F31188BDE80840196858
:103BF0000868B0E8F00F80F30988BFF36F8F704753
:103C00007401002008B54FF0500383F31188BFF30F
:103C10006F8FBFF34F8FFFF74BFA28B14FF0E023C0
:103C20004FF08052C3F8042D002383F3118808BDA0
:103C30004FF0E022002313619361054B1B68054997
:103C4000A1FB03139B09013B5361072313617047D9
:103C500000000020D34D621010B582B02A4B1A78B4
:103C6000D2B20192FF221A701B78DBB28DF80330BA
:103C70009DF8033003F05003244A1370244B0722AD
:103C80001A6009E0224A1368013B13609DF8033073
:103C90005B00DBB28DF803309DF8033013F0800F2A
:103CA000F0D11B4B1B68032B08D04FF0500383F35C
:103CB0001188BFF36F8FBFF34F8FFEE71B02144ACB
:103CC000136003F4E0631360019BDBB20E4A1370D0
:103CD0004FF0E023D3F8202D42F47002C3F8202DDA
:103CE000D3F8202D42F07042C3F8202DFFF7A0FF3B
:103CF0000024084B1C60FFF7EFFEFFF73BFBFFF7CC
:103D0000CBFE204602B010BD00E400E074020020AB
:103D1000700200200C000020EFF305830F2B0FD959
:103D2000114A9B5CDBB2114A12789A4208D94FF0D3
:103D3000500383F31188BFF36F8FBFF34F8FFEE7FC
:103D40004FF0E023D3F80C3D03F4E063084A126817
:103D5000934208D94FF0500383F31188BFF36F8F5C
:103D6000BFF34F8FFEE77047F0E300E074020020DE
:103D700070020020104A12F0070F1AD0D11D21F056
:103D80000701C1F5884313440A460C48026000212C
:103D900041601344083B23F007030948036059605E
:103DA0001960991A51601360064B1960064B19602F
:103DB00070474FF48843E8E7940200208C0200200B
:103DC000880200208002002084020020154B1A4641
:103DD0001B688342FBD3516802EB010C844509D078
:103DE000416800EB010C634509D00360904218D094
:103DF000106070474068014451601046F0E710B40D
:103E0000094C2468A3420AD05B68194441601368D6
:103E10001B680360904200D0106010BC70470460C3
:103E2000F8E770478C0200208802002070B5054634
:103E3000FFF730F9354B1B685BB175B105F007032F
:103E4000C3F11002113BAB4206D3AD1805D50026D5
:103E500047E0FFF78FFFF0E70025002D40D02C4B07
:103E60001B68AB424BD32B4A146801E022461C4628
:103E70006368AB4202D22368002BF7D1234B1B6847
:103E8000A3423ED0166808362368136063685B1B44
:103E9000102B10D9601910F0070F08D04FF0500305
:103EA00083F31188BFF36F8FBFF34F8FFEE743603B
:103EB0006560FFF78BFF626815490B689B1A0B6002
:103EC000154909688B4201D213490B6042F0004248
:103ED000626000232360114A13680133136000E01D
:103EE0000026FFF7A1F916F0070F0CD04FF0500392
:103EF00083F31188BFF36F8FBFF34F8FFEE7002668
:103F0000EFE70026EDE7304670BD00BF88020020D5
:103F1000840200208C020020800200207C0200200D
:103F200090B338B50446A0F1080550F8043C002BC6
:103F300008DB4FF0500383F31188BFF36F8FBFF39B
:103F40004F8FFEE750F8082C42B14FF0500383F337
:103F50001188BFF36F8FBFF34F8FFEE723F000434D
:103F600040F8043CFFF796F854F8041C074A13681D
:103F70000B4413602846FFF729FF054A13680133F5
:103F80001360FFF751F938BD704700BF840200206D
:103F900078020020FDF7D6F90B480C490C4A0023A3
:103FA00002E0D458C4500433C4188C42F9D3094AEF
:103FB000094C002301E013600432A242FBD300F05D
:103FC00017F8FDF74FF870470000002010000020A0
:103FD000AC4000081000002094460020FEE7034695
:103FE0000244934200D1704703F8011BF9E7000037
:103FF00070B500260C4D0D4C641BA410A64209D1CF
:1040000000F028F800260A4D0A4C641BA410A642B2
:1040100005D170BD55F8043B98470136EEE755F8D9
:10402000043B98470136F2E7A4400008A44000088A
:10403000A4400008A84000080A44914200F1FF3360
:1040400000D1704710B511F8014B914203F8014FB0
:10405000F9D110BDF8B500BFF8BC08BC9E4670474A
:0C406000F8B500BFF8BC08BC9E467047D5
:10406C00000000000102030400000000000000003A
:10407C0001020304060708090102000002030405FB
:10408C00060708090A0B0C0D0E0F101049444C457D
:08409C00000000000400000018
:0440A400A90F000858
:0440A800810F00087C
:1040AC0000127A000100000010000000AAAAAAAABF
:0400000508003F951B
:00000001FF
